:020000040800F2
:1000000020070020CD010008071200086D1000082D
:1000100005120008D3020008B51300080000000014
:10002000000000000000000000000000771200083F
:10003000D50200080000000009120008791200082B
:10004000E7010008E7010008E7010008E7010008F0
:10005000E7010008E7010008E7010008E7010008E0
:10006000E7010008E7010008E7010008E7010008D0
:10007000E7010008E7010008E7010008E7010008C0
:10008000E7010008E7010008E7010008E7010008B0
:10009000E7010008E7010008E7010008E7010008A0
:1000A000E7010008E7010008E7010008E701000890
:1000B000E7010008E7010008E7010008E701000880
:1000C000E7010008E7010008E7010008E701000870
:1000D000E7010008E7010008E7010008E701000860
:1000E000E7010008E7010008E7010008E701000850
:1000F000E7010008E7010008E7010008E701000840
:10010000E7010008E7010008E7010008E70100082F
:10011000E7010008E7010008E7010008E70100081F
:10012000E7010008E7010008E7010008E70100080F
:1001300000F002F800F03AF80AA090E8000C8244BF
:100140008344AAF10107DA4501D100F02FF8AFF29C
:10015000090EBAE80F0013F0010F18BFFB1A43F0A5
:1001600001031847C8120000E8120000103A24BF2B
:1001700078C878C1FAD8520724BF30C830C144BF0C
:1001800004680C607047000000230024002500264E
:10019000103A28BF78C1FBD8520728BF30C148BFEA
:1001A0000B6070471FB51FBD10B510BD00F058F8AB
:1001B0001146FFF7F7FF01F00EF900F076F803B4EF
:1001C000FFF7F2FF03BC00F07DF80000094880470C
:1001D00009480047FEE7FEE7FEE7FEE7FEE7FEE729
:1001E000FEE7FEE7FEE7FEE704480549054A064B41
:1001F00070470000FB1200083101000820010020B8
:100200002007002020030020200300204FF00002E0
:1002100000B5134694469646203922BFA0E80C50FC
:10022000A0E80C50B1F12001BFF4F7AF090728BFD7
:10023000A0E80C5048BF0CC05DF804EB890028BF53
:1002400040F8042B08BF704748BF20F8022B11F07C
:10025000804F18BF00F8012B7047704770477047F8
:10026000754600F02BF8AE4605006946534620F06F
:100270000700854618B020B5FFF7B6FFBDE820405F
:100280004FF000064FF000074FF000084FF0000B52
:1002900021F00701AC46ACE8C009ACE8C009ACE805
:1002A000C009ACE8C0098D46704710B50446AFF3ED
:1002B00000802046BDE81040FFF781BF004870472E
:1002C000C000002001491820ABBEFEE72600020056
:1002D0007047FEE7704772B6FEE700002DE9F84F61
:1002E000DFF8C8910024A9F1040B23460F2709F178
:1002F000040AABF1040ED1E00125A54006EA05028F
:10030000AA4276D1DFF8A8C14E68A6EB0C08664574
:100310002BD00DDC032E34D005DC36B3012E19D0E2
:10032000022E2FD11BE0112E16D0122E2AD119E049
:10033000B8F5881F19D006DCB8F5803F15D0B8F5A0
:10034000801F1FD111E0B8F5001F0ED0B8F5041FB3
:1003500018D10AE0CB6815E0CB681B1D12E0CB6812
:1003600008330FE0CB680C330CE08B682BB1012B0A
:100370004FF0080303D0456104E0042302E0056167
:1003800000E00023FF2A01D8064601E000F1040640
:100390004FEA840501D9A5F12005D6F8008007FAB7
:1003A00005FC28EA0C0803FA05F548EA0508C6F832
:1003B00000804D68ED0070D53E4DAE6946F00106F7
:1003C000AE61AD6924F0030605F0010500953A4DD4
:1003D00006EB050CDCF80850A607360F07FA06F8FE
:1003E00025EA0805DFF8D480404503D14FF0000826
:1003F00025E052E0DFF8C880404502D14FF0010807
:100400001DE0DFF8C080404502D14FF0020816E041
:10041000DFF8B480404502D14FF003080FE0DFF869
:10042000AC80404502D14FF0040808E0DFF8A0801E
:10043000404502D14FF0050801E04FF0060808FAE8
:1004400006F848EA0508CCF808804D68D9F800603D
:10045000ED024D4601D5164300E096432E604D68EF
:10046000DAF80060AD02554601D5164300E0964328
:100470002E604D68DBF80060AD035D4601D5164384
:1004800000E096432E604D68DEF80060ED0375468F
:1004900001D5164300E096432E60641C0A68164698
:1004A000E2407FF429AFBDE8F88F00000804014066
:1004B000000011100010024000000140000801403F
:1004C000000C0140001001400014014000180140E0
:1004D000001C01400AB1016170470904FBE70000FC
:1004E00001488068704700000000002070B50400DB
:1004F00025D094F83D00002520B984F83C502046D2
:1005000000F0B8F8242084F83D002068016821F04C
:10051000010101602068016841F400410160206828
:10052000016821F40041016000F0CAFA4D4A616897
:10053000914201D84C4900E04C49884201D2012047
:1005400070BD4B492368B0FBF1F15E6826F03F06B1
:100550000E435E606368934206D94FF49673594325
:100560004FF47A73B1FBF3F12368491C1E6A26F03D
:100570003F06314319626168914210D84900401E1C
:10058000B0FBF1F2521CC2F30B02042A01D2042088
:1005900022E0B0FBF1F0401CC0F30B001CE0A268AD
:1005A000F2B301EBC10303EB0116431EB3FBF6F3F9
:1005B0005B1C43F480431B0549D092B301EBC1029D
:1005C00002EB0111401EB0FBF1F0401CC0F30B0028
:1005D00040F4804040F400402168CA694CF6FF7343
:1005E0009A431043C861D4E90710014320680268A8
:1005F00022F0C00211430160D4E9030101432068E5
:10060000826848F2FF339A4311438160D4E90501BF
:1006100008432168CA6822F0FF021043C86001E065
:100620000EE016E02068016841F0010101602564D8
:10063000202084F83D00256384F83E50002070BDE2
:1006400001EB4106431EB3FBF6F35B1CB3E701204D
:10065000C2E701EB4101401EB0FBF1F0401CC0F3CA
:100660000B00B7E7A086010080841E0000093D0052
:1006700040420F0010B586B0002100910191029117
:10068000039100680F4988421AD10F4CA06940F0CD
:100690000800A061A069694600F008000490C0202D
:1006A000009012200190032003900848FFF716FEE7
:1006B000E06940F40010E061E06900F4001004908B
:1006C00006B010BD0054004000100240000C014074
:1006D0000248816802781144816070470000002060
:1006E000074810B5016841F010010160032000F0D7
:1006F00067F80F2000F006F800F024F8002010BD85
:100700000020024070B50D4D04464FF47A712878F0
:10071000B1FBF0F00A490968B1FBF0F000F027FCEA
:1007200048B9102C07D200222146501E00F028F8AC
:1007300000206C6070BD012070BD00000000002032
:100740000C0000200C4808B5816941F0010181616D
:10075000816901F001010091C16941F08051C161DD
:10076000C06900F0805000900448416821F0E061C9
:1007700041F00071416008BD0010024000000140DE
:10078000F0B40E4B1B680C46C3F30223C3F10705FC
:10079000042D00D90425191D072901D2002300E0EA
:1007A000DB1E012606FA05F1491E214099409E40B4
:1007B000761E16403143F0BC00F0FDBD0CED00E0AC
:1007C000064900F0070208684FF6FF03184040EAA8
:1007D0000220034A10430860704700000CED00E05F
:1007E0000000FA05014901200862704700000E422E
:1007F00010B501460020284C04292FD00BDC01291C
:1008000030D0022929D100F06BF96168C1F3813140
:10081000491C49001FE0082920D010291DD161681A
:100820002268D20119D51D48C1F38342C903805CF7
:100830000AD56168194AC1F34041921E515C184AB9
:10084000B2FBF1F1484301E01649484361684902AF
:1008500003D440000321B0FBF1F010BDBDE810400F
:1008600000F04EB9226AC2F30121012903D1920797
:1008700001D5C80310BD022905D1626A920702D5CD
:1008800049F6404010BD0329FCD121688903F9D500
:100890004FF2244010BD0000001002400414000874
:1008A00000127A0000093D002DE9F8430546007862
:1008B000354CC00754D0E0690026C00008D4E06978
:1008C00040F08050E061E069012600F08050009027
:1008D0002E480168C90512D40168804641F4807130
:1008E0000160FFF7FDFD074605E000BFFFF7F8FDDB
:1008F000C01B642823D8D8F80000C005F6D5206AAC
:1009000010F4407021D0A98801F4407181421CD0BC
:10091000206A1F49012220F440700A6000220A6008
:100920002062C00711D0FFF7DBFD074641F288388F
:1009300008E000BFFFF7D4FDC11B414502D90320E9
:10094000BDE8F883206A8007F4D5206A696820F43E
:100950004070084320621EB1E06920F08050E061E1
:100960002878800705D56068A96820F440400843CE
:1009700060602878C00605D56068696920F4800049
:10098000084360600020DBE7001002400070004078
:10099000400442422DE9F0470F46050061D0434E26
:1009A000306800F00700B84209D2306820F0070034
:1009B00038433060306800F00700B84251D12868F1
:1009C0003B4C810712D5400703D5606840F4E060D6
:1009D00060602878000703D5606840F4605060606C
:1009E0006068A96820F0F000084360602878C007BC
:1009F00028D06868012810D02168022810D0890703
:100A000000292EDA616821F0030101436160FFF7DC
:100A100067FD804641F288390DE021688903EFE7E0
:100A20008901EDE7FFF75CFDA0EB0801494502D91C
:100A30000320BDE8F0876068696800F00C00B0EB47
:100A4000810FEFD1306800F00700B8420BD9306851
:100A500020F0070038433060306800F00700B842EB
:100A600001D00120E5E72878400705D56068E968EE
:100A700020F4E060084360602878000706D56068CD
:100A8000296920F4605040EAC100606000F038F845
:100A90006168084AC1F30311515CC8400649086007
:100AA00006480068FFF72EFE0020C2E70020024043
:100AB00000100240141400080C0000200400002064
:100AC0000448054900684968044AC1F30221515CA1
:100AD000C84070470C000020001002402414000899
:100AE0000448054900684968044AC1F3C221515CC1
:100AF000C84070470C000020001002402414000879
:100B00000E4A51680E4801F00C03042B11D0082B3B
:100B10000FD10C48C1F38343C903C05C0AD55168A7
:100B2000084AC1F34041921E515C054A5043B0FB54
:100B3000F1F070470449484370470000001002403C
:100B400000127A00F213000800093D002DE9F84F69
:100B5000040070D02078C04DC00749D06868C0F349
:100B60008100012807D06868C0F38100022809D1FC
:100B70006868C00306D52868800339D560680028F6
:100B8000E7D035E06068B0F5803F0BD010B1B0F52C
:100B9000A02F11D0286820F480302860286820F425
:100BA000802002E0286840F480302860606890B1BE
:100BB000FFF796FC06460AE0286840F4802028608B
:100BC000F0E700BFFFF78CFC801B642873D828680F
:100BD0008003F7D50CE0FFF783FC064605E000BF75
:100BE000FFF77EFC801B6428F0D828688003F7D4C8
:100BF00020789A4E80074FF001094FF0000839D550
:100C0000686810F00C0F07D06868C0F381000228F4
:100C100009D16868C00306D42868800714D5206904
:100C2000012808D110E02069B0B1C6F80090FFF7A4
:100C300057FC074605E00AE1FFF752FCC01B0228FB
:100C4000C4D828688007F7D52868616920F0F800C3
:100C500040EAC10028600DE0C6F80080FFF740FCC4
:100C6000074604E0FFF73CFCC01B022823D8286895
:100C70008007F7D4207800072CD57948A169D9B12D
:100C8000C0F80090FFF72CFC074604E0FFF728FCB3
:100C9000C01B02280FD8686A8007F7D571484FF447
:100CA000FA510068B0FBF1F0009000BF0098411EBF
:100CB0000091FAD20EE080E0C0F80080FFF710FC4F
:100CC000074604E0FFF70CFCC01B022875D8686AD1
:100CD0008007F7D42078400760D5E8690027C00076
:100CE00008D4E86940F08050E861E869012700F025
:100CF000805000905C480168C90513D401688346A0
:100D000041F480710160FFF7EBFB824606E000BF13
:100D1000FFF7E6FBA0EB0A0064284ED8DBF80000E2
:100D2000C005F5D5E06801280AD008B1052813D020
:100D3000286A20F001002862286A20F0040002E0FE
:100D4000286A40F001002862E06841F2883B98B1CF
:100D5000FFF7C6FB82460BE0286A40F004002862D9
:100D6000EEE700BFFFF7BCFBA0EB0A0159455AD8DC
:100D7000286A8007F6D50CE0FFF7B2FB824605E053
:100D8000FFF7AEFBA0EB0A0159454CD8286A800753
:100D9000F6D41FB1E86920F08050E861E06988B3BB
:100DA0006968C1F38101022944D00228C6F8608035
:100DB00004D0FFF795FB044638E034E0FFF790FBE2
:100DC000074604E0FFF78CFBC01B02282BD82868DD
:100DD0008001F7D4206AB0F5803F05D16868A1682A
:100DE00020F4003008436860D4E9080108436968CA
:100DF00021F4741108436860C6F86090FFF770FB37
:100E0000044606E025E000BFFFF76AFB001B02284E
:100E100009D828688001F7D51BE000BFFFF760FB09
:100E2000001B022802D90320BDE8F88F2868800142
:100E3000F4D40EE00128F7D06868226A00F480310B
:100E4000914204D1616A00F47010884201D00120FF
:100E5000EAE70020E8E700000010024000004242FC
:100E6000800442420C0000200070004070B5040075
:100E700003D0607C002610B105E0012070BD26740F
:100E8000204600F03DF802206074204600F052F841
:100E9000042550BB204600F0B8F930BB20684168FB
:100EA00021F007014160A06820B11448016821F0D9
:100EB000010101601148001F0168A26821F46071FE
:100EC000114301606068411C04D10120FFF790FCD0
:100ED00058B1401E2268C0F303419160216880B27E
:100EE000C860204600F0ACF908B16574C5E7E67348
:100EF00001206073A0736074002070BD306C0040EE
:100F000008B50068084988420DD1FFF76BFC074817
:100F1000C16941F00061C161C069054900F000602C
:100F200000900120086008BD002800400010024029
:100F30003C04424270B504000AD02068416821F0A8
:100F400008014160FFF7CCFA05464FF47A7608E0D5
:100F5000012070BDFFF7C4FA401BB04201D9032045
:100F600070BD206840680007F4D5002070BD10B542
:100F7000401EB0F1807F01D3012010BD4FF0E0246E
:100F800060610F21601700F016FA0020A0610720B1
:100F90002061002010BD70B5040004D094F8410019
:100FA000002510B106E0012070BD84F840502046B5
:100FB00000F024F8242084F841002068C16821F45E
:100FC0000051C160204600F099F92068016921F4C0
:100FD000904101612068416921F02A014161206846
:100FE000C16841F40051C1606564202084F841006B
:100FF00084F842006563002070BD000030B585B004
:1010000000240094019402940394006814498842D7
:1010100024D11448816941F480418161816901F4DE
:1010200080410491816941F00401816180690E4D24
:1010300000F0040004904FF4007000900220019032
:101040000320039069462846FFF748F92815CDE9A3
:101050000004694628460294FFF740F905B030BD08
:10106000003801400010024000080140FEE7000087
:101070002DE9F04786B0002435480094019402948D
:101080000394816941F040018161816901F040016F
:101090000491816941F010018161816901F01001C1
:1010A0000491816941F004018161816901F00401C9
:1010B0000491816941F0080181618069DFF89490B1
:1010C00000F008000490012220214846FFF702FAB0
:1010D000DFF884A0012220215046FFF7FBF94FF4EE
:1010E0008078002241465046FFF7F4F91C20CDE9F4
:1010F0000004694648460294FFF7F0F820261127BD
:10110000022569464846CDE90245CDE90067FFF76B
:10111000E5F8E802CDE90005032003906946504652
:10112000FFF7DCF869465046CDE90245CDE9006796
:10113000FFF7D4F801AA0120CDF8008082E8310041
:1011400069465046FFF7CAF806B0BDE8F0870000D0
:101150000010024000180140000C01400D4810B57D
:101160000B4901600C49416000214FF480428160CD
:10117000C0E9031241618161C1610162FFF7B6F903
:10118000002803D0BDE81040FFF7A5B810BD00004F
:101190000054004010000020801A06000A4810B5D4
:1011A000084901604FF0FF3141604FF48071816068
:1011B000FFF75CFE002803D0BDE81040FFF78BB8B6
:1011C00010BD000000280040640000200C4810B54D
:1011D0000A4901604FF4E1314160002181600C2235
:1011E000C160C0E904128161C161FFF7D4FE00282B
:1011F00003D0BDE81040FFF76EB810BD00380140C5
:1012000078000020FEE7FEE7704770B50446FFF760
:1012100067F905464FF47A7606E0FFF761F9401B5F
:10122000B04201D9032070BD206840688006F4D523
:101230002068416841F010014160002070BD00004D
:1012400070B504460068416821F010014160FFF765
:1012500047F905464FF47A7607E000BFFFF740F9FB
:10126000401BB04201D9032070BD20684068800651
:10127000F4D5002070BD7047FFF72ABA70B596B05C
:1012800028216846FEF7C2FF14210AA8FEF7BEFF18
:1012900018210FA8FEF7BAFF0920012400904FF48F
:1012A0008030002504940694CDE901050226CDE99D
:1012B0000760000109906846FFF748FC08B172B664
:1012C000FEE70F20CDE90A064FF48060CDE90C500F
:1012D00001210AA80E95FFF75DFB08B172B6FEE783
:1012E0004FF40070CDE90F400FA8FFF7DDFA00289A
:1012F00001D072B6FEE716B070BD704770B50446F7
:1013000000680169E26821F44051114301612169DB
:10131000A0680843616908432168CA6841F20C6308
:101320009A430243CA6020684169A26921F440716E
:10133000114341611E492068884202D1FFF7D0FB6A
:1013400001E0FFF7BDFB00EBC00101EB001260689C
:1013500064218000B2FBF0F3B3FBF1F36FF01806E9
:101360007343B2FBF0F5B2FBF0F605EB83053223D5
:1013700003EB0515B5FBF1F5B6FBF1F605F0F0054D
:1013800005EB0615B2FBF0F6B2FBF0F0B0FBF1F0A6
:101390006FF01802504306EB800003EB0010B0FB27
:1013A000F1F0216800F00F002844886070BD000053
:1013B00000380140FEE70907090E002804DB00F1B0
:1013C000E02080F80014704700F00F0000F1E020EA
:1013D00080F8141D7047FFF783F9FFF74FFFFFF701
:1013E00047FEFFF7DBFEFFF7F1FEFFF7B7FEFEE774
:1013F000010202030405060708090A0B0C0D0E0F73
:101400001010010202030405060708090A0B0C0D5F
:101410000E0F101000000000000000000102030485
:101420000607080900000000010203044C1400082C
:1014300000000020100000006C0100085C1400088F
:1014400010000020100700008801000801000000C3
:0C145000100000000000000000127A00F4
:0400000508000131BD
:00000001FF
