:020000040800F2
:1000000088060020CD010008BB0E00089B0D0008EB
:10001000B90E0008D3020008B10F0008000000006C
:100020000000000000000000000000002B0F00088E
:10003000D502000800000000BD0E00082D0F0008CA
:10004000E7010008E7010008E7010008E7010008F0
:10005000E7010008E7010008E7010008E7010008E0
:10006000E7010008E7010008E7010008E7010008D0
:10007000E7010008E7010008E7010008E7010008C0
:10008000E7010008E7010008E7010008E7010008B0
:10009000E7010008E7010008E7010008E7010008A0
:1000A000E7010008E7010008E7010008E701000890
:1000B000E7010008E7010008E7010008E701000880
:1000C000E7010008E7010008E7010008E701000870
:1000D000E7010008E7010008E7010008E701000860
:1000E000E7010008E7010008E7010008E701000850
:1000F000E7010008E7010008E7010008E701000840
:10010000E7010008E7010008E7010008E70100082F
:10011000E7010008E7010008E7010008E70100081F
:10012000E7010008E7010008E7010008E70100080F
:1001300000F002F800F03AF80AA090E8000C8244BF
:100140008344AAF10107DA4501D100F02FF8AFF29C
:10015000090EBAE80F0013F0010F18BFFB1A43F0A5
:1001600001031847E40E0000040F0000103A24BFFA
:1001700078C878C1FAD8520724BF30C830C144BF0C
:1001800004680C607047000000230024002500264E
:10019000103A28BF78C1FBD8520728BF30C148BFEA
:1001A0000B6070471FB51FBD10B510BD00F058F8AB
:1001B0001146FFF7F7FF00F00DFF00F076F803B4EB
:1001C000FFF7F2FF03BC00F07DF80000094880470C
:1001D00009480047FEE7FEE7FEE7FEE7FEE7FEE729
:1001E000FEE7FEE7FEE7FEE704480549054A064B41
:1001F00070470000AF0F00083101000888000020A0
:100200008806002088020020880200204FF00002AB
:1002100000B5134694469646203922BFA0E80C50FC
:10022000A0E80C50B1F12001BFF4F7AF090728BFD7
:10023000A0E80C5048BF0CC05DF804EB890028BF53
:1002400040F8042B08BF704748BF20F8022B11F07C
:10025000804F18BF00F8012B7047704770477047F8
:10026000754600F02BF8AE4605006946534620F06F
:100270000700854618B020B5FFF7B6FFBDE820405F
:100280004FF000064FF000074FF000084FF0000B52
:1002900021F00701AC46ACE8C009ACE8C009ACE805
:1002A000C009ACE8C0098D46704710B50446AFF3ED
:1002B00000802046BDE81040FFF781BF004870472E
:1002C0002400002001491820ABBEFEE726000200F2
:1002D0007047FEE7704772B6FEE700002DE9F84F61
:1002E000DFF8C8910024A9F1040B23460F2709F178
:1002F000040AABF1040ED1E00125A54006EA05028F
:10030000AA4276D1DFF8A8C14E68A6EB0C08664574
:100310002BD00DDC032E34D005DC36B3012E19D0E2
:10032000022E2FD11BE0112E16D0122E2AD119E049
:10033000B8F5881F19D006DCB8F5803F15D0B8F5A0
:10034000801F1FD111E0B8F5001F0ED0B8F5041FB3
:1003500018D10AE0CB6815E0CB681B1D12E0CB6812
:1003600008330FE0CB680C330CE08B682BB1012B0A
:100370004FF0080303D0456104E0042302E0056167
:1003800000E00023FF2A01D8064601E000F1040640
:100390004FEA840501D9A5F12005D6F8008007FAB7
:1003A00005FC28EA0C0803FA05F548EA0508C6F832
:1003B00000804D68ED0070D53E4DAE6946F00106F7
:1003C000AE61AD6924F0030605F0010500953A4DD4
:1003D00006EB050CDCF80850A607360F07FA06F8FE
:1003E00025EA0805DFF8D480404503D14FF0000826
:1003F00025E052E0DFF8C880404502D14FF0010807
:100400001DE0DFF8C080404502D14FF0020816E041
:10041000DFF8B480404502D14FF003080FE0DFF869
:10042000AC80404502D14FF0040808E0DFF8A0801E
:10043000404502D14FF0050801E04FF0060808FAE8
:1004400006F848EA0508CCF808804D68D9F800603D
:10045000ED024D4601D5164300E096432E604D68EF
:10046000DAF80060AD02554601D5164300E0964328
:100470002E604D68DBF80060AD035D4601D5164384
:1004800000E096432E604D68DEF80060ED0375468F
:1004900001D5164300E096432E60641C0A68164698
:1004A000E2407FF429AFBDE8F88F00000804014066
:1004B000000011100010024000000140000801403F
:1004C000000C0140001001400014014000180140E0
:1004D000001C01408068084000D0012070470AB12C
:1004E000016170470904FBE701488068704700001C
:1004F0000000002002488168027811448160704742
:1005000000000020074810B5016841F010010160AB
:10051000032000F067F80F2000F006F800F024F840
:10052000002010BD0020024070B50D4D04464FF470
:100530007A712878B1FBF0F00A490968B1FBF0F054
:1005400000F017FC48B9102C07D200222146501E9B
:1005500000F028F800206C6070BD012070BD000024
:10056000000000200C0000200C4808B5816941F013
:1005700001018161816901F001010091C16941F0CE
:100580008051C161C06900F080500090044841680A
:1005900021F0E06141F00071416008BD00100240AF
:1005A00000000140F0B40E4B1B680C46C3F302235D
:1005B000C3F10705042D00D90425191D072901D20F
:1005C000002300E0DB1E012606FA05F1491E21404A
:1005D00099409E40761E16403143F0BC00F0E9BCC5
:1005E0000CED00E0064900F0070208684FF6FF0333
:1005F000184040EA0220034A104308607047000098
:100600000CED00E00000FA05014901200862704786
:1006100000000E4210B501460020284C04292FD0BE
:100620000BDC012930D0022929D100F05BF9616887
:10063000C1F38131491C49001FE0082920D010294D
:100640001DD161682268D20119D51D48C1F38342CA
:10065000C903805C0AD56168194AC1F34041921E02
:10066000515C184AB2FBF1F1484301E01649484396
:100670006168490203D440000321B0FBF1F010BDD2
:10068000BDE8104000F03EB9226AC2F30121012901
:1006900003D1920701D5C80310BD022905D1626AB2
:1006A000920702D549F6404010BD0329FCD12168CC
:1006B0008903F9D54FF2244010BD0000001002401C
:1006C0002010000800127A0000093D002DE9F843CF
:1006D00005460078354CC00754D0E0690026C000BC
:1006E00008D4E06940F08050E061E069012600F044
:1006F000805000902E480168C90512D401688046D8
:1007000041F480710160FFF7EFFE074605E000BF8E
:10071000FFF7EAFEC01B642823D8D8F80000C00504
:10072000F6D5206A10F4407021D0A98801F44071F8
:1007300081421CD0206A1F49012220F440700A60C7
:1007400000220A602062C00711D0FFF7CDFE0746E5
:1007500041F2883808E000BFFFF7C6FEC11B4145E3
:1007600002D90320BDE8F883206A8007F4D5206A07
:10077000696820F44070084320621EB1E06920F0EF
:100780008050E0612878800705D56068A96820F46A
:100790004040084360602878C00605D560686969F4
:1007A00020F48000084360600020DBE70010024076
:1007B00000700040400442422DE9F0470F4605001A
:1007C00061D0434E306800F00700B84209D230686B
:1007D00020F0070038433060306800F00700B8426E
:1007E00051D128683B4C810712D5400703D560687A
:1007F00040F4E06060602878000703D5606840F44A
:10080000605060606068A96820F0F0000843606094
:100810002878C00728D06868012810D021680228ED
:1008200010D0890700292EDA616821F00301014305
:100830006160FFF759FE804641F288390DE021687A
:100840008903EFE78901EDE7FFF74EFEA0EB080112
:10085000494502D90320BDE8F0876068696800F067
:100860000C00B0EB810FEFD1306800F00700B84208
:100870000BD9306820F0070038433060306800F052
:100880000700B84201D00120E5E72878400705D5E8
:100890006068E96820F4E060084360602878000739
:1008A00006D56068296920F4605040EAC1006060A4
:1008B00000F028F86168084AC1F30311515CC84090
:1008C0000649086006480068FFF72EFE0020C2E7D0
:1008D0000020024000100240301000080C000020F0
:1008E000040000200448054900684968044AC1F32F
:1008F000C221515CC84070470C000020001002402B
:10090000401000080E4A51680E4801F00C03042BF9
:1009100011D0082B0FD10C48C1F38343C903C05C2D
:100920000AD55168084AC1F34041921E515C054AFC
:100930005043B0FBF1F07047044948437047000052
:100940000010024000127A000E10000800093D005D
:100950002DE9F84F040070D02078C04DC00749D071
:100960006868C0F38100012807D06868C0F381007F
:10097000022809D16868C00306D52868800339D5E4
:1009800060680028E7D035E06068B0F5803F0BD0A4
:1009900010B1B0F5A02F11D0286820F48030286065
:1009A000286820F4802002E0286840F48030286025
:1009B000606890B1FFF798FD06460AE0286840F4A9
:1009C00080202860F0E700BFFFF78EFD801B6428C1
:1009D00073D828688003F7D50CE0FFF785FD06463D
:1009E00005E000BFFFF780FD801B6428F0D8286871
:1009F0008003F7D420789A4E80074FF001094FF01A
:100A0000000839D5686810F00C0F07D06868C0F38B
:100A10008100022809D16868C00306D428688007CD
:100A200014D52069012808D110E02069B0B1C6F8BA
:100A30000090FFF759FD074605E00AE1FFF754FD76
:100A4000C01B0228C4D828688007F7D528686169C8
:100A500020F0F80040EAC10028600DE0C6F80080F0
:100A6000FFF742FD074604E0FFF73EFDC01B0228EA
:100A700023D828688007F7D4207800072CD5794838
:100A8000A169D9B1C0F80090FFF72EFD074604E038
:100A9000FFF72AFDC01B02280FD8686A8007F7D528
:100AA00071484FF4FA510068B0FBF1F0009000BFBC
:100AB0000098411E0091FAD20EE080E0C0F800805C
:100AC000FFF712FD074604E0FFF70EFDC01B0228EA
:100AD00075D8686A8007F7D42078400760D5E86940
:100AE0000027C00008D4E86940F08050E861E86958
:100AF000012700F0805000905C480168C90513D4BC
:100B00000168834641F480710160FFF7EDFC824685
:100B100006E000BFFFF7E8FCA0EB0A0064284ED80F
:100B2000DBF80000C005F5D5E06801280AD008B15F
:100B3000052813D0286A20F001002862286A20F0D6
:100B4000040002E0286A40F001002862E06841F2F7
:100B5000883B98B1FFF7C8FC82460BE0286A40F05A
:100B600004002862EEE700BFFFF7BEFCA0EB0A011D
:100B700059455AD8286A8007F6D50CE0FFF7B4FC2F
:100B8000824605E0FFF7B0FCA0EB0A0159454CD8BE
:100B9000286A8007F6D41FB1E86920F08050E86128
:100BA000E06988B36968C1F38101022944D0022851
:100BB000C6F8608004D0FFF797FC044638E034E0C4
:100BC000FFF792FC074604E0FFF78EFCC01B0228EB
:100BD0002BD828688001F7D4206AB0F5803F05D172
:100BE0006868A16820F4003008436860D4E908010F
:100BF0000843696821F4741108436860C6F860907E
:100C0000FFF772FC044606E025E000BFFFF76CFC2E
:100C1000001B022809D828688001F7D51BE000BF17
:100C2000FFF762FC001B022802D90320BDE8F88F01
:100C300028688001F4D40EE00128F7D06868226AA1
:100C400000F48031914204D1616A00F4701088424E
:100C500001D00120EAE70020E8E700000010024090
:100C600000004242800442420C000020007000401C
:100C700070B5040003D0607C002610B105E00120AF
:100C800070BD2674204600F03DF8022060742046B6
:100C900000F052F8042550BB204600F010F930BB9C
:100CA0002068416821F007014160A06820B1144824
:100CB000016821F0010101601148001F0168A2686C
:100CC00021F46071114301606068411C04D101206E
:100CD000FFF7A0FC58B1401E2268C0F303419160A9
:100CE000216880B2C860204600F004F908B165743C
:100CF000C5E7E67301206073A0736074002070BDC7
:100D0000306C004008B50068084988420DD1FFF7F3
:100D10007BFC0748C16941F00061C161C0690549B8
:100D200000F0006000900120086008BD002800402D
:100D3000001002403C04424270B504000AD0206812
:100D4000416821F008014160FFF7CEFB05464FF4F2
:100D50007A7608E0012070BDFFF7C6FB401BB04269
:100D600001D9032070BD206840680007F4D5002039
:100D700070BD10B5401EB0F1807F01D3012010BDC1
:100D80004FF0E02460610F21601700F012F900209D
:100D9000A06107202061002010BDFEE72DE9F0478B
:100DA00086B000243548009401940294039481692C
:100DB00041F040018161816901F040010491816944
:100DC00041F010018161816901F010010491816994
:100DD00041F004018161816901F00401049181699C
:100DE00041F0080181618069DFF8949000F008000B
:100DF0000490012220214846FFF771FBDFF884A010
:100E0000012220215046FFF76AFB4FF48078002230
:100E100041465046FFF763FB1C20CDE900046946BC
:100E200048460294FFF75AFA202611270225694600
:100E30004846CDE90245CDE90067FFF74FFAE802E1
:100E4000CDE900050320039069465046FFF746FAB6
:100E500069465046CDE90245CDE90067FFF73EFA05
:100E600001AA0120CDF8008082E831006946504691
:100E7000FFF734FA06B0BDE8F0870000001002402A
:100E800000180140000C01400A4810B508490160F3
:100E90004FF0FF3141604FF480718160FFF7E8FE51
:100EA000002803D0BDE81040FFF715BA10BD0000C0
:100EB0000028004010000020FEE7FEE7704770B5F4
:100EC0000446FFF711FB05464FF47A7606E0FFF77C
:100ED0000BFB401BB04201D9032070BD2068406865
:100EE0008006F4D52068416841F01001416000207F
:100EF00070BD000070B504460068416821F0100123
:100F00004160FFF7F1FA05464FF47A7607E000BF3B
:100F1000FFF7EAFA401BB04201D9032070BD2068F8
:100F200040688006F4D5002070BD7047FFF7E2BA34
:100F300070B596B028216846FFF768F914210AA811
:100F4000FFF764F918210FA8FFF760F909200124C1
:100F500000904FF48030002504940694CDE90105FB
:100F60000226CDE90760000109906846FFF7F0FC12
:100F700008B172B6FEE70F20CDE90A064FF4806093
:100F8000CDE90C5001210AA80E95FFF715FC08B118
:100F900072B6FEE74FF40070CDE90F400FA8FFF7DF
:100FA00095FB002801D072B6FEE716B070BD704701
:100FB000FEE70907090E002804DB00F1E02080F8B5
:100FC0000014704700F00F0000F1E02080F8141DBD
:100FD00070470000FFF796FAFFF7AAFFFFF7DEFE63
:100FE000FFF752FF074C084D10212046FFF772FA19
:100FF00028B1012220212846FFF771FAF4E70022E8
:10100000F8E7000000180140000C01400102020353
:101010000405060708090A0B0C0D0E0F101001023B
:1010200002030405060708090A0B0C0D0E0F101029
:101030000000000000000000010203040607080988
:1010400000000000010203046810000800000020F6
:10105000100000006C01000878100008100000204B
:101060007806000088010008010000001000000060
:081070000000000000127A00EC
:0400000508000131BD
:00000001FF
