:020000040800F2
:10000000A80B0020CD0100082F1F00089D1A000832
:100010002D1F00082B030008E52800080000000041
:100020000000000000000000000000007127000830
:100030002D03000800000000311F0008732700088E
:10004000E7010008E7010008E7010008E7010008F0
:10005000E7010008E7010008E7010008E7010008E0
:10006000E7010008E7010008E7010008E7010008D0
:10007000E7010008E7010008E7010008E7010008C0
:10008000E7010008E7010008E7010008E7010008B0
:10009000E7010008E7010008E7010008E7010008A0
:1000A000E7010008E7010008E7010008E701000890
:1000B000E7010008E7010008E7010008E701000880
:1000C000E7010008E7010008E7010008E701000870
:1000D000E7010008E7010008E7010008E701000860
:1000E000E7010008E7010008E7010008E701000850
:1000F000E7010008E7010008E7010008E701000840
:10010000E7010008E7010008E7010008E70100082F
:10011000E7010008E7010008E7010008E70100081F
:10012000E7010008E7010008E7010008E70100080F
:1001300000F002F800F03AF80AA090E8000C8244BF
:100140008344AAF10107DA4501D100F02FF8AFF29C
:10015000090EBAE80F0013F0010F18BFFB1A43F0A5
:10016000010318471428000034280000103A24BF67
:1001700078C878C1FAD8520724BF30C830C144BF0C
:1001800004680C607047000000230024002500264E
:10019000103A28BF78C1FBD8520728BF30C148BFEA
:1001A0000B6070471FB51FBD10B510BD00F058F8AB
:1001B0001146FFF7F7FF02F0A6FB00F076F803B454
:1001C000FFF7F2FF03BC00F07DF80000094880470C
:1001D00009480047FEE7FEE7FEE7FEE7FEE7FEE729
:1001E000FEE7FEE7FEE7FEE704480549054A064B41
:1001F00070470000FF27000831010008A805002013
:10020000A80B0020A8070020A80700204FF000023C
:1002100000B5134694469646203922BFA0E80C50FC
:10022000A0E80C50B1F12001BFF4F7AF090728BFD7
:10023000A0E80C5048BF0CC05DF804EB890028BF53
:1002400040F8042B08BF704748BF20F8022B11F07C
:10025000804F18BF00F8012B7047704770477047F8
:10026000754600F02BF8AE4605006946534620F06F
:100270000700854618B020B5FFF7B6FFBDE820405F
:100280004FF000064FF000074FF000084FF0000B52
:1002900021F00701AC46ACE8C009ACE8C009ACE805
:1002A000C009ACE8C0098D46704710B50446AFF3ED
:1002B00000802046BDE81040FFF781BF004870472E
:1002C0004805002001491820ABBEFEE726000200C9
:1002D0007047000070B5044600688168C943C907CB
:1002E00017D1816821F00101816000F0D9FA05463B
:1002F0000AE000BF00F0D4FA401B022804D92068AD
:100300008068C043C00706D020688068C043C0072B
:10031000F0D0002070BDA06A40F01000A062E06A3A
:1003200040F00100E062012070BDFEE7704772B648
:10033000FEE70000F8B50024009490F8242025463C
:10034000012A12D0012280F824204A681F23072A9C
:100350000DD20668776B521E02EB820293409F43D8
:100360000B6893401F43776319E00220F8BD0668CD
:100370000D2A0AD2376BD21F02EB820293409F43B1
:100380000B6893401F43376309E0F76A0D3A02EBAD
:10039000820293409F430B6893401F43F7620A68B1
:1003A000072306680A2A0AD3F7680A3A02EB4202D0
:1003B00093409F438B6893401F43F76008E0376981
:1003C00002EB420293409F438B6893401F43376187
:1003D0000A68102A01D0112A20D1124B02689A42D1
:1003E00017D193681B0219D4936843F400039360F8
:1003F0000968102912D10C490C4A0968B1FBF2F1C5
:1004000001EB8101490000E0491E00910029FBD168
:1004100004E0816A41F020018162012480F82450C7
:100420002046F8BD002401400C00002040420F008F
:100430002DE9F04104004FF000057FD0A06A0026AE
:1004400028B9E66284F82460204600F081F820464E
:10045000FFF740FFA16AC90600D420B1A06A40F0AE
:100460001000A0626AE0A16A21F4885141F0020103
:10047000A162334923688B42E16904D1B1F5402F71
:1004800001D14FF40021277B4FF4807C41EA4702E1
:1004900061680A43A168614508D0012906D000219E
:1004A00094F814E0BEF1010F02D00AE06146F7E7CC
:1004B000C7B1A76A47F02007A762E76A47F00107BC
:1004C000E7625F6827F469470F435F6023689968B4
:1004D0001C4F394011439960A16861450BD0012937
:1004E00009D00CE0DFF860E0A7690EEB47370F4357
:1004F00047F40061E5E7218A0D05A5F5801521681F
:10050000CB6A23F470032B43CB62216889680F4BBD
:100510001940914208D1E662A16A21F0020141F03E
:100520000101A162BDE8F081A06A20F0020040F064
:100530001000A062E06A40F00100E0620120F1E7F3
:10054000003C0140FDF7E1FF00E0FFFFFE0E1FFF52
:1005500000B585B0002100910191029103910068DE
:100560000E49884218D10E48816941F400718161B9
:10057000816901F400710491816941F00401816194
:100580008069694600F00400049002200090032076
:100590000190044800F082F805B000BD002401403D
:1005A000001002400008014070B500B3F9B1437972
:1005B000012B1ED0012646710223037105682C68A9
:1005C00002F0100340F6FE729A409443D1E90021F4
:1005D0000A439A4022432A6001680A68C0249C406A
:1005E000A2430A60067100214171084670BD0120D6
:1005F00070BD022070BD70B5040003D020790025C5
:1006000010B105E0012070BD6571204600F008F8CA
:1006100002202071256101202071002070BD0000A2
:1006200000B585B00021009101910291039100680D
:100630000E49884218D10E48C16941F00051C1618C
:10064000C16901F000510491816941F004018161A7
:100650008069694600F00400049010200090032097
:100660000190044800F01AF805B000BD0074004085
:10067000001002400008014070B5044600F010F977
:100680000546601C02D004480078044400F008F9D4
:10069000401BA042FAD370BD000000202DE9F84FA6
:1006A000DFF8C8910024A9F1040B23460F2709F1B4
:1006B000040AABF1040ED1E00125A54006EA0502CB
:1006C000AA4276D1DFF8A8C14E68A6EB0C086645B1
:1006D0002BD00DDC032E34D005DC36B3012E19D01F
:1006E000022E2FD11BE0112E16D0122E2AD119E086
:1006F000B8F5881F19D006DCB8F5803F15D0B8F5DD
:10070000801F1FD111E0B8F5001F0ED0B8F5041FEF
:1007100018D10AE0CB6815E0CB681B1D12E0CB684E
:1007200008330FE0CB680C330CE08B682BB1012B46
:100730004FF0080303D0456104E0042302E00561A3
:1007400000E00023FF2A01D8064601E000F104067C
:100750004FEA840501D9A5F12005D6F8008007FAF3
:1007600005FC28EA0C0803FA05F548EA0508C6F86E
:1007700000804D68ED0070D53E4DAE6946F0010633
:10078000AE61AD6924F0030605F0010500953A4D10
:1007900006EB050CDCF80850A607360F07FA06F83A
:1007A00025EA0805DFF8D480404503D14FF0000862
:1007B00025E052E0DFF8C880404502D14FF0010843
:1007C0001DE0DFF8C080404502D14FF0020816E07E
:1007D000DFF8B480404502D14FF003080FE0DFF8A6
:1007E000AC80404502D14FF0040808E0DFF8A0805B
:1007F000404502D14FF0050801E04FF0060808FA25
:1008000006F848EA0508CCF808804D68D9F8006079
:10081000ED024D4601D5164300E096432E604D682B
:10082000DAF80060AD02554601D5164300E0964364
:100830002E604D68DBF80060AD035D4601D51643C0
:1008400000E096432E604D68DEF80060ED037546CB
:1008500001D5164300E096432E60641C0A681646D4
:10086000E2407FF429AFBDE8F88F000008040140A2
:10087000000011100010024000000140000801407B
:10088000000C01400010014000140140001801401C
:10089000001C01400AB1016170470904FBE7000038
:1008A00001488068704700000000002070B5040017
:1008B00025D094F83D00002520B984F83C5020460E
:1008C00000F0B8F8242084F83D002068016821F089
:1008D000010101602068016841F400410160206865
:1008E000016821F40041016000F03AFB4D4A616863
:1008F000914201D84C4900E04C49884201D2012084
:1009000070BD4B492368B0FBF1F15E6826F03F06ED
:100910000E435E606368934206D94FF49673594361
:100920004FF47A73B1FBF3F12368491C1E6A26F079
:100930003F06314319626168914210D84900401E58
:10094000B0FBF1F2521CC2F30B02042A01D20420C4
:1009500022E0B0FBF1F0401CC0F30B001CE0A268E9
:10096000F2B301EBC10303EB0116431EB3FBF6F335
:100970005B1C43F480431B0549D092B301EBC102D9
:1009800002EB0111401EB0FBF1F0401CC0F30B0064
:1009900040F4804040F400402168CA694CF6FF737F
:1009A0009A431043C861D4E90710014320680268E4
:1009B00022F0C00211430160D4E903010143206821
:1009C000826848F2FF339A4311438160D4E90501FC
:1009D00008432168CA6822F0FF021043C86001E0A2
:1009E0000EE016E02068016841F001010160256415
:1009F000202084F83D00256384F83E50002070BD1F
:100A000001EB4106431EB3FBF6F35B1CB3E7012089
:100A1000C2E701EB4101401EB0FBF1F0401CC0F306
:100A20000B00B7E7A086010080841E0000093D008E
:100A300040420F0010B586B0002100910191029153
:100A4000039100680F4988421AD10F4CA06940F009
:100A50000800A061A069694600F008000490C02069
:100A6000009012200190032003900848FFF716FE23
:100A7000E06940F40010E061E06900F400100490C7
:100A800006B010BD0054004000100240000C0140B0
:100A9000024881680278114481607047000000209C
:100AA000074810B5016841F010010160032000F013
:100AB00065F80F2000F006F800F024F8002010BDC3
:100AC0000020024070B50D4D04464FF47A7128782D
:100AD000B1FBF0F00A490968B1FBF0F000F01EFF2D
:100AE00048B9102C07D200222146501E00F026F8EB
:100AF00000206C6070BD012070BD0000000000206F
:100B00000C0000200B4808B5816941F001018161AA
:100B1000816901F001010091C16941F08051C16119
:100B2000C06900F0805000900348416821F0E06106
:100B3000416008BD0010024000000140F0B40E4BBF
:100B40001B680C46C3F30223C3F10705042D00D92B
:100B50000425191D072901D2002300E0DB1E012610
:100B600006FA05F1491E214099409E40761E164026
:100B70003143F0BC01F0B7BE0CED00E0064900F0D7
:100B8000070208684FF6FF03184040EA0220034AB4
:100B900010430860704700000CED00E00000FA050B
:100BA0002DE9F041040004D094F89102002518B119
:100BB00007E00120BDE8F08184F89052204600F063
:100BC0004DF8032084F891026571206801F081FEE0
:100BD00094E80F0001F070FE022698BB0021206807
:100BE00001F07EFE70BB002001270BE000EB8001CE
:100BF00004EBC1014F740874CD740D624D62401C4A
:100C0000C0B28D6221798142F0D8002012E000BF8D
:100C100000EB800104EBC10181F8515181F85001D2
:100C200081F85351C1F86051C1F86451401CC0B201
:100C3000C1F8685121798142EAD894E80F0001F0A7
:100C40003FFE10B184F89162B3E7657384F8917246
:100C5000206801F033FE0020ACE7000008B5006812
:100C60000649884208D10648C16941F40001C161C2
:100C7000C06900F40000009008BD0000005C004066
:100C800000100240014901200862704700000E4236
:100C900010B501460020284C04292FD00BDC012977
:100CA00030D0022929D100F06BF96168C1F381319C
:100CB000491C49001FE0082920D010291DD1616876
:100CC0002268D20119D51D48C1F38342C903805C53
:100CD0000AD56168194AC1F34041921E515C184A15
:100CE000B2FBF1F1484301E016494843616849020B
:100CF00003D440000321B0FBF1F010BDBDE810406B
:100D000000F04EB9226AC2F30121012903D19207F2
:100D100001D5C80310BD022905D1626A920702D528
:100D200049F6404010BD0329FCD121688903F9D55B
:100D30004FF2244010BD000000100240502900086E
:100D400000127A0000093D002DE9F84305460078BD
:100D5000354CC00754D0E0690026C00008D4E069D3
:100D600040F08050E061E069012600F08050009082
:100D70002E480168C90512D40168804641F480718B
:100D80000160FFF78DFD074605E000BFFFF788FD16
:100D9000C01B642823D8D8F80000C005F6D5206A07
:100DA00010F4407021D0A98801F4407181421CD018
:100DB000206A1F49012220F440700A6000220A6064
:100DC0002062C00711D0FFF76BFD074641F288385B
:100DD00008E000BFFFF764FDC11B414502D90320B5
:100DE000BDE8F883206A8007F4D5206A696820F49A
:100DF0004070084320621EB1E06920F08050E0613D
:100E00002878800705D56068A96820F44040084329
:100E100060602878C00605D56068696920F48000A4
:100E2000084360600020DBE70010024000700040D3
:100E3000400442422DE9F0470F46050061D0434E81
:100E4000306800F00700B84209D2306820F007008F
:100E500038433060306800F00700B84251D128684C
:100E60003B4C810712D5400703D5606840F4E06031
:100E700060602878000703D5606840F460506060C7
:100E80006068A96820F0F000084360602878C00717
:100E900028D06868012810D02168022810D089075E
:100EA00000292EDA616821F0030101436160FFF738
:100EB000F7FC804641F288390DE021688903EFE7AD
:100EC0008901EDE7FFF7ECFCA0EB0801494502D9E9
:100ED0000320BDE8F0876068696800F00C00B0EBA3
:100EE000810FEFD1306800F00700B8420BD93068AD
:100EF00020F0070038433060306800F00700B84247
:100F000001D00120E5E72878400705D56068E96849
:100F100020F4E060084360602878000706D5606828
:100F2000296920F4605040EAC100606000F038F8A0
:100F30006168084AC1F30311515CC8400649086062
:100F400006480068FFF7BEFD0020C2E7002002400F
:100F500000100240602900080C000020040000205E
:100F60000448054900684968044AC1F30221515CFC
:100F7000C84070470C000020001002407029000893
:100F80000448054900684968044AC1F3C221515C1C
:100F9000C84070470C000020001002407029000873
:100FA0000E4A51680E4801F00C03042B11D0082B97
:100FB0000FD10C48C1F38343C903C05C0AD5516803
:100FC000084AC1F34041921E515C054A5043B0FBB0
:100FD000F1F0704704494843704700000010024098
:100FE00000127A003E29000800093D002DE9F84F63
:100FF000040070D02078C04DC00749D06868C0F3A5
:101000008100012807D06868C0F38100022809D157
:101010006868C00306D52868800339D56068002851
:10102000E7D035E06068B0F5803F0BD010B1B0F587
:10103000A02F11D0286820F480302860286820F480
:10104000802002E0286840F480302860606890B119
:10105000FFF726FC06460AE0286840F48020286056
:10106000F0E700BFFFF71CFC801B642873D82868DA
:101070008003F7D50CE0FFF713FC064605E000BF40
:10108000FFF70EFC801B6428F0D828688003F7D493
:1010900020789A4E80074FF001094FF0000839D5AB
:1010A000686810F00C0F07D06868C0F38100022850
:1010B00009D16868C00306D42868800714D5206960
:1010C000012808D110E02069B0B1C6F80090FFF700
:1010D000E7FB074605E00AE1FFF7E2FBC01B022839
:1010E000C4D828688007F7D52868616920F0F8001F
:1010F00040EAC10028600DE0C6F80080FFF7D0FB91
:10110000074604E0FFF7CCFBC01B022823D8286861
:101110008007F7D4207800072CD57948A169D9B188
:10112000C0F80090FFF7BCFB074604E0FFF7B8FBF0
:10113000C01B02280FD8686A8007F7D571484FF4A2
:10114000FA510068B0FBF1F0009000BF0098411E1A
:101150000091FAD20EE080E0C0F80080FFF7A0FB1B
:10116000074604E0FFF79CFBC01B022875D8686A9D
:101170008007F7D42078400760D5E8690027C000D1
:1011800008D4E86940F08050E861E869012700F080
:10119000805000905C480168C90513D401688346FB
:1011A00041F480710160FFF77BFB824606E000BFDF
:1011B000FFF776FBA0EB0A0064284ED8DBF80000AE
:1011C000C005F5D5E06801280AD008B1052813D07C
:1011D000286A20F001002862286A20F0040002E05A
:1011E000286A40F001002862E06841F2883B98B12B
:1011F000FFF756FB82460BE0286A40F004002862A5
:10120000EEE700BFFFF74CFBA0EB0A0159455AD8A7
:10121000286A8007F6D50CE0FFF742FB824605E01E
:10122000FFF73EFBA0EB0A0159454CD8286A80071E
:10123000F6D41FB1E86920F08050E861E06988B316
:101240006968C1F38101022944D00228C6F8608090
:1012500004D0FFF725FB044638E034E0FFF720FB1D
:10126000074604E0FFF71CFBC01B02282BD82868A8
:101270008001F7D4206AB0F5803F05D16868A16885
:1012800020F4003008436860D4E908010843696825
:1012900021F4741108436860C6F86090FFF700FB02
:1012A000044606E025E000BFFFF7FAFA001B02281B
:1012B00009D828688001F7D51BE000BFFFF7F0FAD6
:1012C000001B022802D90320BDE8F88F286880019E
:1012D000F4D40EE00128F7D06868226A00F4803167
:1012E000914204D1616A00F47010884201D001205B
:1012F000EAE70020E8E70000001002400000424258
:10130000800442420C0000200070004070B50400D0
:1013100003D0607C002610B105E0012070BD26746A
:10132000204600F03DF802206074204600F052F89C
:10133000042550BB204600F0FCFD30BB206841680E
:1013400021F007014160A06820B11448016821F034
:10135000010101601148001F0168A26821F4607159
:10136000114301606068411C04D10120FFF790FC2B
:1013700058B1401E2268C0F303419160216880B2D9
:10138000C860204600F0F0FD08B16574C5E7E6735B
:1013900001206073A0736074002070BD306C004049
:1013A00008B50068084988420DD1FFF76BFC074873
:1013B000C16941F00061C161C069054900F0006088
:1013C00000900120086008BD002800400010024085
:1013D0003C04424270B504000AD02068416821F004
:1013E00008014160FFF75CFA05464FF47A7608E0A1
:1013F000012070BDFFF754FA401BB04201D9032011
:1014000070BD206840680007F4D5002070BD000062
:101410002DE9FE430446002603200D4684F83400DF
:10142000606C03285ED0B5F5805F5BD04FF4006739
:1014300000204FF08068BD421FD18146009001908E
:101440000021206800F0C1FD800113D469462046C8
:1014500001F04CF807000DD10198400334D5B4F8E1
:1014600050000104206800F0DCFD070002D10221D9
:10147000206823E0A06B384328E01DB1A06B40F04A
:10148000006023E08146009001900021206800F078
:101490009CFD8001EED46946204601F027F8070044
:1014A000E8D10198C0030FD5B4F8500001042068BA
:1014B00000F0B7FD0700DDD10021206800F0FDFD40
:1014C0000700D7D14F46D5E74746D3E7A063A06BC7
:1014D000144F4FF0010848B12068876384F83480C6
:1014E00001260EE0A06B40F08050EFE7211DD4E90B
:1014F000050C0EC9CDE90050CDF808C0206800F0F9
:1015000067FD4FF40071206800F0BEFD28B121682E
:101510008F63A16B0143A163012684F834803046B8
:10152000BDE8FE83FF054000F0B5426E920F0A70E1
:10153000426EC2F383624A70426EC2F301628A70E5
:10154000426E120CCA70B0F86420120A0A7190F848
:1015500064204A71826E120DCA80826EC2F3034209
:101560000A72B0F86820C2F3C0324A72B0F868203C
:10157000C2F380328A72B0F86820C2F34032CA7275
:10158000B0F86820C2F300320A7300264E73426C32
:101590004FF40075012462B1012A3AD0026847492C
:1015A0009163816B41F08051816380F83440012068
:1015B000F0BDB0F86820C36E9205120D42EA937236
:1015C0000A61C26EC2F3C2620A75C26EC2F30262DF
:1015D0004A75C26EC2F342528A75C26EC2F382422B
:1015E000CA75C26EC2F3C2320A760A69521C4265DB
:1015F0000B7E03F007039B1C9A4042650B7A03F0B5
:101600000F0704FA07F383655B0A5A43C0E91725FD
:101610000EE090F86820C36E9206920A42EA1342E6
:101620000A610A69521C92024265C0E916520566B7
:1016300030F86C2FC2F3803201F8192F0288C2F300
:10164000C6124A70027802F07F028A704268D20F96
:10165000CA704268C2F341720A714268C2F3826280
:101660004A714268C2F383528A714268C2F340529F
:10167000CA710E724268C2F300424A728288C2F393
:10168000C0328A728288C2F38032CA728288C2F300
:1016900040320A738288C2F300324A738288C2F3EE
:1016A00081228A738288C2F30122CA730079C0F34F
:1016B000460008744C740020F0BD0000FF05400097
:1016C00070B504000ED094F83400002518B92577C1
:1016D000204600F04DF8032084F83400204600F046
:1016E0000BF808B1012070BDA5632563012084F8C3
:1016F0003400002070BD0000FEB5002504467620B1
:101700000095CDE901502B462A462946206800F075
:101710005FFC154E46F8A05F206800F06BFC0125C9
:1017200035600220FEF7A8FF204600F0C7FF28B171
:1017300084F83450A16B0143A16313E0204600F00C
:1017400045FF0028F4D14FF40071206800F09CFCA4
:10175000002808D0226805499163A16B0143A16369
:1017600084F834500120FEBD00003042FF054000E7
:1017700030B585B00021009101910291039100687C
:10178000184988422BD11848416941F48061416170
:10179000416901F480610491816941F01001816126
:1017A000816901F010010491816941F0200181619A
:1017B0008069022400F0200004904FF4F850CDE935
:1017C00000040325694603950848FEF767FF0420D7
:1017D000CDE90004694603950548FEF75FFF05B0B3
:1017E00030BD0000008001400010024000100140A8
:1017F0000014014070B5040009D0606A002540B1B2
:1018000025616561A56294F8510040B10CE00120AA
:1018100070BD6068B0F5827FF4D0E561F2E784F8CE
:101820005050204600F040F8022084F85100206813
:10183000016821F040010160A088218900F48270D4
:1018400001F404410843A18901F400610843217CAB
:1018500001F002010843217D01F001010843218BC1
:1018600001F400710843217F01F03801084394F826
:10187000201001F080010843218D01F4005108433C
:1018800021680860A069042101EA104021684860CD
:101890002068C16921F40061C1616565012084F897
:1018A0005100002070BD000030B585B000240094C8
:1018B00001940294039400681549884225D1154883
:1018C000C16941F48041C161C16901F48041049161
:1018D000816941F00801816180690F4D00F00800C5
:1018E00004904FF4304000900220019003200390B8
:1018F00069462846FEF7D2FE4FF48040CDE9000449
:10190000694628460294FEF7C9FE05B030BD0000C6
:101910000038004000100240000C014010B5401E8D
:10192000B0F1807F01D3012010BD4FF0E024606151
:101930000F21601700F0D7FF0020A0610720206171
:10194000002010BD70B5040004D094F841000025BB
:1019500010B106E0012070BD84F84050204600F030
:1019600023F8242084F841002068C16821F4005144
:10197000C160204600F044FF2068016921F49041D5
:1019800001612068416921F02A0141612068C16834
:1019900041F40051C1606564202084F8410084F85E
:1019A00042006563002070BDF0B585B0002400944E
:1019B0000194029403940368324F022032490322B7
:1019C000324D4602BB421AD18B6943F480438B618E
:1019D0008B6903F4804304938B6943F004038B61A8
:1019E0008969039201F0040104910102CDE900101C
:1019F00069462846FEF752FECDE900641CE0244FFC
:101A0000BB4220D1CB6943F40033CB61CB6903F4F3
:101A1000003304938B6943F004038B61896903925B
:101A200001F0040104910421CDE900106946284623
:101A3000FEF734FE082022E0694628460294FEF7AD
:101A40002DFE05B0F0BD134DAB42FAD1CB6943F486
:101A50008023CB61CB6903F4802304938B6943F02B
:101A600008038B6189690C4D01F00801CDE9032160
:101A7000CDE9006069462846FEF710FEE814CDE97E
:101A80000004D9E70038014000100240000801407E
:101A90000044004000480040000C0140FEE7000008
:101AA0003EB5002410480094019402940D498460CE
:101AB000016004730475012505614FF460214460E1
:101AC000C161FEF7B5FC08B1FEF731FC0095CDE928
:101AD000015469460448FEF72DFC002801D0FEF7AA
:101AE00026FC3EBD00240140100000201CB500244F
:101AF0000C4900940A48019408600846FEF77BFDF3
:101B000008B1FEF714FC00940022694605480194D0
:101B1000FEF74AFD002801D0FEF709FC1CBD0000BD
:101B200000740040400000202DE9F04F85B00024F3
:101B300082480094019402940394816941F0400129
:101B40008161816901F040010491816941F01001D6
:101B50008161816901F010010491816941F0800186
:101B60008161816901F080010491816941F0040182
:101B70008161816901F004010491816941F00801EA
:101B80008161816901F008010491816941F48071EA
:101B90008161816901F480710491816941F02001C2
:101BA00081618069DFF898B100F020000490002284
:101BB00060215846FEF76EFEDFF888A14FF43C68BE
:101BC000002241465046FEF765FE40F223190022EE
:101BD00049465D48FEF75EFE00224EF280115B48EA
:101BE000FEF758FE0022C8215948FEF753FE1C207C
:101BF000CDE90004694658460294FEF74FFD602087
:101C00000126CDE90006022569465846CDE9024580
:101C1000FEF744FD42F2FF00CDE9000469464D485D
:101C20000294FEF73BFD4FF23F00CDE9000503278C
:101C3000694603975046FEF731FDCDE900866946B7
:101C40005046CDE90245FEF729FD6802CDE90004C2
:101C5000694650460294FEF721FDE020CDE90005DB
:101C6000DFF8F480694603974046FEF717FDCDE99B
:101C7000009669463448CDE90245FEF70FFD4FF462
:101C80000170CDE9000469462F480294FEF706FD75
:101C900041F23F60CDE90005694603972B48FEF706
:101CA000FDFC4FF68370CDE9000569460397584661
:101CB000FEF7F4FC4FF63370CDE900056946039753
:101CC0002348FEF7EBFC4FF40460CDE900046946BD
:101CD0001E480294FEF7E2FC4CF28010CDE90006AB
:101CE00069461A48CDE90245FEF7D8FCE801CDE97E
:101CF0000004694640460294FEF7D0FC08201127F4
:101D0000CDE9000769461248CDE90245FEF7C6FC59
:101D1000C020CDE9000669460D48CDE90245FEF731
:101D2000BDFC2803CDE9000769460848CDE9024516
:101D3000FEF7B4FC05B0BDE8F08F000000100240D3
:101D400000180140001C0140000C0140002001402F
:101D50000014014000100140000801400D4810B57A
:101D60000B4901600C49416000214FF480428160C1
:101D7000C0E9031241618161C1610162FEF796FD14
:101D8000002803D0BDE81040FEF7D1BA10BD000016
:101D90000054004054000020A08601000A4810B5FD
:101DA000084901604FF0FF3141604FF4807181605C
:101DB000FFF7ACFA002803D0BDE81040FEF7B7BA31
:101DC00010BD000000280040A800002010B50E48FB
:101DD0000C490022C0E90012CC148260C0E903243F
:101DE00042618261FFF76CFC08B1FEF7A0FA214660
:101DF0000548FFF70DFB002803D0BDE81040FEF7B3
:101E000096BA10BD00800140BC0000200F4810B5FC
:101E10000D4901604FF48271416000218160C16011
:101E20004FF400720161C0E90512C16101624162B3
:101E300081620A21C162FFF7DDFC002803D0BDE802
:101E40001040FEF774BA10BD003800404001002079
:101E50000C4810B50A4901604FF4E131416000219E
:101E600081600C22C160C0E904128161C161FFF789
:101E700069FD002803D0BDE81040FEF758BA10BD38
:101E800000380140980100200C4810B50A49016053
:101E90004FF4E1314160002181600C22C160C0E952
:101EA00004128161C161FFF74DFD002803D0BDE838
:101EB0001040FEF73CBA10BD00440040E001002095
:101EC0000C4810B50A4901604FF4E131416000212E
:101ED00081600C22C160C0E904128161C161FFF719
:101EE00031FD002803D0BDE81040FEF720BA10BD38
:101EF00000480040280200200B4810B50949016045
:101F0000082101710221817100218172C172017366
:101F1000FEF746FE002803D0BDE81040FEF707BAE2
:101F200010BD0000005C004070020020FEE7FEE7EC
:101F3000704770B50446FEF7B3FC05464FF47A7659
:101F400006E0FEF7ADFC401BB04201D9032070BD96
:101F5000206840688006F4D52068416841F010018F
:101F60004160002070BD000070B504460068416803
:101F700021F010014160FEF793FC05464FF47A769C
:101F800007E000BFFEF78CFC401BB04201D90320E4
:101F900070BD206840688006F4D5002070BD0A68D6
:101FA00042624A688262D1E902231A43D1E90431CC
:101FB0000B43C16A1A4321F0F7011143C1620020AB
:101FC0007047006800F0030070470844406970479C
:101FD00070B50DF1100C11439CE8700023431943B8
:101FE00029434268314347F6FF639A430A434260FC
:101FF000002070BD0321016000207047D0F88000F0
:1020000070470A688260D1E901231A43D1E903319C
:102010000B43C1681A436FF30B011143C1600020E9
:10202000704710B585B004463720CDE90010402038
:102030000290002003904FF480600490694620468F
:10204000FFF7DFFF41F288323721204600F004F924
:1020500005B010BD10B504460A4885B001432920DB
:10206000CDE9001040200290002003904FF48060E2
:10207000049069462046FFF7C4FF204600F0A4F90B
:1020800005B010BD0000108010B585B004461020CA
:10209000CDE9001040200290002003904FF48060B2
:1020A000049069462046FFF7ACFF41F288321021C8
:1020B000204600F0D1F805B010BD10B585B004463B
:1020C0000620CDE9001040200290002003904FF43C
:1020D0008060049069462046FFF793FF41F2883202
:1020E0000621204600F0B8F805B010BD30B585B027
:1020F00000240546009401944FF480600294CDE9D9
:10210000034069462846FFF77CFF0B484FF4FA511D
:102110000068B0FBF1F041F288314843401E03D221
:102120004FF0004005B030BD696B0906F6D5C520FB
:10213000A8632046F6E700000C00002010B585B02B
:1021400004464FF4D5700090082001904020029082
:10215000002003904FF48060049069462046FFF70A
:1021600050FF204600F096F905B010BD10B585B0BF
:1021700004460720CDE90020402002900020039073
:102180004FF48060049069462046FFF73AFF41F221
:1021900088320721204600F05FF805B010BD10B569
:1021A00085B0044600210220CDE90010C020CDE911
:1021B00002014FF48060049069462046FFF721FF3A
:1021C000204600F0D9F805B010BD10B585B0044622
:1021D0000920CDE90010C0200290002003904FF4A8
:1021E0008060049069462046FFF70BFF204600F010
:1021F000C3F805B010BD10B585B0044600213320EA
:10220000CDE900104020CDE90201000104906946AB
:102210002046FFF7F6FE41F288323321204600F0D7
:102220001BF805B010BD30B585B00C460546002141
:102230000320CDE900104020CDE902010001049007
:1022400069462846FFF7DDFE22460321284600F0B6
:10225000DDF805B030BD0000454B10B51B684FF4EC
:10226000FA54B3FBF4F353435B1E02D24FF0004029
:1022700010BD426B12F0450FF6D01205F4D4426B3C
:10228000520703D504218163084610BD426BD20773
:1022900002D00121816305E0C52282630269D2B2C6
:1022A0008A4201D0012010BD0021FFF78EFE314986
:1022B000084201D1002010BD002802DA4FF0007062
:1022C00010BD410001D5402010BD810001D5802006
:1022D00010BDC10002D54FF4807010BD010102D5C0
:1022E0004FF4007010BD410102D54FF4806010BD65
:1022F000C10102D54FF4006010BD010202D54FF4B8
:10230000805010BD410202D54FF4005010BD810233
:1023100002D54FF4804010BDC10202D54FF40040F9
:1023200010BD410302D54FF4003010BD810302D52A
:102330004FF4802010BDC10302D54FF4002010BD22
:10234000010402D54FF4801010BD410402D54FF4B2
:10235000001010BD810402D54FF4800010BD0007AD
:1023600002D54FF4000010BD4FF4803010BD0000C6
:102370000C00002008E0FFFD12494FF4FA520968F2
:10238000B1FBF2F141F288325143491E02D24FF0C3
:1023900000407047426B12F0450FF6D01205F4D49E
:1023A000416B490703D50421816308467047416B9F
:1023B000C90703D00121816308467047C5218163A5
:1023C000002070470C0000200F494FF4FA520968B2
:1023D000B1FBF2F141F288325143491E02D24FF073
:1023E00000407047426B12F0450FF6D01205F4D44E
:1023F000416B490703D50421816308467047C52115
:1024000081630020704700000C00002030B5204B95
:102410004FF4FA541B68B3FBF4F341F2883463437E
:102420005B1E02D24FF0004030BD446B14F0450FEC
:10243000F6D02405F4D4436B5B0703D504218163F4
:10244000084630BD436BDB0702D00121816303E006
:102450000369DBB28B4201D0012030BDC52181630D
:102460000021FFF7B2FD10F4604F04D0410406D5FF
:102470004FF4005030BD000C1080002030BD00042F
:1024800002D54FF4805030BD4FF4803030BD000095
:102490000C00002014494FF4FA520968B1FBF2F124
:1024A00041F288325143491E02D24FF0004070473A
:1024B000426B12F0450FF6D01205F4D4416B490778
:1024C00003D50421816308467047416BC90703D0D7
:1024D0000121816308467047416B490601D54021BF
:1024E00081630020704700000C0000202DE9F047B8
:1024F00088B00D460446FEF7D3F9002682460096C2
:102500000196374608212068FFF7BEFD00282CD130
:10251000B4F8500001042068FFF783FD002824D19F
:10252000401E4FF00808CDE9020830204FF00209A4
:10253000CDE904090120CDE9067002A92068FFF762
:102540002EFD2068FFF757FE00280ED16F46206849
:10255000416B11F02A0F0BD0416B090702D4416B7C
:1025600089051AD5C0F83880082008B0BDE8F08782
:10257000416B890205D5FFF741FD47F82600761C1F
:1025800002E0416B8904E7D5FEF78AF9A0EB0A0067
:10259000401CDCD14FF00040E7E7416B890703D5D1
:1025A000C0F838900220E0E7416B890603D520216E
:1025B00081630846D9E740F23A518163019800BA35
:1025C0002860009800BA68600020CEE710B590B08F
:1025D00004460120ADF838002068FFF7F2FC00281F
:1025E00054D0606C032842D02068FFF7D8FD002843
:1025F0004AD100212068FFF7E8FC606704212068C9
:10260000FFF7E3FCA06708212068FFF7DEFCE06726
:102610000C212068FFF7D9FCC4F88000606C032807
:1026200025D00EA92068FFF7FEFD00282CD1606C94
:1026300003281CD0BDF83800206501042068FFF78E
:10264000C4FD002820D100212068FFF7BEFC606691
:1026500004212068FFF7B9FCA06608212068FFF775
:10266000B4FCE0660C212068FFF7AFFC2067042172
:102670002068FFF7AAFC000DE06403A92046FEF7DE
:1026800053FF30B14FF0805010B010BD4FF080605C
:10269000FAE7B4F85000002302042068FFF766FD53
:1026A0000028F1D104F1100007C88DE8070094E874
:1026B0000F00FFF78DFC0020E6E700002DE9F84F42
:1026C0000026044600963546B0460068FFF70EFD2A
:1026D000002827D12068FFF731FD4FF0805B4FF0D5
:1026E00001094FF6FF7748B1A6642068FFF7FEFCAA
:1026F000002817D1A06C012802D020E0C4F848902F
:1027000000212068FFF78DFC58B918E000212068EF
:10271000FFF787FC002805D151462068FFF79AFC97
:1027200010B15846BDE8F88F00212068FFF74DFC36
:1027300005464FEAD0780098401C009002E0DFF890
:102740002CA00098B84202D2B8F1000FDED0009859
:10275000B84202D34FF08070E4E7680002D5C4F8B5
:10276000449000E066640020DCE70000000010C137
:102770007047FEF78DB930B595B028216846FDF752
:1027800045FD14210AA8FDF741FD18210FA8FDF70A
:102790003DFD0920012100904FF480300024049178
:1027A0000691CDE901040225CDE907500001099009
:1027B0006846FEF71BFC08B172B6FEE70F20CDE9B4
:1027C0000A054FF48060CDE90C4001210AA80E945F
:1027D000FEF730FB08B172B6FEE713200F904FF4FE
:1027E0000070109040011190000214900FA8FEF7A5
:1027F000ABFA002801D072B6FEE715B030BD7047C5
:1028000070B5044600680169E26821F44051114343
:1028100001612169A0680843616908432168CA68A9
:1028200041F20C639A430243CA6020684169A2697D
:1028300021F44071114341611E492068884202D150
:10284000FEF79EFB01E0FEF78BFB00EBC00101EB06
:102850000012606864218000B2FBF0F3B3FBF1F377
:102860006FF018067343B2FBF0F5B2FBF0F605EB20
:102870008305322303EB0515B5FBF1F5B6FBF1F645
:1028800005F0F00505EB0615B2FBF0F6B2FBF0F033
:10289000B0FBF1F06FF01802504306EB800003EB41
:1028A0000010B0FBF1F0216800F00F0028448860B0
:1028B00070BD0000003801400020704700207047C4
:1028C000012120F8401F00210180818001820846FB
:1028D000704730F8401F21F43F41018000207047CD
:1028E00000207047FEE70907090E002804DB00F10D
:1028F000E02080F80014704700F00F0000F1E020A5
:1029000080F8141D7047FEF7CBF8FFF734FFFFF790
:102910000BF9FFF743FAFFF7C3F8FFF7E7F8FFF704
:102920001DFAFFF753FAFFF771FAFFF791FAFFF775
:10293000ABFAFFF7C5FAFFF7DFFAFEE70102020381
:102940000405060708090A0B0C0D0E0F10100102F2
:1029500002030405060708090A0B0C0D0E0F1010E0
:10296000000000000000000001020304060708093F
:102970000000000001020304982900080000002064
:10298000100000006C010008A829000810000020B9
:10299000980B0000880100080100000010000000F2
:0829A0000000000000127A00A3
:0400000508000131BD
:00000001FF
