:020000040800F2
:10000000A80B0020CD010008F1270008D722000826
:10001000ED2700086F0300082736000800000000E5
:10002000000000000000000000000000593300083C
:100030007303000800000000F52700085B33000888
:10004000E7010008E7010008E7010008E7010008F0
:10005000E7010008E7010008E7010008E7010008E0
:10006000E7010008E7010008E7010008E7010008D0
:10007000E7010008E7010008E7010008E7010008C0
:10008000E7010008E7010008E7010008E7010008B0
:10009000E7010008E7010008E7010008E7010008A0
:1000A000E7010008E7010008E7010008E701000890
:1000B000E7010008E7010008E7010008E701000880
:1000C000E7010008E7010008E7010008E701000870
:1000D000E7010008E7010008E7010008E701000860
:1000E000E7010008E7010008E7010008E701000850
:1000F000E7010008E7010008E7010008E701000840
:10010000E7010008E7010008E7010008E70100082F
:10011000E7010008E7010008E7010008E70100081F
:10012000E7010008E7010008E7010008E70100080F
:1001300000F002F800F03AF80AA090E8000C8244BF
:100140008344AAF10107DA4501D100F02FF8AFF29C
:10015000090EBAE80F0013F0010F18BFFB1A43F0A5
:1001600001031847E435000004360000103A24BFAC
:1001700078C878C1FAD8520724BF30C830C144BF0C
:1001800004680C607047000000230024002500264E
:10019000103A28BF78C1FBD8520728BF30C148BFEA
:1001A0000B6070471FB51FBD10B510BD00F077F88C
:1001B0001146FFF7F7FF03F055FA00F095F803B486
:1001C000FFF7F2FF03BC00F09DF8000009488047EC
:1001D00009480047FEE7FEE7FEE7FEE7FEE7FEE729
:1001E000FEE7FEE7FEE7FEE704480549054A064B41
:1001F00070470000F133000831010008A805002015
:10020000A80B0020A8070020A807002010B5431C59
:1002100002E010F8011B71B18107FAD14FF00132F1
:1002200002C88C1A8C4314EAC211F9D0C01A0A060B
:1002300003D0C01E10BDC01A10BD0A0401D0801E1C
:1002400010BD0902FCD0401E10BD4FF0000200B5E9
:10025000134694469646203922BFA0E80C50A0E8E9
:100260000C50B1F12001BFF4F7AF090728BFA0E897
:100270000C5048BF0CC05DF804EB890028BF40F863
:10028000042B08BF704748BF20F8022B11F0804FA5
:1002900018BF00F8012B70477047704770477546CC
:1002A00000F02CF8AE4605006946534620F00700E2
:1002B000854618B020B5FFF797FFBDE820404FF006
:1002C00000064FF000074FF000084FF0000B21F040
:1002D0000701AC46ACE8C009ACE8C009ACE8C0090D
:1002E000ACE8C0098D46704710B50446AFF30080F6
:1002F0002046BDE81040FFF762BF0000004870478D
:100300004805002001491820ABBEFEE72600020088
:10031000704770B5044600252068806800F0010031
:1003200018B32068806820F001002168886000F020
:10033000FBFB054613E000F0F7FB401B02280ED93B
:100340002068806800F0010048B1A06A40F0100009
:10035000A062E06A40F00100E062012070BD206808
:10036000806800F001000028E5D10020F6E700BF1A
:10037000FEE7704772B600BFFEE7000038B50246E0
:1003800000230020009000BF92F82400012801D132
:10039000022038BD012082F8240000BF48680728E9
:1003A00012D21068406B0C79641E04EB84051F2484
:1003B000AC40A0430D796D1E05EB85050C68AC4083
:1003C00020431468606327E048680D2812D2106843
:1003D000006B0C79E41F04EB84051F24AC40A043A0
:1003E0000D79ED1F05EB85050C68AC4020431468C2
:1003F000206311E01068C06A0C790D3C04EB8405A1
:100400001F24AC40A0430D790D3D05EB85050C681C
:10041000AC4020431468E06208680A2812D31068D0
:10042000C0680C780A3C04EB44050724AC40A043A8
:100430000D780A3D05EB45058C68AC4020431468F7
:10044000E0600FE0106800690C7804EB44050724B5
:10045000AC40A0430D7805EB45058C68AC402043CB
:10046000146820610868102802D00868112827D174
:10047000174C1068A0421ED11068806800F400007C
:10048000F0B91068806840F400001468A060086843
:10049000102815D10F4800680F4CB0FBF4F000EBAA
:1004A00080004000009002E00098401E00900098FC
:1004B0000028F9D104E0906A40F020009062012306
:1004C00000BF002082F8240000BF184661E700004A
:1004D000002401400C00002040420F002DE9F041B3
:1004E0000446002700250026A84614B90120BDE8CF
:1004F000F081A06810B1207D00B100BFA06A30B9C2
:100500000020E06284F82400204600F097F820469E
:10051000FFF7FFFE0746A06A00F01000002873D125
:10052000002F7ED1A06A20F4885040F00200A06223
:100530003F4AD4E90001904208D1E069B0F5402F6C
:1005400002D14FF4002002E0E06900E0E0690143DD
:10055000207B41EA40000643A068B0F5807F02D0CE
:10056000A068012802D14FF4807000E0002005430C
:10057000207D012811D1207B38B9A069401E4FF49D
:10058000006141EA4030054307E0A06A40F02000E6
:10059000A062E06A40F00100E0622068406820F458
:1005A00069402843216848602068806821490840E4
:1005B000304321688860A068B0F5807F02D0A068D1
:1005C000012802D14FF4807000E00020B0F5807F58
:1005D00003D1208A401E4FEA00582068C06A20F4E8
:1005E000700040EA08002168C862206880681249EB
:1005F0000840B04209D10020E062A06A20F0020069
:1006000040F00100A06211E00BE0A06A20F00200BF
:1006100040F01000A062E06A40F00100E0620127B3
:1006200004E0A06A40F01000A062012738465EE7AF
:10063000003C0140FDF7E1FFFE0E1FFF10B586B044
:10064000044600200290039004900590144920680D
:10065000884222D100BF1348806940F400701149DC
:1006600088610846806900F40070019000BF00BFF7
:1006700000BF0846806940F0040088610846806930
:1006800000F00400019000BF00BF02200290032090
:10069000039002A9044800F0A1F806B010BD0000C4
:1006A000002401400010024000080140F0B503465C
:1006B000002603B109B90120F0BD00BF5879012817
:1006C00001D10220F8E70120587100BF0220187103
:1006D0001868046802F0100740F6FE70B8408443C2
:1006E000D1E9000740EA070502F0100005FA00F022
:1006F0000443186804601868006802F0100CC027F2
:1007000007FA0CF7B8431F6838600120187100BF62
:100710000020587100BF3046CEE710B504460CB932
:10072000012010BD207920B900206071204600F022
:1007300009F8022020710020206101202071002092
:10074000EFE7000010B586B0044600200290039049
:100750000490059014492068884222D100BF1348B4
:10076000C06940F000501149C8610846C06900F0F6
:100770000050019000BF00BF00BF0846806940F0F4
:10078000040088610846806900F00400019000BF01
:1007900000BF102002900320039002A9044800F03B
:1007A0001DF806B010BD00000074004000100240AB
:1007B0000008014070B5044600F0B6F9064625462B
:1007C000681C10B104480078054400BF00F0ACF983
:1007D000801BA842FAD370BD080000202DE9F8471D
:1007E000024600239C467BE14FF0010808FA03F41F
:1007F000D1F8008008EA0400A0427DD1DFF8F4A21D
:10080000D1F80480A8EB0A09D0453AD014DCB8F13D
:10081000030F50D009DCB8F1000F31D0B8F1010F4F
:100820001CD0B8F1020F49D120E0B8F1110F18D057
:10083000B8F1120F42D11EE0B9F5881F25D006DCB1
:10084000B9F5803F20D0B9F5801F37D11AE0B9F54E
:10085000001F18D0B9F5041F30D117E0D1F80CC033
:100860002DE0D1F80C8008F1040C28E0D1F80C80C0
:1008700008F1080C23E0D1F80C8008F10C0C1EE004
:1008800000BF00BF00BF00BF00BF00BFD1F808809D
:10089000B8F1000F02D14FF0040C0BE0D1F8088042
:1008A000B8F1010F03D14FF0080C146102E04FF0D2
:1008B000080C546103E04FF0000C00E000BF00BFE3
:1008C000FF2801D8904601E002F104084646FF28BF
:1008D00002D84FEA830803E0A3F108084FEA88082A
:1008E0004746D6F800804FF00F0909FA07F928EAC1
:1008F00009080CFA07F900E07AE048EA0908C6F8A6
:100900000080D1F8048008F08058B8F1805F6FD182
:1009100000BFDFF8E481D8F8188048F00108DFF85C
:10092000D891C9F81880C846D8F8188008F001088E
:10093000CDF8008000BF00BF4FEAB9384FEA9309F5
:1009400058F829504FEA83784FEA18794FF00F088A
:1009500008FA09F825EA0805DFF8A081424502D126
:100960004FF0000824E0DFF89881424502D14FF0B3
:1009700001081DE0DFF88C81424502D14FF00208EA
:1009800016E0DFF88481424502D14FF003080FE002
:10099000DFF87881424502D14FF0040808E0DFF823
:1009A0007081424502D14FF0050801E04FF0060882
:1009B0004FEA83794FEA197908FA09F848EA0505F8
:1009C000DFF850814FEA930948F82950D1F80480A4
:1009D00008F48018B8F5801F0BD1DFF83C81D8F8F7
:1009E000008048EA0008DFF83091C9F800800AE08A
:1009F00075E0DFF82481D8F8008028EA0008DFF8E5
:100A00001891C9F80080D1F8048008F40018B8F5EE
:100A1000001F0ED1DFF8008108F10408D8F800802B
:100A200048EA0008DFF8F09009F10409C9F80080ED
:100A30000DE0DFF8E48008F10408D8F8008028EA27
:100A40000008DFF8D49009F10409C9F80080D1F852
:100A5000048008F40038B8F5003F0ED1DFF8B88004
:100A6000A8F10408D8F8008048EA0008DFF8A89048
:100A7000A9F10409C9F800800DE0DFF89C80A8F115
:100A80000408D8F8008028EA0008DFF88C90A9F163
:100A90000409C9F80080D1F8048008F48038B8F55A
:100AA000803F0ED1DFF87080A8F10808D8F80080E8
:100AB00048EA0008DFF86090A9F10809C9F8008049
:100AC0000DE0DFF85480A8F10808D8F8008028EA83
:100AD0000008DFF84490A9F10809C9F800805B1C00
:100AE000D1F8008028FA03F8B8F1000F7FF47CAE4B
:100AF000BDE8F88700001110001002400008014016
:100B0000000C014000100140001401400018014099
:100B1000001C014008000140080401400AB10161C5
:100B200001E00B0403617047014800687047000052
:100B30000000002070B504460CB9012070BD94F887
:100B40003D0028B9002084F83C00204600F0DAF887
:100B5000242084F83D002068006820F0010021680E
:100B600008602068006840F4004021680860206840
:100B7000006820F400402168086000F06BFC054626
:100B80005C496068884206D85B48854201D20120F2
:100B900007E0002005E05948854201D2012000E02D
:100BA0000020012800D1C9E75548B5FBF0F62068C0
:100BB000406820F03F003043216848604D4960683C
:100BC000884201D8701C07E04FF4967070434FF4D0
:100BD0007A71B0FBF1F0401C2168096A21F03F01F5
:100BE00008432168086243496068884214D8681E37
:100BF00061684900B0FBF1F0401CC0F30B00042811
:100C000001D204203DE0681E61684900B0FBF1F0AC
:100C1000401CC0F30B0034E0A06838B9681E61685E
:100C200001EB4101B0FBF1F0401C0AE0681E616875
:100C300001EBC10202EB0111B0FBF1F0401C40F4EA
:100C40008040C0F30B0008B901201AE0A06848B941
:100C5000681E616801EB4101B0FBF1F0401CC0F37C
:100C60000B000CE0681E616801EBC10202EB011190
:100C7000B0FBF1F0401CC0F30B0040F4804040F4A6
:100C800000402168C9694CF6FF729143084321680E
:100C9000C861D4E9070108432168096821F0C0014F
:100CA000084321680860D4E9031008432168896873
:100CB00048F2FF329143084321688860D4E9050176
:100CC00008432168C96821F0FF0108432168C86012
:100CD0002068006840F0010021680860002020645E
:100CE000202084F83D000020206384F83E0000BFEF
:100CF00024E70000A086010080841E0000093D005A
:100D000040420F0010B586B00446002002900390C8
:100D10000490059015492068884225D100BF1448E9
:100D2000806940F00800124988610846806900F037
:100D30000800019000BF00BFC02002901220039065
:100D40000320059002A90B48FFF748FD00BF0848A3
:100D5000C06940F400100649C8610846C06900F443
:100D60000010019000BF00BF06B010BD005400404D
:100D700000100240000C0140034800680349097854
:100D80000844014908607047000000200800002066
:100D900010B50848006840F01000064908600320BC
:100DA00000F098F80F2000F007F800F02BF8002072
:100DB00010BD00000020024070B504460E480078C7
:100DC0004FF47A71B1FBF0F00C490968B1FBF0F512
:100DD000284601F01BF908B1012070BD102C07D284
:100DE00000222146501E00F037F80548046001E05B
:100DF0000120F2E70020F0E7080000200C000020AE
:100E00000400002008B500BF1148806940F00100CF
:100E10000F4988610846806900F00100009000BF1A
:100E200000BF00BF0846C06940F08050C861084656
:100E3000C06900F08050009000BF00BF00BF0549AE
:100E4000486820F0E06040F00070486000BF08BDD6
:100E500000100240000001402DE9F05F80460D4681
:100E60001646002702F0E2FB074639462A4633467B
:100E700001F00700C0F1070ABAF1040F02D94FF0E0
:100E8000040A01E0C0F1070AD14600F1040ABAF1F0
:100E9000070F02D24FF0000A01E0A0F1030AD44686
:100EA0004FF0010A0AFA09FAAAF1010A0AEA020A4B
:100EB0000AFA0CFA4FF0010B0BFA0CFBABF1010B29
:100EC0000BEA030B4AEA0B042146404602F0B6FB4C
:100ED000BDE8F09F00BF00F00702064B19684FF60F
:100EE000FF031940044B0B4343EA0221014B1960F5
:100EF00000BF70470CED00E00000FA0570B5044635
:100F00000CB9012070BD94F8910228B9002084F832
:100F10009002204600F090F8032084F8910200210E
:100F20006171206802F072FB94E80F0002F05CFB34
:100F300020B1022084F891020120E3E7002120681B
:100F400002F06EFB20B1022084F891020120D9E763
:100F500000252AE0012105EB850204F1100000EBD9
:100F6000C200417005EB850104F1100000F831501A
:100F7000002105EB850200EBC200C17005EB850284
:100F800004F1100000EBC200016105EB850204F1E1
:100F9000100000EBC200416105EB850204F1100076
:100FA00000EBC2008161681CC5B22079A842D1DC87
:100FB00000252AE0002105EB850204F5A87000EB6E
:100FC000C200417005EB850104F5A87000F83150AE
:100FD000002105EB850200EBC200C17005EB850224
:100FE00004F5A87000EBC200016105EB850204F571
:100FF000A87000EBC200416105EB850204F5A87002
:1010000000EBC2008161681CC5B22079A842D1DC26
:1010100094E80F0002F0EFFA20B1022084F8910268
:1010200001206FE700206073012084F8910220689E
:1010300002F0DEFA002065E708B5094A016891422E
:101040000DD100BF0749C96941F40001054AD161CA
:101050001146C96901F40001009100BF00BF08BD3D
:10106000005C004000100240012001490862704706
:1010700000000E422DE9F04706464FF0000800251B
:1010800000270024A146042E37D004DC012E3CD0DA
:10109000022E6CD160E0082E33D0102E67D1364876
:1010A0004468006800F0807008B33448C4F383419A
:1010B000475C04F4803078B12F484068C0F340406A
:1010C0002F4911F8008004F4803040B12D48B0FB66
:1010D000F8F000FB07F502E02B4807FB00F5264877
:1010E000406800F48000B0F5800F01D1A94603E00C
:1010F00068000321B0FBF1F93AE000F0CBF981463A
:1011000036E000F0C7F9814632E01B48046A04F477
:101110004070B0F5807F05D104F0020010B14FF4AB
:10112000004918E004F44070B0F5007F07D1124880
:10113000406A00F0020010B149F640490BE004F4A7
:101140004070B0F5407F06D10B48006800F40030D5
:1011500008B14FF224490BE000F08CF906494968C8
:10116000C1F38131491C4900B0FBF1F900E000BF37
:1011700000BF4846BDE8F087001002401E37000857
:101180002E37000800127A0000093D00F8B5044629
:1011900000260025207800F0010000286BD00027F1
:1011A0004348C06900F0805070B900BF4048C06932
:1011B00040F080503E49C8610846C06900F0805048
:1011C000009000BF00BF01273A48006800F480701B
:1011D000B0B93848006840F4807036490860FFF7BD
:1011E000A3FC064606E0FFF79FFC801B642801D99C
:1011F0000320F8BD2F48006800F480700028F2D06A
:101200002B48006A00F440752DB3A08800F44070AC
:10121000A84220D02648006A20F4407501202649C3
:101220000860002008602248056205F0010090B1C6
:10123000FFF77AFC064608E0FFF776FC801B41F2D8
:101240008831884201D90320D3E71948006A00F0A9
:1012500002000028F0D01648006A20F4407061684F
:10126000084313490862012F04D10846C06920F0E1
:101270008050C86100BF207800F00200022807D12A
:101280000B48406820F44040A16808430849486082
:10129000207800F01000102807D10548406820F49D
:1012A000800061690843024948600020A1E700000E
:1012B00000100240007000404004424270B50446F5
:1012C0000D460CB9012070BD5A48006800F00700B7
:1012D000A8420ED25748006820F00700284355491D
:1012E00008600846006800F00700A84201D001200D
:1012F000E9E7207800F0020002281DD1207800F0F4
:101300000400042805D14C48406840F4E0604A4994
:101310004860207800F00800082805D14648406859
:1013200040F46050444948604348406820F0F00071
:10133000A168084340494860207800F0010078B374
:101340006068012806D13C48006800F4003090B97C
:101350000120B8E76068022806D13748006800F02D
:10136000007040B90120AEE73348006800F0020089
:1013700008B90120A7E73048406820F00300616801
:1013800008432D494860FFF7CFFB064609E0FFF709
:10139000CBFB801B41F28831884202D9032092E7BF
:1013A00007E02548406800F00C006168B0EB810F51
:1013B000EDD12048006800F00700A8420ED91D4872
:1013C000006820F0070028431A49086008460068B2
:1013D00000F00700A84201D0012074E7207800F057
:1013E0000400042807D11448406820F4E060E16854
:1013F000084311494860207800F00800082808D107
:101400000D48406820F46050216940EAC1000A4953
:10141000486000F03FF808494968C1F30311074AE2
:10142000515CC8400649086006480068FFF7C4FCE4
:10143000002048E70020024000100240303700083A
:101440000C000020040000200148006870470000E4
:101450000C00002000B5FFF7F7FF04494968C1F30D
:101460000221034A515CC84000BD00000010024048
:101470004037000800B5FFF7E7FF04494968C1F3AA
:10148000C221034A515CC84000BD00000010024068
:101490004037000870B500210022002400230020FE
:1014A000134D696801F00C05F5B1042D02D0082D2B
:1014B00019D101E00F4819E00F4DC1F38346AB5D30
:1014C00001F4803555B10A4D6D68C5F340450B4EAA
:1014D000725D084D5D43B5FBF2F402E0084D03FB7D
:1014E00005F4204602E000BF024800BF00BF70BD07
:1014F0000010024000127A000C3700081C37000868
:1015000000093D00F8B504460CB90120F8BD20786B
:1015100000F00100002878D0F848406800F00C0086
:1015200004280CD0F548406800F00C00082811D1C0
:10153000F248406800F48030B0F5803F0AD1EF48AF
:10154000006800F4003000285FD0606800285CD19B
:101550000120DBE700BF6068B0F5803F06D1E748B7
:10156000006840F48030E549086028E0606858B9B8
:10157000E248006820F48030E049086008460068CE
:1015800020F4802008601AE06068B0F5A02F0BD12D
:10159000DA48006840F48020D849086008460068AE
:1015A00040F4803008600AE0D448006820F48030BD
:1015B000D24908600846006820F48020086000BF17
:1015C000606888B1FFF7B0FA054606E0FFF7ACFAAD
:1015D000401B642801D9032098E7C848006800F43C
:1015E00000300028F2D010E0FFF79EFA054606E032
:1015F000FFF79AFA401B642801D9032086E7BF4809
:10160000006800F400300028F2D1207800F00200D9
:10161000022857D1B948406800F00C0050B1B748D3
:10162000406800F00C00082818D1B448406800F465
:10163000803098B9B148006800F0020020B12069FC
:10164000012801D0012061E7AC48006820F0F800D3
:10165000616940EAC100A949086033E02069E8B146
:101660000120A7490860FFF75FFA054606E0FFF78B
:101670005BFA401B022801D9032047E79F48006816
:1016800000F002000028F2D09C48006820F0F8002A
:10169000616940EAC1009949086013E00020984957
:1016A0000860FFF741FA054606E0FFF73DFA401BE8
:1016B000022801D9032029E79048006800F00200C1
:1016C0000028F2D1207800F0080008282DD1A06968
:1016D000B8B101208B490860FFF726FA054606E0FD
:1016E000FFF722FA401B022801D903200EE78348A6
:1016F000406A00F002000028F2D0012001F07CF8DE
:1017000013E000207F490860FFF70EFA054606E067
:10171000FFF70AFA401B022801D90320F6E67748B2
:10172000406A00F002000028F2D1207800F00400A6
:10173000042873D100277148C06900F0805070B947
:1017400000BF6E48C06940F080506C49C8610846CF
:10175000C06900F08050009000BF00BF01276A48B8
:10176000006800F48070B0B96748006840F4807089
:1017700065490860FFF7D8F9054606E0FFF7D4F998
:10178000401B642801D90320C0E65F48006800F4CC
:1017900080700028F2D000BFE068012806D15748C9
:1017A000006A40F001005549086227E0E06858B936
:1017B0005248006A20F00100504908620846006A59
:1017C00020F00400086219E0E06805280BD14B48BE
:1017D000006A40F00400494908620846006A40F087
:1017E000010008620AE04548006A20F00100434910
:1017F00008620846006A20F00400086200BFE06842
:10180000A0B1FFF791F9054609E0FFF78DF9401BFC
:1018100041F28831884202D9032077E622E0374836
:10182000006A00F002000028EFD012E0FFF77CF918
:10183000054608E0FFF778F9401B41F288318842FD
:1018400001D9032062E62D48006A00F0020000285A
:10185000F0D1012F05D12948C06920F080502749D7
:10186000C86100BFE069C8B32448406800F00C00BC
:10187000082860D0E069022848D100202049086685
:10188000FFF752F9054606E0FFF74EF9401B022824
:1018900001D903203AE61948006800F000700028DA
:1018A000F2D1206AB0F5803F07D11448406820F497
:1018B0000030A168084311494860D4E90801084391
:1018C0000E49496821F4741108430C49486001200D
:1018D0000B490866FFF728F9054607E03DE0FFF7EA
:1018E00023F9401B022801D903200FE603480068B2
:1018F00000F000700028F2D02FE00000001002403D
:10190000000042428004424200700040002014491E
:101910000866FFF709F9054606E0FFF705F9401BE1
:10192000022801D90320F1E50E48006800F000709C
:101930000028F2D111E0E069012800D1E6E509486C
:10194000466806F48031206A814204D106F47011A1
:10195000606A814201D00120D8E50020D6E5000070
:10196000000042420010024070B5044600250CB948
:10197000012070BD607C20B900202074204600F05A
:1019800053F802206074204600F06EF818B104206D
:1019900060740120EDE7204600F042FF18B10420FA
:1019A00060740120E5E72068406820F007002168A6
:1019B0004860A06828B11B48006820F00100194960
:1019C00008601848001F006820F46070A168084390
:1019D0001449091F08606068401C08B1656809E087
:1019E0000120FFF747FB05461DB904206074012064
:1019F000BFE76D1EC5F3034021688860A8B2216867
:101A0000C860204600F029FF18B10420607401204E
:101A1000AFE70021E17301216173A17301206074BC
:101A20000020A6E7306C004038B504460B4920681A
:101A3000884212D1FFF718FB00BF0948C06940F087
:101A400000600749C8610846C06900F00060009066
:101A500000BF00BF01200349086038BD00280040D6
:101A6000001002403C04424270B5044600250CB907
:101A7000012070BD2068406820F00800216848609F
:101A8000FFF752F8054607E0FFF74EF8401BB0F5A8
:101A90007A7F01D90320ECE72068406800F0080055
:101AA0000028F1D00020E4E7F0B589B004460E46E6
:101AB0000027032084F83400606C032820D0B6F59A
:101AC000805F04D1A06B40F08050A0631CE0B6F5AD
:101AD000006F07D1204601F00BFC0546A06B2843A0
:101AE000A06311E03EB9204601F0CEFB0546A06B95
:101AF0002843A06308E0A06B40F00060A06303E00F
:101B0000A06B40F08050A063A06B38B117482168EB
:101B10008863012084F83400012713E06068039093
:101B2000A0680490E0680590069660690790A06937
:101B3000089006A807C88DE80700206803A90EC909
:101B400000F0CDFE4FF40071206800F039FF05462B
:101B500035B1064821688863A06B2843A06301273C
:101B6000012084F83400384609B0F0BDFF0540007C
:101B700010B50246506E800F0870506EC0F383603F
:101B80004870506EC0F301608870506E000CC870D1
:101B9000B2F86400000A087192F864004871906E0F
:101BA000000DC880906EC0F3034008726820805A10
:101BB000C0F3C03048726820805AC0F38030887209
:101BC0006820805AC0F34030C8726820805AC0F341
:101BD0000030087300204873506C002836D168200C
:101BE000805A8005030DD06E43EA90700861D06E74
:101BF000C0F3C2600875D06EC0F302604875D06E45
:101C0000C0F342508875D06EC0F38240C875D06E64
:101C1000C0F3C23008760869401C50650B7E506DD9
:101C200003F007039B1C01249C4060435065087A25
:101C300000F00F03012098409065D2E915035B0A7C
:101C40005843D0654FF40073136621E0506C0128AF
:101C500013D16820805C8006830AD06E43EA10406E
:101C600008610869401C83025365536DD3654FF4C6
:101C700000739365936D13660AE02E4813689863AA
:101C8000906B40F080509063012082F8340010BDCA
:101C90006C20805AC0F3803001F8190F6C20805AF4
:101CA000C0F3C61048706C20805C00F07F00887024
:101CB000106FC00FC870106FC0F341700871106FC3
:101CC000C0F382604871106FC0F383508871106F49
:101CD000C0F34050C87100200872106FC0F300407C
:101CE00048727020805AC0F3C03088727020805AC9
:101CF000C0F38030C8727020805AC0F3403008733F
:101D00007020805AC0F3003048737020805AC0F3AE
:101D1000812088737020805AC0F30120C87370201E
:101D2000805CC0F346000874012048741939002013
:101D3000ADE70000FF05400010B504460CB90120D6
:101D400010BD94F8340020B900202077204600F020
:101D500065F8032084F83400204600F00BF808B141
:101D60000120EDE70020A0632063012084F8340007
:101D70000020E5E730B589B00446002003900490C8
:101D80000590069007907620089006A807C88DE871
:101D90000700206803A90EC900F0A1FD00201D491D
:101DA0000860206800F0B5FD01201A49A039C1F88B
:101DB000A0000220FEF7FEFC204601F0FFF90546D8
:101DC00045B1012084F83400A06B2843A0630120B2
:101DD00009B030BD204601F06FF905463DB1012044
:101DE00084F83400A06B2843A0630120F0E74FF48F
:101DF0000071206800F0E4FD05464DB106482168F9
:101E00008863A06B2843A063012084F83400DFE7D7
:101E10000020DDE7A0003042FF05400010B586B08D
:101E20000446002002900390049005902149206808
:101E300088423CD100BF2048406940F480601E4980
:101E400048610846406900F48060019000BF00BF0F
:101E500000BF0846806940F010008861084680692C
:101E600000F01000019000BF00BF00BF084680696D
:101E700040F0200088610846806900F02000019051
:101E800000BF00BF4FF4F8500290022003900320DF
:101E9000059002A90948FEF7A1FC04200290022047
:101EA00003900320059002A90548FEF797FC06B0B1
:101EB00010BD0000008001400010024000100140F1
:101EC0000014014010B504460CB9012010BD606A31
:101ED00038B96068B0F5827F00D105E00021E1618A
:101EE00002E00021216161610021A16294F85100AA
:101EF00028B9002084F85000204600F043F8022062
:101F000084F851002068006820F0400021680860D3
:101F1000A08800F48270218901F404410843A1895A
:101F200001F400610843217C01F002010843217D96
:101F300001F001010843218B01F400710843217F66
:101F400001F0380108432021095D01F080010843B8
:101F5000218D01F400510843216808600421A06923
:101F600001EA1040216848602068C06920F40060E0
:101F70002168C86100206065012084F851000020BC
:101F8000A4E7000010B586B004460020029003903C
:101F9000049005901A49206888422FD100BF194843
:101FA000C06940F480401749C8610846C06900F420
:101FB0008040019000BF00BF00BF0846806940F02C
:101FC000080088610846806900F00800019000BFA1
:101FD00000BF4FF430400290022003900320059090
:101FE00002A90948FEF7FAFB4FF480400290002056
:101FF0000390049002A90448FEF7F0FB06B010BD60
:102000000038004000100240000C014070B504464A
:102010002546681EB0F1807F01D301200FE0681EC5
:102020004FF0E02148610F214FF0FF3001F006FB37
:1020300000204FF0E021886107200861002070BD7A
:1020400010B504460CB9012010BDA06900B100E034
:1020500000BF94F8410028B9002084F840002046D1
:1020600000F02AF8242084F841002068C06820F499
:1020700000502168C860204601F0F2F9206800692C
:1020800020F49040216808612068406920F02A000F
:10209000216848612068C06840F400502168C86029
:1020A00000206064202084F8410084F84200002071
:1020B000606300BFC8E7000010B586B0044600208A
:1020C00002900390049005904D49206888422FD1DA
:1020D00000BF4C48806940F480404A498861084606
:1020E000806900F48040019000BF00BF00BF084637
:1020F000806940F0040088610846806900F00400AF
:10210000019000BF00BF48150290022003900320F9
:10211000059002A93C48FEF761FB4FF480600290F5
:1021200000200390049002A93748FEF757FB65E0B2
:102130003649206888422ED100BF3248C06940F439
:1021400000303049C8610846C06900F40030019091
:1021500000BF00BF00BF0846806940F004008861EE
:102160000846806900F00400019000BF00BF042011
:102170000290022003900320059002A92248FEF756
:102180002DFB0820029000200390049002A91E4815
:10219000FEF724FB32E01E49206888422ED100BFA2
:1021A0001848C06940F480201649C8610846C069D3
:1021B00000F48020019000BF00BF00BF0846806986
:1021C00040F0080088610846806900F0080001902E
:1021D00000BF00BF08150290022003900320059065
:1021E00002A90C48FEF7FAFA4FF4006002900020B2
:1021F0000390049002A90748FEF7F0FA06B010BD5C
:102200000038014000100240000801400044004036
:1022100000480040000C01402DE9F84F04460E46EE
:10222000174699464FF0000A94F84100202850D1F3
:1022300006B117B90120BDE8F88F002060642120A5
:1022400084F84100FEF770FC8246A784E784A0680A
:10225000B0F5805F04D1206910B90025B04602E0D6
:1022600035464FF000081EE05346002280212046EC
:10227000CDF8009001F072F920B1202084F84100DF
:102280000320D8E745B9B8F80000C0F3080021687A
:10229000486008F1020803E02878216848606D1C56
:1022A000E08C401EE084E08C0028DDD15346002203
:1022B00040212046CDF8009001F050F920B12020B7
:1022C00084F841000320B6E7202084F84100002074
:1022D000B1E70220AFE700BFFEE700000EB5002027
:1022E00000900190029011481149086000211048A7
:1022F0008160017301754FF46021C16100200C49B8
:10230000486001210A480161FEF7E8F808B1FEF7CC
:1023100031F80120009001900020029069460448A5
:10232000FEF72CF808B1FEF725F80EBD0024014099
:10233000100000201CB50020009001900A480B49B5
:1023400008600846FEF7E9F908B1FEF713F8002027
:1023500000900190002269460448FEF7A7F908B1F1
:10236000FEF708F81CBD000000740040400000208B
:1023700000B585B00020019002900390049000BF4A
:10238000A048806940F040009E4988610846806905
:1023900000F04000009000BF00BF00BF0846806909
:1023A00040F0100088610846806900F0100000903D
:1023B00000BF00BF00BF0846806940F08000886110
:1023C0000846806900F08000009000BF00BF00BF99
:1023D0000846806940F0040088610846806900F082
:1023E0000400009000BF00BF00BF0846806940F0B5
:1023F000080088610846806900F00800009000BF6E
:1024000000BF00BF0846806940F4807088610846BC
:10241000806900F48070009000BF00BF00BF0846D4
:10242000806940F0200088610846806900F0200043
:10243000009000BF00BF002260217348FEF76EFBD2
:1024400000224FF43C617148FEF768FB002240F225
:1024500023116F48FEF762FB00224EF280116D4897
:10246000FEF75CFB0022C8216B48FEF757FB1C20DF
:10247000019000200290039001A96348FEF7AEF995
:10248000602001900120029000200390022004901F
:1024900001A95D48FEF7A2F942F2FF000190002079
:1024A0000290039001A95D48FEF798F94FF23F00B2
:1024B0000190022002900320049001A95348FEF7E6
:1024C0008DF94FF43C6001900120029000200390B0
:1024D0000220049001A94D48FEF780F94FF4806076
:1024E000019000200290039001A94848FEF776F978
:1024F000E0200190022002900320049001A94848A6
:10250000FEF76CF940F223100190012002900020A8
:1025100003900220049001A93D48FEF75FF94FF4B3
:102520000170019000200290039001A93848FEF745
:1025300055F941F23F60019002200290032004907F
:1025400001A93448FEF74AF94FF683700190022042
:1025500002900320049001A92B48FEF73FF94FF6A3
:1025600033700190022002900320049001A92A48B0
:10257000FEF734F94FF404600190002002900390BC
:1025800001A92448FEF72AF94CF28010019001209D
:102590000290002003900220049001A91D48FEF73C
:1025A0001DF94FF48070019000200290039001A962
:1025B0001B48FEF713F9082001901120029000201B
:1025C00003900220049001A91348FEF707F9C020E8
:1025D000019001200290002003900220049001A9A4
:1025E0000D48FEF7FBF84FF40050019011200290C7
:1025F000002003900220049001A90648FEF7EEF89F
:1026000005B000BD0010024000180140001C014050
:10261000000C014000200140001401400010014066
:102620000008014010B50B480B4908600B48486092
:10263000002109488160C1604FF48041016100219F
:1026400041618161C1610162FEF774FA08B1FDF771
:1026500091FE10BD0054004054000020A0860100EF
:1026600010B50848084908604FF0FF3048604FF443
:10267000807105488160FFF777F908B1FDF77AFEB0
:1026800010BD000000280040A800002010B50E4832
:102690000E4908600020486000210C488160C1603C
:1026A0004FF400610161002141618161FFF744FB4A
:1026B00008B1FDF75FFE4FF400610448FFF7F4F93D
:1026C00008B1FDF757FE10BD00800140BC0000209E
:1026D00010B50E480E4908604FF482704860002122
:1026E0000B488160C160016141614FF400718161FB
:1026F0000021C1610162416281620A21C162FFF76A
:10270000E1FB08B1FDF736FE10BD000000380040C7
:102710004001002010B50B480B4908604FF4E13030
:102720004860002108488160C16001610C2141615D
:1027300000218161C161FFF783FC08B1FDF71AFE3A
:1027400010BD0000003801409801002010B50B4872
:102750000B4908604FF4E13048600021084881606F
:10276000C16001610C21416100218161C161FFF7FC
:1027700067FC08B1FDF7FEFD10BD000000440040FD
:10278000E001002010B50B480B4908604FF4E13020
:102790004860002108488160C16001610C214161ED
:1027A00000218161C161FFF74BFC08B1FDF7E2FD3B
:1027B00010BD0000004800402802002010B5094864
:1027C0000949086008200871022107488171002129
:1027D0008172C1720173FEF791FB08B1FDF7CAFD6A
:1027E00010BD0000005C00407002002000BFFEE74A
:1027F00000BFFEE77047000008B508490968C9082E
:102800004FF47A72B1FBF2F14143009100BF00BF77
:1028100000994A1E00920029F9D108BD0C00002041
:1028200070B504460025FEF77FF9054607E0FEF780
:102830007BF9401BB0F57A7F01D9032070BD206879
:10284000406800F020000028F1D02068406840F087
:102850001000216848600020F0E770B504460025AC
:102860002068406820F0100021684860FEF75CF99D
:10287000054607E0FEF758F9401BB0F57A7F01D90D
:10288000032070BD2068406800F020000028F1D0CF
:102890000020F6E710B50246002308685062486839
:1028A0009062D1E9020420430C6920434C69204323
:1028B0000343D06A20F0F7001843D062002010BD17
:1028C00001460869C0B270470146086800F003007D
:1028D0007047024602F114004318186870470FB49D
:1028E00010B504460021DDE903021043059A1043A8
:1028F000069A1043079A1043089A104301436068F0
:1029000047F6FF62904308436060002010BC5DF80A
:1029100014FB014603200860002070470146D1F8EF
:102920008000704710B50246002308689060D1E926
:1029300001042043CC6820430C6920430343D06842
:102940006FF30B001843D060002010BD70B585B048
:1029500005460C460094372001904020029000204C
:1029600003904FF48060049069462846FFF7DAFF31
:1029700041F288323721284600F032F906463046C7
:1029800005B070BD70B585B005460C460B482043B8
:1029900000902920019040200290002003904FF4E5
:1029A0008060049069462846FFF7BCFF284600F087
:1029B0001FFA0646304605B070BD000000001080CA
:1029C00070B585B005460C4600941020019040205B
:1029D0000290002003904FF48060049069462846DE
:1029E000FFF7A0FF41F288321021284600F0F8F8E6
:1029F0000646304605B070BD70B585B005460C463C
:102A000000940620019040200290002003904FF493
:102A10008060049069462846FFF784FF41F28832BF
:102A20000621284600F0DCF80646304605B070BDA9
:102A300030B585B0044600200090019002900390CC
:102A40004FF48060049069462046FFF76BFF2046F4
:102A500000F0A6F80546284605B030BD30B585B073
:102A600004464FF4D5700090082001904020029059
:102A7000002003904FF48060049069462046FFF7E1
:102A800051FF204600F03CFA0546284605B030BD0F
:102A9000F0B585B0064614461D4600940720019007
:102AA00040200290002003904FF48060049069461B
:102AB0003046FFF737FF41F288320721304600F0F9
:102AC0008FF80746384605B0F0BD30B585B00446EE
:102AD0000020009002200190C0200290002003906E
:102AE0004FF48060049069462046FFF71BFF2046A4
:102AF00000F04CF90546284605B030BD70B585B0EC
:102B000005460C46009409200190C0200290002048
:102B100003904FF48060049069462846FFF702FF57
:102B2000284600F033F90646304605B070BD30B592
:102B300085B0044600200090332001904020029090
:102B4000002003904FF48060049069462046FFF710
:102B5000E9FE41F288323321204600F041F8054673
:102B6000284605B030BD70B585B005460C4600203E
:102B700000900320019040200290002003904FF429
:102B80008060049069462846FFF7CCFE2246032168
:102B9000284600F059F90646304605B070BD0000E1
:102BA00001460E480068C0084FF47A73B0FBF3F09A
:102BB00041F2883300FB03F200BF101EA2F10102B4
:102BC00002D14FF000407047486B00F080000028B1
:102BD000F3D0C52088630020F5E700000C0000203A
:102BE0002DE9F04305460F46904666480068C00848
:102BF0004FF47A71B0FBF1F000FB08F900BFB9F1B6
:102C00000000A9F1010903D14FF00040BDE8F083B5
:102C10006E6B06F045000028F1D006F40060002835
:102C2000EDD1686B00F0040010B10420A863EDE75B
:102C3000686B00F0010010B10120A863E6E7C52031
:102C4000A8632846FFF73CFEB84201D00120DDE72B
:102C500000212846FFF73DFE04464B48204008B9B6
:102C60000020D3E704F00040B0F1004F02D14FF054
:102C70000070CBE704F08040B0F1804F01D14020DC
:102C8000C4E704F00050B0F1005F01D18020BDE73F
:102C900004F08050B0F1805F02D14FF48070B5E74E
:102CA00004F00060B0F1006F02D14FF40070ADE7A6
:102CB00004F08060B0F1806F02D14FF48060A5E72E
:102CC00004F08070B0F1807F02D14FF400609DE786
:102CD00004F40000B0F5000F02D14FF4805095E7E6
:102CE00004F48000B0F5800F02D14FF400508DE75E
:102CF00004F40010B0F5001F02D14FF4804085E7C6
:102D000004F48010B0F5801F02D14FF400407DE73D
:102D100004F48020B0F5802F02D14FF4003075E725
:102D200004F40030B0F5003F02D14FF480206DE78D
:102D300004F48030B0F5803F02D14FF4002065E705
:102D400004F40040B0F5004F02D14FF480105DE76D
:102D500004F48040B0F5804F02D14FF4001055E7E5
:102D600004F40050B0F5005F02D14FF480004DE74D
:102D700004F00800082801D1000547E74FF480302F
:102D800044E700000C00002008E0FFFD10B50146FC
:102D900016480068C0084FF47A74B0FBF4F041F2B2
:102DA000883400FB04F300BF181EA3F1010302D115
:102DB0004FF0004010BD4A6B02F045000028F3D0F0
:102DC00002F400600028EFD1486B00F0040010B15D
:102DD00004208863EEE7486B00F0010010B1012089
:102DE0008863E7E7C52088630020E3E70C00002044
:102DF00010B5014613480068C0084FF47A74B0FB60
:102E0000F4F041F2883400FB04F300BF181EA3F174
:102E1000010302D14FF0004010BD4A6B02F04500A3
:102E20000028F3D002F400600028EFD1486B00F0D6
:102E3000040010B104208863EEE7C52088630020F9
:102E4000EAE700000C0000202DE9F04304460F469D
:102E500090462A480068C0084FF47A71B0FBF1F040
:102E600041F2883100FB01F900BFB9F10000A9F17E
:102E7000010903D14FF00040BDE8F083666B06F016
:102E800045000028F1D006F400600028EDD1606B09
:102E900000F0040010B10420A063EDE7606B00F0C7
:102EA000010010B10120A063E6E72046FFF708FD0E
:102EB000B84201D00120DFE7C520A06300212046F1
:102EC000FFF707FD054605F4604020B9280CA8F877
:102ED00000000020D0E705F48040B0F5804F02D11B
:102EE0004FF40050C8E705F40040B0F5004F02D1A0
:102EF0004FF48050C0E74FF48030BDE70C00002055
:102F000010B5014618480068C0084FF47A74B0FB49
:102F1000F4F041F2883400FB04F300BF181EA3F163
:102F2000010302D14FF0004010BD4A6B02F0450092
:102F30000028F3D002F400600028EFD1486B00F0C5
:102F4000040010B104208863EEE7486B00F0010034
:102F500010B101208863E7E7486B00F0400008B13A
:102F6000402088630020DFE70C0000202DE9F043BB
:102F700089B004460F46FDF7D7FD81464FF00008A3
:102F80000020019002903E4608212068FFF718FDBE
:102F900005461DB1284609B0BDE8F0835022125BFA
:102FA00011042068FFF7D2FC05460DB12846F2E770
:102FB0004FF0FF300390082004903020059002204D
:102FC0000690002007900120089003A92068FFF7D1
:102FD00061FC2068FFF7ABFD05460DB12846DAE736
:102FE0001CE02068406B00F4001040B12068FFF73F
:102FF00095FC01A941F8280008F1010805E02068C6
:10300000406B00F4005000B90EE0FDF78DFDA0EB21
:103010000900401C10B94FF00040BCE72068406B2D
:1030200000F02A000028DCD000BF2068406B00F0D0
:10303000080020B92068406B00F4007018B1082027
:1030400021688863A7E72068406B00F0020018B190
:103050000220216888639EE72068406B00F0200012
:1030600018B120202168886395E740F23A50216822
:10307000886302980006029901F47F4140EA01202A
:10308000029901F47F0140EA1120029940EA11609F
:103090003060361D01980006019901F47F4140EA35
:1030A0000120019901F47F0140EA1120019940EAD1
:1030B0001160306000206EE730B58FB0044601200B
:1030C00003902068FFF700FC18B94FF080600FB044
:1030D00030BD606C03281BD02068FFF7F6FC054666
:1030E0000DB12846F3E700212068FFF7F2FB606787
:1030F00004212068FFF7EDFBA06708212068FFF797
:10310000E8FBE0670C212068FFF7E3FB8021085112
:10311000606C032807D003A92068FFF724FD05464B
:103120000DB12846D3E7606C032820D0BDF80C1001
:1031300021655022125B11042068FFF7DFFC054671
:103140000DB12846C3E700212068FFF7C2FB606687
:1031500004212068FFF7BDFBA06608212068FFF767
:10316000B8FBE0660C212068FFF7B3FB2067042161
:103170002068FFF7AEFB010DE16404A92046FEF7CD
:10318000F7FC10B14FF08050A1E75020005B010424
:103190000A4600232068FFF77BFC05460DB1284650
:1031A00095E7D4E90412A069CDE90012029094E8F1
:1031B0000F00FFF794FB002089E70000F8B50446F4
:1031C00000200090002600272068FFF731FC05460C
:1031D0000DB12846F8BD2068FFF740FC054645B113
:1031E0000021A1642068FFF723FC05461DB1284695
:1031F000F0E70121A164A06C012808D1002120681A
:10320000FFF7A4FB054615B14FF08050E2E71DE043
:1032100000212068FFF79AFB05460DB12846D9E743
:1032200018492068FFF7AEFB054615B14FF08050F6
:10323000D0E700212068FFF74CFB0646012080EA1A
:10324000D67080F001070098401C00904FF6FF7187
:103250000098884201D2002FDAD04FF6FF71009813
:10326000884202D34FF08070B4E706F08040B0F19E
:10327000804F02D10120606401E0002060640020E2
:10328000A8E70000000010C17CB5044600200090B3
:10329000019000212068FFF71CFB00F00070B0F1E6
:1032A000007F02D14FF400607CBD69462046FFF7E5
:1032B0005DFE05460DB12846F6E7019800F4803022
:1032C00098B15022125B11042068FFF73FFB0546BE
:1032D0000DB12846E8E700212068FFF78DFB054681
:1032E0000DB12846E0E70020DEE74FF08060DBE725
:1032F0007CB5044600200090019000212068FFF773
:10330000E8FA00F00070B0F1007F02D14FF40060E5
:103310007CBD69462046FFF729FE05460DB12846CB
:10332000F6E7019800F4802098B15022125B110456
:103330002068FFF70BFB05460DB12846E8E70221A0
:103340002068FFF759FB05460DB12846E0E700204D
:10335000DEE74FF08060DBE7704710B5FDF70CFD4E
:1033600010BD00B595B028210BA8FCF76EFF142105
:1033700006A8FCF76AFF18216846FCF766FF0920DB
:103380000B904FF480300C9000200D9001200F9096
:10339000119002201290C1031391C10414910BA843
:1033A000FEF7B0F808B1FCF7E5FF0F200690022009
:1033B0000790002008904FF48060099000200A9048
:1033C000012106A8FDF77AFF08B1FCF7D3FF13200F
:1033D00000904FF4007001904001029000020590AF
:1033E0006846FDF7D3FE08B1FCF7C4FF15B000BD79
:1033F000704700BF00BF02680C3252E8002F22F471
:10340000907102680C3242E80013002BF3D100BF28
:1034100000BF00BF0268143252E8002F22F0010101
:103420000268143242E80013002BF3D100BF016B95
:1034300001290ED100BF00BF02680C3252E8002FF4
:1034400022F0100102680C3242E80013002BF3D185
:1034500000BF202180F84210002101637047000066
:1034600070B504462168096921F44051E2681143AE
:10347000226811612269A1681143626941EA02056B
:103480002168C96841F20C62914329432268D160E6
:103490002168496921F44071A26911432268516190
:1034A0002D4A2168914202D1FDF7E4FF01E0FDF7CA
:1034B000D1FF00EBC00101EB001162689200B1FB8B
:1034C000F2F100EBC00202EB001263689B00B2FB5A
:1034D000F3F26423B2FBF3F202EBC20303EB02123A
:1034E000A1EB8201322202EB01116422B1FBF2F165
:1034F00001F0F00100EBC00202EB001263689B00D8
:10350000B2FBF3F26423B2FBF3F201EB021200EB25
:10351000C00101EB001163689B00B1FBF3F100EB0C
:10352000C00303EB00136668B600B3FBF6F3642632
:10353000B3FBF6F303EBC30606EB0313A1EB830126
:10354000322303EB01116423B1FBF3F101F00F010E
:1035500011442268916070BD003801402DE9F843A4
:1035600004460D4617469846089E31E0701C70B31D
:10357000FDF7DAFAA0EB0800B04200D816B9032034
:10358000BDE8F8832068C06800F00400F8B1802D21
:103590001ED0402D1CD020680068C0F3C000B0B120
:1035A00000BF0020009020680068009020684068FC
:1035B000009000BF00BF2046FFF71BFF082060649B
:1035C00000BF002084F8400000BF0120D8E7FFE7DB
:1035D000206800682840A84201D1012000E00020B6
:1035E000B842C3D00020CBE710B50446002010BD80
:1035F00001460020704710B50446012024F8400F12
:1036000000202080A0802082403C10BD01464FF465
:103610003F42B1F840009043A1F8400000207047BD
:1036200002460020704700BFFEE700000248006825
:10363000C0F30220704700000CED00E010B5002838
:1036400004DB0A07130E054A135406E00A07140E9A
:10365000034A00F00F031B1FD45410BD00E400E028
:1036600018ED00E01FB5FDF793FBFFF77AFEFEF7BC
:103670007FFEFEF7F5FFFEF731FEFEF75BFEFEF77D
:10368000D1FFFFF703F8FFF723F8FFF743F8FFF741
:103690005DF8FFF777F8FFF791F85A20039014A12F
:1036A00003C9CDE901016120009013A44FF0FF335D
:1036B000012203A91448FEF7AFFD4FF0FF330522A6
:1036C00001A91148FEF7A8FD4FF0FF33012269461A
:1036D0000D48FEF7A1FD2046FCF798FD85B24FF09E
:1036E000FF332A4621460848FEF796FD00BFFEE755
:1036F000010203040500000048656C6C6F2C205724
:103700006F726C6421000000980100200203040520
:10371000060708090A0B0C0D0E0F10100102020318
:103720000405060708090A0B0C0D0E0F1010010204
:103730000000000000000000010203040607080961
:1037400000000000010203046837000800000020A8
:10375000100000006C0100087837000810000020FD
:10376000980B000088010008000000001000000015
:083770000100000000127A00C4
:0400000508000131BD
:00000001FF
