:020000040800F2
:10000000D0060020CD010008B91500082F14000803
:10001000B515000813030008E118000800000000EF
:100020000000000000000000000000005D16000855
:100030001703000800000000BD1500085F16000847
:10004000E7010008E7010008E7010008E7010008F0
:10005000E7010008E7010008E7010008E7010008E0
:10006000E7010008E7010008E7010008E7010008D0
:10007000E7010008E7010008E7010008E7010008C0
:10008000E7010008E7010008E7010008E7010008B0
:10009000E7010008E7010008E7010008E7010008A0
:1000A000E7010008E7010008E7010008E701000890
:1000B000E7010008E7010008E7010008E701000880
:1000C000E7010008E7010008E7010008E701000870
:1000D000E7010008E7010008E7010008E701000860
:1000E000E7010008E7010008E7010008E701000850
:1000F000E7010008E7010008E7010008E701000840
:10010000E7010008E7010008E7010008E70100082F
:10011000E7010008E7010008E7010008E70100081F
:10012000E7010008E7010008E7010008E70100080F
:1001300000F002F800F03AF80AA090E8000C8244BF
:100140008344AAF10107DA4501D100F02FF8AFF29C
:10015000090EBAE80F0013F0010F18BFFB1A43F0A5
:10016000010318477C1800009C180000103A24BFB7
:1001700078C878C1FAD8520724BF30C830C144BF0C
:1001800004680C607047000000230024002500264E
:10019000103A28BF78C1FBD8520728BF30C148BFEA
:1001A0000B6070471FB51FBD10B510BD00F077F88C
:1001B0001146FFF7F7FF01F0B1FB00F095F803B42B
:1001C000FFF7F2FF03BC00F09DF8000009488047EC
:1001D00009480047FEE7FEE7FEE7FEE7FEE7FEE729
:1001E000FEE7FEE7FEE7FEE704480549054A064B41
:1001F00070470000EB16000831010008D000002015
:10020000D0060020D0020020D002002010B5431CF0
:1002100002E010F8011B71B18107FAD14FF00132F1
:1002200002C88C1A8C4314EAC211F9D0C01A0A060B
:1002300003D0C01E10BDC01A10BD0A0401D0801E1C
:1002400010BD0902FCD0401E10BD4FF0000200B5E9
:10025000134694469646203922BFA0E80C50A0E8E9
:100260000C50B1F12001BFF4F7AF090728BFA0E897
:100270000C5048BF0CC05DF804EB890028BF40F863
:10028000042B08BF704748BF20F8022B11F0804FA5
:1002900018BF00F8012B70477047704770477546CC
:1002A00000F02CF8AE4605006946534620F00700E2
:1002B000854618B020B5FFF797FFBDE820404FF006
:1002C00000064FF000074FF000084FF0000B21F040
:1002D0000701AC46ACE8C009ACE8C009ACE8C0090D
:1002E000ACE8C0098D46704710B50446AFF30080F6
:1002F0002046BDE81040FFF762BF0000004870478D
:100300006C00002001491820ABBEFEE72600020069
:10031000704700BFFEE7704772B600BFFEE70000FF
:100320002DE9F847024600239C467BE14FF0010887
:1003300008FA03F4D1F8008008EA0400A0427DD155
:10034000DFF8F4A2D1F80480A8EB0A09D0453AD02E
:1003500014DCB8F1030F50D009DCB8F1000F31D034
:10036000B8F1010F1CD0B8F1020F49D120E0B8F16B
:10037000110F18D0B8F1120F42D11EE0B9F5881F45
:1003800025D006DCB9F5803F20D0B9F5801F37D1E4
:100390001AE0B9F5001F18D0B9F5041F30D117E0E5
:1003A000D1F80CC02DE0D1F80C8008F1040C28E045
:1003B000D1F80C8008F1080C23E0D1F80C8008F18A
:1003C0000C0C1EE000BF00BF00BF00BF00BF00BF9D
:1003D000D1F80880B8F1000F02D14FF0040C0BE007
:1003E000D1F80880B8F1010F03D14FF0080C146167
:1003F00002E04FF0080C546103E04FF0000C00E005
:1004000000BF00BFFF2801D8904601E002F10408B8
:100410004646FF2802D84FEA830803E0A3F1080804
:100420004FEA88084746D6F800804FF00F0909FACE
:1004300007F928EA09080CFA07F900E07AE048EA27
:100440000908C6F80080D1F8048008F08058B8F197
:10045000805F6FD100BFDFF8E481D8F8188048F0E2
:100460000108DFF8D891C9F81880C846D8F8188074
:1004700008F00108CDF8008000BF00BF4FEAB9388E
:100480004FEA930958F829504FEA83784FEA1879D0
:100490004FF00F0808FA09F825EA0805DFF8A081EF
:1004A000424502D14FF0000824E0DFF89881424530
:1004B00002D14FF001081DE0DFF88C81424502D1E6
:1004C0004FF0020816E0DFF88481424502D14FF078
:1004D00003080FE0DFF87881424502D14FF00408AD
:1004E00008E0DFF87081424502D14FF0050801E0D5
:1004F0004FF006084FEA83794FEA197908FA09F8AC
:1005000048EA0505DFF850814FEA930948F8295079
:10051000D1F8048008F48018B8F5801F0BD1DFF8FB
:100520003C81D8F8008048EA0008DFF83091C9F82B
:1005300000800AE075E0DFF82481D8F8008028EA1E
:100540000008DFF81891C9F80080D1F8048008F499
:100550000018B8F5001F0ED1DFF8008108F104087B
:10056000D8F8008048EA0008DFF8F09009F10409A3
:10057000C9F800800DE0DFF8E48008F10408D8F83D
:10058000008028EA0008DFF8D49009F10409C9F8CE
:100590000080D1F8048008F40038B8F5003F0ED18F
:1005A000DFF8B880A8F10408D8F8008048EA00080D
:1005B000DFF8A890A9F10409C9F800800DE0DFF880
:1005C0009C80A8F10408D8F8008028EA0008DFF829
:1005D0008C90A9F10409C9F80080D1F8048008F4CE
:1005E0008038B8F5803F0ED1DFF87080A8F1080898
:1005F000D8F8008048EA0008DFF86090A9F10809FF
:10060000C9F800800DE0DFF85480A8F10808D8F898
:10061000008028EA0008DFF84490A9F10809C9F829
:1006200000805B1CD1F8008028FA03F8B8F1000FB5
:100630007FF47CAEBDE8F887000011100010024086
:1006400000080140000C014000100140001401406E
:1006500000180140001C014008000140080401404E
:100660000AB1016101E00B040361704701480068B1
:100670007047000000000020034800680349097823
:10068000084401490860704700000020080000206D
:1006900010B50848006840F01000064908600320C3
:1006A00000F098F80F2000F007F800F02BF8002079
:1006B00010BD00000020024070B504460E480078CE
:1006C0004FF47A71B1FBF0F00C490968B1FBF0F519
:1006D000284600F0B3FD08B1012070BD102C07D2F0
:1006E00000222146501E00F037F80548046001E062
:1006F0000120F2E70020F0E7080000200C000020B5
:100700000400002008B500BF1148806940F00100D6
:100710000F4988610846806900F00100009000BF21
:1007200000BF00BF0846C06940F08050C86108465D
:10073000C06900F08050009000BF00BF00BF0549B5
:10074000486820F0E06040F00070486000BF08BDDD
:1007500000100240000001402DE9F05F80460D4688
:100760001646002701F0BEF8074639462A463346AA
:1007700001F00700C0F1070ABAF1040F02D94FF0E7
:10078000040A01E0C0F1070AD14600F1040ABAF1F7
:10079000070F02D24FF0000A01E0A0F1030AD4468D
:1007A0004FF0010A0AFA09FAAAF1010A0AEA020A52
:1007B0000AFA0CFA4FF0010B0BFA0CFBABF1010B30
:1007C0000BEA030B4AEA0B042146404601F092F87B
:1007D000BDE8F09F00BF00F00702064B19684FF616
:1007E000FF031940044B0B4343EA0221014B1960FC
:1007F00000BF70470CED00E00000FA050120014940
:100800000862704700000E422DE9F04706464FF09F
:100810000008002500270024A146042E37D004DC60
:10082000012E3CD0022E6CD160E0082E33D0102E69
:1008300067D136484468006800F0807008B33448D7
:10084000C4F38341475C04F4803078B12F4840689A
:10085000C0F340402F4911F8008004F4803040B1CB
:100860002D48B0FBF8F000FB07F502E02B4807FB32
:1008700000F52648406800F48000B0F5800F01D1F3
:10088000A94603E068000321B0FBF1F93AE000F06B
:10089000CBF9814636E000F0C7F9814632E01B48CB
:1008A000046A04F44070B0F5807F05D104F00200C2
:1008B00010B14FF4004918E004F44070B0F5007F27
:1008C00007D11248406A00F0020010B149F64049D1
:1008D0000BE004F44070B0F5407F06D10B4800688F
:1008E00000F4003008B14FF224490BE000F08CF91D
:1008F00006494968C1F38131491C4900B0FBF1F94F
:1009000000E000BF00BF4846BDE8F087001002408D
:10091000B6190008C619000800127A0000093D0047
:10092000F8B5044600260025207800F001000028D4
:100930006BD000274348C06900F0805070B900BFF9
:100940004048C06940F080503E49C8610846C069CF
:1009500000F08050009000BF00BF01273A480068B7
:1009600000F48070B0B93848006840F480703649AF
:100970000860FFF77BFE064606E0FFF777FE801B68
:10098000642801D90320F8BD2F48006800F4807066
:100990000028F2D02B48006A00F440752DB3A088DF
:1009A00000F44070A84220D02648006A20F4407528
:1009B000012026490860002008602248056205F0F1
:1009C000010090B1FFF752FE064608E0FFF74EFE29
:1009D000801B41F28831884201D90320D3E71948AE
:1009E000006A00F002000028F0D01648006A20F4E7
:1009F00040706168084313490862012F04D108461A
:100A0000C06920F08050C86100BF207800F002006B
:100A1000022807D10B48406820F44040A1680843F1
:100A200008494860207800F01000102807D10548D8
:100A3000406820F480006169084302494860002052
:100A4000A1E7000000100240007000404004424254
:100A500070B504460D460CB9012070BD5A480068B7
:100A600000F00700A8420ED25748006820F00700A7
:100A70002843554908600846006800F00700A8426E
:100A800001D00120E9E7207800F0020002281DD102
:100A9000207800F00400042805D14C48406840F458
:100AA000E0604A494860207800F00800082805D135
:100AB0004648406840F460504449486043484068B4
:100AC00020F0F000A168084340494860207800F019
:100AD000010078B36068012806D13C48006800F442
:100AE000003090B90120B8E76068022806D1374885
:100AF000006800F0007040B90120AEE7334800689C
:100B000000F0020008B90120A7E73048406820F053
:100B10000300616808432D494860FFF7A7FD0646BA
:100B200009E0FFF7A3FD801B41F28831884202D91A
:100B3000032092E707E02548406800F00C00616858
:100B4000B0EB810FEDD12048006800F00700A8420B
:100B50000ED91D48006820F0070028431A49086094
:100B60000846006800F00700A84201D0012074E7A1
:100B7000207800F00400042807D11448406820F4CD
:100B8000E060E168084311494860207800F00800FF
:100B9000082808D10D48406820F46050216940EAD7
:100BA000C1000A49486000F03FF808494968C1F3AC
:100BB0000311074A515CC8400649086006480068AE
:100BC000FFF77AFD002048E70020024000100240B5
:100BD000C81900080C00002004000020014800682B
:100BE000704700000C00002000B5FFF7F7FF044934
:100BF0004968C1F30221034A515CC84000BD0000AE
:100C000000100240D819000800B5FFF7E7FF0449BB
:100C10004968C1F3C221034A515CC84000BD0000CD
:100C200000100240D819000870B5002100220024ED
:100C300000230020134D696801F00C05F5B1042D67
:100C400002D0082D19D101E00F4819E00F4DC1F372
:100C50008346AB5D01F4803555B10A4D6D68C5F32F
:100C600040450B4E725D084D5D43B5FBF2F402E06A
:100C7000084D03FB05F4204602E000BF024800BF18
:100C800000BF70BD0010024000127A00A4190008D5
:100C9000B419000800093D00F8B504460CB901205C
:100CA000F8BD207800F00100002878D0F8484068AE
:100CB00000F00C0004280CD0F548406800F00C004F
:100CC000082811D1F248406800F48030B0F5803F28
:100CD0000AD1EF48006800F4003000285FD0606857
:100CE00000285CD10120DBE700BF6068B0F5803FE1
:100CF00006D1E748006840F48030E549086028E004
:100D0000606858B9E248006820F48030E049086023
:100D10000846006820F4802008601AE06068B0F59A
:100D2000A02F0BD1DA48006840F48020D849086031
:100D30000846006840F4803008600AE0D448006843
:100D400020F48030D24908600846006820F48020F2
:100D5000086000BF606888B1FFF788FC054606E0C0
:100D6000FFF784FC401B642801D9032098E7C8489A
:100D7000006800F400300028F2D010E0FFF776FCA5
:100D8000054606E0FFF772FC401B642801D90320EA
:100D900086E7BF48006800F400300028F2D12078D0
:100DA00000F00200022857D1B948406800F00C005A
:100DB00050B1B748406800F00C00082818D1B4487A
:100DC000406800F4803098B9B148006800F0020033
:100DD00020B12069012801D0012061E7AC480068FA
:100DE00020F0F800616940EAC100A949086033E0D9
:100DF0002069E8B10120A7490860FFF737FC0546E4
:100E000006E0FFF733FC401B022801D9032047E727
:100E10009F48006800F002000028F2D09C4800685B
:100E200020F0F800616940EAC1009949086013E0C8
:100E3000002098490860FFF719FC054606E0FFF717
:100E400015FC401B022801D9032029E790480068BF
:100E500000F002000028F2D1207800F008000828F5
:100E60002DD1A069B8B101208B490860FFF7FEFBC6
:100E7000054606E0FFF7FAFB401B022801D90320D4
:100E80000EE78348406A00F002000028F2D00120FB
:100E900000F096FB13E000207F490860FFF7E6FBB7
:100EA000054606E0FFF7E2FB401B022801D90320BC
:100EB000F6E67748406A00F002000028F2D1207878
:100EC00000F00400042873D100277148C06900F0C5
:100ED000805070B900BF6E48C06940F080506C49C6
:100EE000C8610846C06900F08050009000BF00BF94
:100EF00001276A48006800F48070B0B9674800684C
:100F000040F4807065490860FFF7B0FB054606E0D5
:100F1000FFF7ACFB401B642801D90320C0E65F4803
:100F2000006800F480700028F2D000BFE06801285B
:100F300006D15748006A40F001005549086227E091
:100F4000E06858B95248006A20F001005049086230
:100F50000846006A20F00400086219E0E0680528ED
:100F60000BD14B48006A40F004004949086208462A
:100F7000006A40F0010008620AE04548006A20F07B
:100F80000100434908620846006A20F00400086234
:100F900000BFE068A0B1FFF769FB054609E0FFF775
:100FA00065FB401B41F28831884202D9032077E675
:100FB00022E03748006A00F002000028EFD012E07B
:100FC000FFF754FB054608E0FFF750FB401B41F2DA
:100FD0008831884201D9032062E62D48006A00F07A
:100FE00002000028F0D1012F05D12948C06920F066
:100FF00080502749C86100BFE069C8B324484068F1
:1010000000F00C00082860D0E069022848D10020D8
:1010100020490866FFF72AFB054606E0FFF726FB96
:10102000401B022801D903203AE61948006800F065
:1010300000700028F2D1206AB0F5803F07D1144833
:10104000406820F40030A168084311494860D4E9A1
:10105000080108430E49496821F4741108430C49FA
:10106000486001200B490866FFF700FB054607E0D2
:101070003DE0FFF7FBFA401B022801D903200FE6F1
:101080000348006800F000700028F2D02FE0000054
:1010900000100240000042428004424200700040C2
:1010A000002014490866FFF7E1FA054606E0FFF75D
:1010B000DDFA401B022801D90320F1E50E48006843
:1010C00000F000700028F2D111E0E069012800D1A1
:1010D000E6E50948466806F48031206A814204D179
:1010E00006F47011606A814201D00120D8E5002029
:1010F000D6E50000000042420010024070B50446F0
:1011000000250CB9012070BD607C20B9002020743E
:10111000204600F053F802206074204600F06EF87C
:1011200018B1042060740120EDE7204600F05CFA5D
:1011300018B1042060740120E5E72068406820F0C1
:10114000070021684860A06828B11B48006820F0AB
:101150000100194908601848001F006820F46070F9
:10116000A16808431449091F08606068401C08B161
:10117000656809E00120FFF747FB05461DB904201B
:1011800060740120BFE76D1EC5F3034021688860CD
:10119000A8B22168C860204600F043FA18B10420C4
:1011A00060740120AFE70021E17301216173A17335
:1011B000012060740020A6E7306C004038B504467A
:1011C0000B492068884212D1FFF718FB00BF09487D
:1011D000C06940F000600749C8610846C06900F076
:1011E0000060009000BF00BF01200349086038BDC7
:1011F00000280040001002403C04424270B5044602
:1012000000250CB9012070BD2068406820F008005E
:1012100021684860FFF72AFA054607E0FFF726FA3B
:10122000401BB0F57A7F01D90320ECE720684068C5
:1012300000F008000028F1D00020E4E770B5044673
:101240002546681EB0F1807F01D301200FE0681EA3
:101250004FF0E02148610F214FF0FF3000F04AFBD2
:1012600000204FF0E021886107200861002070BD58
:1012700010B504460CB9012010BDA06900B100E012
:1012800000BF94F8410028B9002084F840002046AF
:1012900000F02AF8242084F841002068C06820F477
:1012A00000502168C860204600F056FA20680069A6
:1012B00020F49040216808612068406920F02A00ED
:1012C000216848612068C06840F400502168C86007
:1012D00000206064202084F8410084F8420000204F
:1012E000606300BFC8E7000010B586B00446002068
:1012F00002900390049005901A49206888422ED1EC
:1013000000BF1948806940F4804017498861084649
:10131000806900F48040019000BF00BF00BF084614
:10132000806940F0040088610846806900F004008C
:10133000019000BF00BF48150290022003900320D7
:10134000059002A90948FEF7EBFF4FF48060029078
:1013500000200390049002A90448FEF7E1FF06B0C4
:1013600010BD00000038014000100240000801409C
:101370002DE9F84F04460E46174699464FF0000AED
:1013800094F84100202850D106B117B90120BDE8DA
:10139000F88F00206064212084F84100FFF766F98F
:1013A0008246A784E784A068B0F5805F04D12069F5
:1013B00010B90025B04602E035464FF000081EE0A7
:1013C0005346002280212046CDF8009000F042FADA
:1013D00020B1202084F841000320D8E745B9B8F8AF
:1013E0000000C0F308002168486008F1020803E02B
:1013F0002878216848606D1CE08C401EE084E08CF9
:101400000028DDD15346002240212046CDF800902F
:1014100000F020FA20B1202084F841000320B6E734
:10142000202084F841000020B1E70220AFE700BF90
:10143000FEE7000000B585B0002001900290039007
:10144000049000BF3F48806940F040003D498861FA
:101450000846806900F04000009000BF00BF00BF58
:101460000846806940F0100088610846806900F0F5
:101470001000009000BF00BF00BF0846806940F028
:10148000040088610846806900F00400009000BFF5
:1014900000BF00BF0846806940F008008861084628
:1014A000806900F00800009000BF00BF01222021E9
:1014B0002548FFF7D5F8012220212448FFF7D0F86E
:1014C00000224FF480712148FFF7CAF81C200190D8
:1014D00000200290039001A91B48FEF721FF202065
:1014E000019011200290002003900220049001A995
:1014F0001548FEF715FF4FF480500190022002902E
:101500000320049001A91148FEF70AFF2020019052
:1015100011200290002003900220049001A90B48A2
:10152000FEF7FEFE4FF48070019001200290002033
:1015300003900220049001A90448FEF7F1FE05B0D3
:1015400000BD00000010024000180140000C0140E6
:1015500010B50848084908604FF0FF3048604FF464
:10156000807105488160FFF7C9FD08B1FEF7D4FE20
:1015700010BD0000002800401000002010B50B48EE
:101580000B4908604FF4E130486000210848816051
:10159000C16001610C21416100218161C161FFF7DE
:1015A00067FE08B1FEF7B8FE10BD0000003801402C
:1015B0002400002000BFFEE700BFFEE770470000E8
:1015C00008B508490968C9084FF47A72B1FBF2F10D
:1015D0004143009100BF00BF00994A1E00920029BC
:1015E000F9D108BD0C00002070B504460025FFF7B6
:1015F0003DF8054607E0FFF739F8401BB0F57A7F64
:1016000001D9032070BD2068406800F02000002848
:10161000F1D02068406840F0100021684860002048
:10162000F0E770B5044600252068406820F01000FF
:1016300021684860FFF71AF8054607E0FFF716F83B
:10164000401BB0F57A7F01D9032070BD2068406847
:1016500000F020000028F1D00020F6E7704710B518
:10166000FFF70AF810BD00B595B028210BA8FEF7CA
:10167000ECFD142106A8FEF7E8FD18216846FEF7E8
:10168000E4FD09200B904FF480300C9000200D9069
:1016900001200F90119002201290C1031391C104F8
:1016A00014910BA8FFF7F8FA08B1FEF735FE0F20EA
:1016B000069002200790002008904FF48060099067
:1016C00000200A90012106A8FFF7C2F908B1FEF731
:1016D00023FE01200090400201906846FFF720F9A8
:1016E00008B1FEF719FE15B000BD704700BF00BF7E
:1016F00002680C3252E8002F22F4907102680C321A
:1017000042E80013002BF3D100BF00BF00BF026806
:10171000143252E8002F22F001010268143242E82C
:101720000013002BF3D100BF016B01290ED100BFC4
:1017300000BF02680C3252E8002F22F0100102684C
:101740000C3242E80013002BF3D100BF202180F8B7
:10175000421000210163704770B504462168096991
:1017600021F44051E2681143226811612269A168A5
:101770001143626941EA02052168C96841F20C62BD
:10178000914329432268D1602168496921F440715D
:10179000A2691143226851612D4A2168914202D108
:1017A000FFF732FA01E0FFF71FFA00EBC00101EB8F
:1017B000001162689200B1FBF2F100EBC00202EB93
:1017C000001263689B00B2FBF3F26423B2FBF3F2F6
:1017D00002EBC20303EB0212A1EB8201322202EB05
:1017E00001116422B1FBF2F101F0F00100EBC00243
:1017F00002EB001263689B00B2FBF3F26423B2FBBE
:10180000F3F201EB021200EBC00101EB001163687F
:101810009B00B1FBF3F100EBC00303EB0013666820
:10182000B600B3FBF6F36426B3FBF6F303EBC30693
:1018300006EB0313A1EB8301322303EB01116423B5
:10184000B1FBF3F101F00F0111442268916070BD0A
:10185000003801402DE9F84304460D4617469846E6
:10186000089E31E0701C70B3FEF700FFA0EB08008B
:10187000B04200D816B90320BDE8F8832068C068DC
:1018800000F00400F8B1802D1ED0402D1CD020683F
:101890000068C0F3C000B0B100BF00200090206815
:1018A0000068009020684068009000BF00BF20469C
:1018B000FFF71CFF0820606400BF002084F8400090
:1018C00000BF0120D8E7FFE7206800682840A84251
:1018D00001D1012000E00020B842C3D00020CBE7B6
:1018E00000BFFEE702480068C0F302207047000016
:1018F0000CED00E010B5002804DB0A07130E054AC2
:10190000135406E00A07140E034A00F00F031B1FCE
:10191000D45410BD00E400E018ED00E01FB5FEF760
:10192000B7FEFFF7A0FEFFF785FDFFF711FEFFF7FB
:1019300025FE5A20039014A103C9CDE901016120BD
:10194000009013A44FF0FF33012203A91448FFF7BE
:101950000FFD4FF0FF33052201A91148FFF708FDE5
:101960004FF0FF33012269460D48FFF701FD204685
:10197000FEF74CFC85B24FF0FF332A46214608485B
:10198000FFF7F6FC00BFFEE70102030405000000BC
:1019900048656C6C6F2C20576F726C6421000000DE
:1019A0002400002002030405060708090A0B0C0D99
:1019B0000E0F1010010202030405060708090A0BA6
:1019C0000C0D0E0F101001020000000000000000BE
:1019D00001020304060708090000000001020304D5
:1019E000001A000800000020100000006C01000830
:1019F000101A000810000020C0060000880100082E
:101A000000000000100000000100000000127A0039
:0400000508000131BD
:00000001FF
