:020000040800F2
:1000000088060020CD010008891300083912000875
:1000100085130008D3020008BD140008000000008A
:100020000000000000000000000000002D14000887
:10003000D7020008000000008D1300082F140008EC
:10004000E7010008E7010008E7010008E7010008F0
:10005000E7010008E7010008E7010008E7010008E0
:10006000E7010008E7010008E7010008E7010008D0
:10007000E7010008E7010008E7010008E7010008C0
:10008000E7010008E7010008E7010008E7010008B0
:10009000E7010008E7010008E7010008E7010008A0
:1000A000E7010008E7010008E7010008E701000890
:1000B000E7010008E7010008E7010008E701000880
:1000C000E7010008E7010008E7010008E701000870
:1000D000E7010008E7010008E7010008E701000860
:1000E000E7010008E7010008E7010008E701000850
:1000F000E7010008E7010008E7010008E701000840
:10010000E7010008E7010008E7010008E70100082F
:10011000E7010008E7010008E7010008E70100081F
:10012000E7010008E7010008E7010008E70100080F
:1001300000F002F800F03AF80AA090E8000C8244BF
:100140008344AAF10107DA4501D100F02FF8AFF29C
:10015000090EBAE80F0013F0010F18BFFB1A43F0A5
:10016000010318473C1400005C140000103A24BF3F
:1001700078C878C1FAD8520724BF30C830C144BF0C
:1001800004680C607047000000230024002500264E
:10019000103A28BF78C1FBD8520728BF30C148BFEA
:1001A0000B6070471FB51FBD10B510BD00F058F8AB
:1001B0001146FFF7F7FF01F09FF900F076F803B45E
:1001C000FFF7F2FF03BC00F07DF80000094880470C
:1001D00009480047FEE7FEE7FEE7FEE7FEE7FEE729
:1001E000FEE7FEE7FEE7FEE704480549054A064B41
:1001F00070470000BB14000831010008880000208F
:100200008806002088020020880200204FF00002AB
:1002100000B5134694469646203922BFA0E80C50FC
:10022000A0E80C50B1F12001BFF4F7AF090728BFD7
:10023000A0E80C5048BF0CC05DF804EB890028BF53
:1002400040F8042B08BF704748BF20F8022B11F07C
:10025000804F18BF00F8012B7047704770477047F8
:10026000754600F02BF8AE4605006946534620F06F
:100270000700854618B020B5FFF7B6FFBDE820405F
:100280004FF000064FF000074FF000084FF0000B52
:1002900021F00701AC46ACE8C009ACE8C009ACE805
:1002A000C009ACE8C0098D46704710B50446AFF3ED
:1002B00000802046BDE81040FFF781BF004870472E
:1002C0002400002001491820ABBEFEE726000200F2
:1002D000704700BFFEE7704772B600BFFEE7000040
:1002E00070B5044600F0B6F906462546681C10B104
:1002F00004480078054400BF00F0ACF9801BA84218
:10030000FAD370BD080000202DE9F847024600230B
:100310009C467BE14FF0010808FA03F4D1F8008015
:1003200008EA0400A0427DD1DFF8F4A2D1F80480ED
:10033000A8EB0A09D0453AD014DCB8F1030F50D02D
:1003400009DCB8F1000F31D0B8F1010F1CD0B8F1C1
:10035000020F49D120E0B8F1110F18D0B8F1120FF7
:1003600042D11EE0B9F5881F25D006DCB9F5803FE3
:1003700020D0B9F5801F37D11AE0B9F5001F18D089
:10038000B9F5041F30D117E0D1F80CC02DE0D1F839
:100390000C8008F1040C28E0D1F80C8008F1080C5E
:1003A00023E0D1F80C8008F10C0C1EE000BF00BF68
:1003B00000BF00BF00BF00BFD1F80880B8F1000F38
:1003C00002D14FF0040C0BE0D1F80880B8F1010F16
:1003D00003D14FF0080C146102E04FF0080C546197
:1003E00003E04FF0000C00E000BF00BFFF2801D881
:1003F000904601E002F104084646FF2802D84FEA81
:10040000830803E0A3F108084FEA88084746D6F8B6
:1004100000804FF00F0909FA07F928EA09080CFAD9
:1004200007F900E07AE048EA0908C6F80080D1F848
:10043000048008F08058B8F1805F6FD100BFDFF80A
:10044000E481D8F8188048F00108DFF8D891C9F89D
:100450001880C846D8F8188008F00108CDF8008048
:1004600000BF00BF4FEAB9384FEA930958F8295046
:100470004FEA83784FEA18794FF00F0808FA09F825
:1004800025EA0805DFF8A081424502D14FF00008B7
:1004900024E0DFF89881424502D14FF001081DE0C9
:1004A000DFF88C81424502D14FF0020816E0DFF8F8
:1004B0008481424502D14FF003080FE0DFF87881D4
:1004C000424502D14FF0040808E0DFF87081424550
:1004D00002D14FF0050801E04FF006084FEA83799A
:1004E0004FEA197908FA09F848EA0505DFF850815A
:1004F0004FEA930948F82950D1F8048008F480188D
:10050000B8F5801F0BD1DFF83C81D8F8008048EAAD
:100510000008DFF83091C9F800800AE075E0DFF8E4
:100520002481D8F8008028EA0008DFF81891C9F87B
:100530000080D1F8048008F40018B8F5001F0ED12F
:10054000DFF8008108F10408D8F8008048EA0008C4
:10055000DFF8F09009F10409C9F800800DE0DFF838
:10056000E48008F10408D8F8008028EA0008DFF8E1
:10057000D49009F10409C9F80080D1F8048008F486
:100580000038B8F5003F0ED1DFF8B880A8F10408B4
:10059000D8F8008048EA0008DFF8A890A9F104091B
:1005A000C9F800800DE0DFF89C80A8F10408D8F8B5
:1005B000008028EA0008DFF88C90A9F10409C9F846
:1005C0000080D1F8048008F48038B8F5803F0ED15F
:1005D000DFF87080A8F10808D8F8008048EA000821
:1005E000DFF86090A9F10809C9F800800DE0DFF894
:1005F0005480A8F10808D8F8008028EA0008DFF83D
:100600004490A9F10809C9F800805B1CD1F800806A
:1006100028FA03F8B8F1000F7FF47CAEBDE8F88744
:10062000000011100010024000080140000C0140C1
:10063000001001400014014000180140001C01405E
:1006400008000140080401400AB1016101E00B0407
:1006500003617047014800687047000000000020F7
:100660000348006803490978084401490860704755
:10067000000000200800002010B50848006840F085
:10068000100006490860032000F098F80F2000F0E1
:1006900007F800F02BF8002010BD000000200240F9
:1006A00070B504460E4800784FF47A71B1FBF0F053
:1006B0000C490968B1FBF0F5284600F0A3FD08B12C
:1006C000012070BD102C07D200222146501E00F0E0
:1006D00037F80548046001E00120F2E70020F0E768
:1006E000080000200C0000200400002008B500BF16
:1006F0001148806940F001000F498861084680690F
:1007000000F00100009000BF00BF00BF0846C069B4
:1007100040F08050C8610846C06900F080500090E9
:1007200000BF00BF00BF0549486820F0E06040F00E
:100730000070486000BF08BD00100240000001408A
:100740002DE9F05F80460D461646002700F0B8FE02
:10075000074639462A46334601F00700C0F1070A2A
:10076000BAF1040F02D94FF0040A01E0C0F1070A00
:10077000D14600F1040ABAF1070F02D24FF0000A85
:1007800001E0A0F1030AD4464FF0010A0AFA09FA7F
:10079000AAF1010A0AEA020A0AFA0CFA4FF0010B5E
:1007A0000BFA0CFBABF1010B0BEA030B4AEA0B044F
:1007B0002146404600F08CFEBDE8F09F00BF00F0EF
:1007C0000702064B19684FF6FF031940044B0B4311
:1007D00043EA0221014B196000BF70470CED00E0B5
:1007E0000000FA05012001490862704700000E422E
:1007F0002DE9F04706464FF00008002500270024A9
:10080000A146042E37D004DC012E3CD0022E6CD140
:1008100060E0082E33D0102E67D136484468006857
:1008200000F0807008B33448C4F38341475C04F49B
:10083000803078B12F484068C0F340402F4911F80C
:10084000008004F4803040B12D48B0FBF8F000FB8C
:1008500007F502E02B4807FB00F52648406800F446
:100860008000B0F5800F01D1A94603E068000321A4
:10087000B0FBF1F93AE000F0BBF9814636E000F058
:10088000B7F9814632E01B48046A04F44070B0F5C1
:10089000807F05D104F0020010B14FF4004918E048
:1008A00004F44070B0F5007F07D11248406A00F0B0
:1008B000020010B149F640490BE004F44070B0F575
:1008C000407F06D10B48006800F4003008B14FF2B9
:1008D00024490BE000F07CF906494968C1F38131F5
:1008E000491C4900B0FBF1F900E000BF00BF4846D9
:1008F000BDE8F08700100240761500088615000854
:1009000000127A0000093D00F8B5044600260025D3
:10091000207800F0010000286BD000274348C06910
:1009200000F0805070B900BF4048C06940F080506E
:100930003E49C8610846C06900F08050009000BF81
:1009400000BF01273A48006800F48070B0B9384809
:10095000006840F4807036490860FFF77BFE064669
:1009600006E0FFF777FE801B642801D90320F8BD5D
:100970002F48006800F480700028F2D02B48006AED
:1009800000F440752DB3A08800F44070A84220D038
:100990002648006A20F4407501202649086000209E
:1009A00008602248056205F0010090B1FFF752FE91
:1009B000064608E0FFF74EFE801B41F28831884270
:1009C00001D90320D3E71948006A00F0020000288B
:1009D000F0D01648006A20F440706168084313495B
:1009E0000862012F04D10846C06920F08050C86118
:1009F00000BF207800F00200022807D10B484068B1
:100A000020F44040A168084308494860207800F07D
:100A10001000102807D10548406820F48000616963
:100A20000843024948600020A1E70000001002408E
:100A3000007000404004424270B504460D460CB9B7
:100A4000012070BD5A48006800F00700A8420ED28D
:100A50005748006820F007002843554908600846B9
:100A6000006800F00700A84201D00120E9E72078E3
:100A700000F0020002281DD1207800F004000428B4
:100A800005D14C48406840F4E0604A49486020780D
:100A900000F00800082805D14648406840F460503E
:100AA000444948604348406820F0F000A16808438A
:100AB00040494860207800F0010078B36068012860
:100AC00006D13C48006800F4003090B90120B8E736
:100AD0006068022806D13748006800F0007040B90D
:100AE0000120AEE73348006800F0020008B9012099
:100AF000A7E73048406820F00300616808432D49AB
:100B00004860FFF7A7FD064609E0FFF7A3FD801B3D
:100B100041F28831884202D9032092E707E0254854
:100B2000406800F00C006168B0EB810FEDD1204807
:100B3000006800F00700A8420ED91D48006820F0A8
:100B4000070028431A4908600846006800F00700BB
:100B5000A84201D0012074E7207800F004000428A6
:100B600007D11448406820F4E060E1680843114967
:100B70004860207800F00800082808D10D48406837
:100B800020F46050216940EAC1000A49486000F041
:100B90002FF808494968C1F30311074A515CC8405E
:100BA0000649086006480068FFF77AFD002048E71C
:100BB0000020024000100240881500080C000020B0
:100BC0000400002001480068704700000C0000206D
:100BD00000B5FFF7F7FF04494968C1F3C221034A92
:100BE000515CC84000BD000000100240981500088C
:100BF00070B500210022002400230020134D6968F5
:100C000001F00C05F5B1042D02D0082D19D101E039
:100C10000F4819E00F4DC1F38346AB5D01F48035F9
:100C200055B10A4D6D68C5F340450B4E725D084DD8
:100C30005D43B5FBF2F402E0084D03FB05F42046EA
:100C400002E000BF024800BF00BF70BD00100240BC
:100C500000127A00641500087415000800093D00B0
:100C6000F8B504460CB90120F8BD207800F0010069
:100C7000002878D0F848406800F00C0004280CD018
:100C8000F548406800F00C00082811D1F24840688F
:100C900000F48030B0F5803F0AD1EF48006800F4DE
:100CA000003000285FD0606800285CD10120DBE7BD
:100CB00000BF6068B0F5803F06D1E748006840F4A7
:100CC0008030E549086028E0606858B9E24800686B
:100CD00020F48030E04908600846006820F4802055
:100CE00008601AE06068B0F5A02F0BD1DA48006800
:100CF00040F48020D84908600846006840F48030FD
:100D000008600AE0D448006820F48030D2490860C6
:100D10000846006820F48020086000BF606888B141
:100D2000FFF798FC054606E0FFF794FC401B64289B
:100D300001D9032098E7C848006800F40030002873
:100D4000F2D010E0FFF786FC054606E0FFF782FCD4
:100D5000401B642801D9032086E7BF48006800F4DF
:100D600000300028F2D1207800F00200022857D18C
:100D7000B948406800F00C0050B1B748406800F036
:100D80000C00082818D1B448406800F4803098B9A5
:100D9000B148006800F0020020B12069012801D0AC
:100DA000012061E7AC48006820F0F800616940EA82
:100DB000C100A949086033E02069E8B10120A749D2
:100DC0000860FFF747FC054606E0FFF743FC401BC1
:100DD000022801D9032047E79F48006800F002007D
:100DE0000028F2D09C48006820F0F800616940EAD1
:100DF000C1009949086013E0002098490860FFF796
:100E000029FC054606E0FFF725FC401B022801D916
:100E1000032029E79048006800F002000028F2D182
:100E2000207800F0080008282DD1A069B8B1012071
:100E30008B490860FFF70EFC054606E0FFF70AFC49
:100E4000401B022801D903200EE78348406A00F0C6
:100E500002000028F2D0012000F09AFA13E00020EE
:100E60007F490860FFF7F6FB054606E0FFF7F2FB57
:100E7000401B022801D90320F6E67748406A00F0BB
:100E800002000028F2D1207800F00400042873D179
:100E900000277148C06900F0805070B900BF6E48EB
:100EA000C06940F080506C49C8610846C06900F0D4
:100EB0008050009000BF00BF01276A48006800F41E
:100EC0008070B0B96748006840F480706549086078
:100ED000FFF7C0FB054606E0FFF7BCFB401B64289C
:100EE00001D90320C0E65F48006800F48070002844
:100EF000F2D000BFE068012806D15748006A40F0F0
:100F000001005549086227E0E06858B95248006A74
:100F100020F00100504908620846006A20F00400F1
:100F2000086219E0E06805280BD14B48006A40F0E0
:100F30000400494908620846006A40F0010008625E
:100F40000AE04548006A20F001004349086208466B
:100F5000006A20F00400086200BFE068A0B1FFF75B
:100F600079FB054609E0FFF775FB401B41F288312C
:100F7000884202D9032077E622E03748006A00F071
:100F800002000028EFD012E0FFF764FB054608E0FE
:100F9000FFF760FB401B41F28831884201D90320F2
:100FA00062E62D48006A00F002000028F0D1012F0F
:100FB00005D12948C06920F080502749C86100BF89
:100FC000E069C8B32448406800F00C00082860D0ED
:100FD000E069022848D1002020490866FFF73AFB63
:100FE000054606E0FFF736FB401B022801D9032027
:100FF0003AE61948006800F000700028F2D1206A33
:10100000B0F5803F07D11448406820F40030A16853
:10101000084311494860D4E9080108430E4949686A
:1010200021F4741108430C49486001200B490866FB
:10103000FFF710FB054607E03DE0FFF70BFB401B09
:10104000022801D903200FE60348006800F0007071
:101050000028F2D02FE000000010024000004242C1
:101060008004424200700040002014490866FFF7E7
:10107000F1FA054606E0FFF7EDFA401B022801D918
:101080000320F1E50E48006800F000700028F2D15E
:1010900011E0E069012800D1E6E50948466806F458
:1010A0008031206A814204D106F47011606A814265
:1010B00001D00120D8E50020D6E500000000424222
:1010C0000010024070B5044600250CB9012070BD27
:1010D000607C20B900202074204600F053F80220E4
:1010E0006074204600F06EF818B10420607401208E
:1010F000EDE7204600F060F918B10420607401208B
:10110000E5E72068406820F0070021684860A06893
:1011100028B11B48006820F00100194908601848F0
:10112000001F006820F46070A16808431449091F7B
:1011300008606068401C08B1656809E00120FFF79D
:1011400057FB05461DB9042060740120BFE76D1EE2
:10115000C5F3034021688860A8B22168C8602046B2
:1011600000F047F918B1042060740120AFE70021B6
:10117000E17301216173A173012060740020A6E76F
:10118000306C004038B504460B492068884212D1C3
:10119000FFF728FB00BF0948C06940F0006007491D
:1011A000C8610846C06900F00060009000BF00BF41
:1011B00001200349086038BD0028004000100240AB
:1011C0003C04424270B5044600250CB9012070BDB4
:1011D0002068406820F0080021684860FFF73AFA6C
:1011E000054607E0FFF736FA401BB0F57A7F01D9D4
:1011F0000320ECE72068406800F008000028F1D0E8
:101200000020E4E770B504462546681EB0F1807FF3
:1012100001D301200FE0681E4FF0E02148610F214B
:101220004FF0FF3000F054F900204FF0E0218861CA
:1012300007200861002070BD00BFFEE700B585B043
:101240000020019002900390049000BF3F48806905
:1012500040F040003D4988610846806900F0400048
:10126000009000BF00BF00BF0846806940F010003A
:1012700088610846806900F01000009000BF00BF40
:1012800000BF0846806940F0040088610846806914
:1012900000F00400009000BF00BF00BF0846806956
:1012A00040F0080088610846806900F0080000905E
:1012B00000BF00BF012220212548FFF7C5F9012208
:1012C00020212448FFF7C0F900224FF48071214803
:1012D000FFF7BAF91C20019000200290039001A9A9
:1012E0001B48FFF711F820200190112002900020E8
:1012F00003900220049001A91548FFF705F84FF468
:1013000080500190022002900320049001A911480E
:10131000FEF7FAFF20200190112002900020039098
:101320000220049001A90B48FEF7EEFF4FF48070F5
:10133000019001200290002003900220049001A956
:101340000448FEF7E1FF05B000BD000000100240B8
:1013500000180140000C014010B508480849086019
:101360004FF0FF3048604FF4807105488160FFF70F
:10137000A9FE08B1FEF7B0FF10BD00000028004034
:101380001000002000BFFEE700BFFEE7704700002E
:1013900008B508490968C9084FF47A72B1FBF2F13F
:1013A0004143009100BF00BF00994A1E00920029EE
:1013B000F9D108BD0C00002070B504460025FFF7E8
:1013C00049F9054607E0FFF745F9401BB0F57A7F7C
:1013D00001D9032070BD2068406800F0200000287B
:1013E000F1D02068406840F010002168486000207B
:1013F000F0E770B5044600252068406820F0100032
:1014000021684860FFF726F9054607E0FFF722F953
:10141000401BB0F57A7F01D9032070BD2068406879
:1014200000F020000028F1D00020F6E7704710B54A
:10143000FFF716F910BD00B595B028210BA8FEF7EF
:10144000E5FE142106A8FEF7E1FE18216846FEF726
:10145000DDFE09200B904FF480300C9000200D90A1
:1014600001200F90119002201290C1031391C1042A
:1014700014910BA8FFF7F4FB08B1FEF72DFF0F2026
:10148000069002200790002008904FF48060099099
:1014900000200A90012106A8FFF7CEFA08B1FEF756
:1014A0001BFF01200090400201906846FFF72CFAD4
:1014B00008B1FEF711FF15B000BD704700BFFEE791
:1014C00002480068C0F30220704700000CED00E005
:1014D00010B5002804DB0A07130E054A135406E072
:1014E0000A07140E034A00F00F031B1FD45410BD4B
:1014F00000E400E018ED00E0FFF7BEF8FFF79BFF07
:10150000FFF79CFEFFF728FF26E00022202113486A
:10151000FFF79AF8002220211148FFF795F80022E2
:101520004FF480710D48FFF78FF84FF47A70FEF793
:10153000D7FE012220210948FFF786F80122202149
:101540000748FFF781F8012211020448FFF77CF8F1
:101550004FF47A70FEF7C4FED7E70000000C01409C
:101560000018014002030405060708090A0B0C0DC8
:101570000E0F1010010202030405060708090A0BEA
:101580000C0D0E0F10100102000000000000000002
:101590000102030406070809000000000102030419
:1015A000C015000800000020100000006C010008B9
:1015B000D0150008100000207806000088010008FF
:1015C00000000000100000000100000000127A007E
:0400000508000131BD
:00000001FF
