:020000040800F2
:1000000018070020CD0100082D180008511600081F
:1000100015180008D3020008191C00080000000091
:100020000000000000000000000000009B18000815
:10003000D5020008000000002F1800089D180008D5
:10004000E7010008E7010008E7010008E7010008F0
:10005000E7010008E7010008E7010008E7010008E0
:10006000E7010008E7010008E7010008E7010008D0
:10007000E7010008E7010008E7010008E7010008C0
:10008000E7010008E7010008E7010008E7010008B0
:10009000E7010008E7010008E7010008E7010008A0
:1000A000E701000821190008E7010008E70100083E
:1000B000E7010008E7010008E7010008E701000880
:1000C000E7010008E7010008E7010008E701000870
:1000D000E70100080D1C0008E7010008E70100081F
:1000E000E7010008E7010008E7010008E701000850
:1000F000E7010008E7010008E7010008E701000840
:10010000E7010008E7010008E7010008E70100082F
:10011000E7010008E7010008E7010008E70100081F
:10012000E7010008E7010008E7010008E70100080F
:1001300000F002F800F03AF80AA090E8000C8244BF
:100140008344AAF10107DA4501D100F02FF8AFF29C
:10015000090EBAE80F0013F0010F18BFFB1A43F0A5
:1001600001031847601B0000801B0000103A24BFE9
:1001700078C878C1FAD8520724BF30C830C144BF0C
:1001800004680C607047000000230024002500264E
:10019000103A28BF78C1FBD8520728BF30C148BFEA
:1001A0000B6070471FB51FBD10B510BD00F058F8AB
:1001B0001146FFF7F7FF01F041FD00F076F803B4B8
:1001C000FFF7F2FF03BC00F07DF80000094880470C
:1001D00009480047FEE7FEE7FEE7FEE7FEE7FEE729
:1001E000FEE7FEE7FEE7FEE704480549054A064B41
:1001F000704700001F190008310100081801002095
:100200001807002018030020180300204FF00002F8
:1002100000B5134694469646203922BFA0E80C50FC
:10022000A0E80C50B1F12001BFF4F7AF090728BFD7
:10023000A0E80C5048BF0CC05DF804EB890028BF53
:1002400040F8042B08BF704748BF20F8022B11F07C
:10025000804F18BF00F8012B7047704770477047F8
:10026000754600F02BF8AE4605006946534620F06F
:100270000700854618B020B5FFF7B6FFBDE820405F
:100280004FF000064FF000074FF000084FF0000B52
:1002900021F00701AC46ACE8C009ACE8C009ACE805
:1002A000C009ACE8C0098D46704710B50446AFF3ED
:1002B00000802046BDE81040FFF781BF004870472E
:1002C000B800002001491820ABBEFEE7260002005E
:1002D0007047FEE7704772B6FEE710B590F8211040
:1002E0000022022905D00421816380F8202001200A
:1002F00010BD01680B6823F00E030B6001680B68EA
:1003000023F001030B6090F84030C46B012101FA27
:1003100003F3636080F8211080F82020104610BDA0
:100320002DE9F05F90F821100024022903D0042168
:100330008163012485E001680A6822F00E020A60E8
:1003400001680A6822F001020A603F4E3E4FB21572
:10035000DFF8F4C0DFF8F090DFF8ECA0DFF8E8B0E9
:10036000DFF8E4E00168783F13011502ACF1640C9A
:10037000A9F15009AAF13C0AABF1280BAEF1140E19
:100380004FF48018B14227D9B9420ED0614512D03E
:1003900049451DD0514518D0594518D0714501D156
:1003A000424615E0294EB14201D1012210E0274E0C
:1003B0001436B14201D110220AE0244E2836B1424F
:1003C00006D0224A3C32914201D11A4600E02A4628
:1003D0001E49091F0A602BE0B94213D0614517D0AE
:1003E000494522D051451DD059451DD0714501D1F7
:1003F00042461AE0B14202D14FF0807215E0134E2E
:10040000B14201D1012210E0104E1436B14201D1A7
:1004100010220AE00D4E2836B14206D00B4A3C327B
:10042000914201D11A4600E02A46074980394A60C4
:10043000012180F82110002180F82010416B01B1CA
:1004400088472046BDE8F09F800002400804024033
:100450002DE9F84FDFF8C8910024A9F1040B2346D9
:100460000F2709F1040AABF1040ED1E00125A540E4
:1004700006EA0502AA4276D1DFF8A8C14E68A6EBCB
:100480000C0866452BD00DDC032E34D005DC36B3CA
:10049000012E19D0022E2FD11BE0112E16D0122EB4
:1004A0002AD119E0B8F5881F19D006DCB8F5803FCD
:1004B00015D0B8F5801F1FD111E0B8F5001F0ED080
:1004C000B8F5041F18D10AE0CB6815E0CB681B1DF6
:1004D00012E0CB6808330FE0CB680C330CE08B687C
:1004E0002BB1012B4FF0080303D0456104E0042336
:1004F00002E0056100E00023FF2A01D8064601E082
:1005000000F104064FEA840501D9A5F12005D6F8CB
:10051000008007FA05FC28EA0C0803FA05F548EA0A
:100520000508C6F800804D68ED0070D53E4DAE69F7
:1005300046F00106AE61AD6924F0030605F0010541
:1005400000953A4D06EB050CDCF80850A607360F6F
:1005500007FA06F825EA0805DFF8D480404503D1FC
:100560004FF0000825E052E0DFF8C880404502D196
:100570004FF001081DE0DFF8C080404502D14FF088
:10058000020816E0DFF8B480404502D14FF00308BE
:100590000FE0DFF8AC80404502D14FF0040808E0DE
:1005A000DFF8A080404502D14FF0050801E04FF090
:1005B000060808FA06F848EA0508CCF808804D68ED
:1005C000D9F80060ED024D4601D5164300E0964390
:1005D0002E604D68DAF80060AD02554601D516432D
:1005E00000E096432E604D68DBF80060AD035D4689
:1005F00001D5164300E096432E604D68DEF800609A
:10060000ED03754601D5164300E096432E60641C49
:100610000A681646E2407FF429AFBDE8F88F000073
:1006200008040140000011100010024000000140C9
:1006300000080140000C014000100140001401407E
:1006400000180140001C01400AB101617047090413
:10065000FBE70000014880687047000004000020AC
:1006600002488168027811448160704704000020CC
:10067000074810B5016841F010010160032000F047
:1006800075F80F2000F006F800F024F8002010BDE7
:100690000020024070B50D4D04464FF47A71287861
:1006A000B1FBF0F00A490968B1FBF0F000F035FC4D
:1006B00048B9102C07D200222146501E00F036F80F
:1006C00000206C6070BD012070BD0000040000209F
:1006D000100000200C4808B5816941F001018161DA
:1006E000816901F001010091C16941F08051C1614E
:1006F000C06900F0805000900448416821F0E0613A
:1007000041F00071416008BD00100240000001404E
:10071000002809DB00F01F02012191404009800000
:1007200000F1E020C0F8001170470000F0B40E4B5B
:100730001B680C46C3F30223C3F10705042D00D93F
:100740000425191D072901D2002300E0DB1E012624
:1007500006FA05F1491E214099409E40761E16403A
:100760003143F0BC01F059BA0CED00E0064900F04D
:10077000070208684FF6FF03184040EA0220034AC8
:1007800010430860704700000CED00E00000FA051F
:10079000014901200862704700000E4210B5014671
:1007A0000020284C04292FD00BDC012930D002294D
:1007B00029D100F06BF96168C1F38131491C49000E
:1007C0001FE0082920D010291DD161682268D201BC
:1007D00019D51D48C1F38342C903805C0AD56168FD
:1007E000194AC1F34041921E515C184AB2FBF1F123
:1007F000484301E0164948436168490203D4400078
:100800000321B0FBF1F010BDBDE8104000F04EB97F
:10081000226AC2F30121012903D1920701D5C8033D
:1008200010BD022905D1626A920702D549F64040FF
:1008300010BD0329FCD121688903F9D54FF224406A
:1008400010BD0000001002409C1C000800127A003D
:1008500000093D002DE9F84305460078354CC007F6
:1008600054D0E0690026C00008D4E06940F0805010
:10087000E061E069012600F0805000902E48016898
:10088000C90512D40168804641F480710160FFF708
:10089000E1FE074605E000BFFFF7DCFEC01B642851
:1008A00023D8D8F80000C005F6D5206A10F44070AF
:1008B00021D0A98801F4407181421CD0206A1F49CF
:1008C000012220F440700A6000220A602062C00702
:1008D00011D0FFF7BFFE074641F2883808E000BF9D
:1008E000FFF7B8FEC11B414502D90320BDE8F883DC
:1008F000206A8007F4D5206A696820F440700843B4
:1009000020621EB1E06920F08050E0612878800705
:1009100005D56068A96820F44040084360602878E5
:10092000C00605D56068696920F4800008436060EE
:100930000020DBE70010024000700040400442420B
:100940002DE9F0470F46050061D0434E306800F0B6
:100950000700B84209D2306820F007003843306001
:10096000306800F00700B84251D128683B4C81073D
:1009700012D5400703D5606840F4E06060602878D5
:10098000000703D5606840F4605060606068A96843
:1009900020F0F000084360602878C00728D068681D
:1009A000012810D02168022810D0890700292EDAEA
:1009B000616821F0030101436160FFF74BFE80464F
:1009C00041F288390DE021688903EFE78901EDE7FD
:1009D000FFF740FEA0EB0801494502D90320BDE81E
:1009E000F0876068696800F00C00B0EB810FEFD110
:1009F000306800F00700B8420BD9306820F00700DB
:100A000038433060306800F00700B84201D0012060
:100A1000E5E72878400705D56068E96820F4E060DC
:100A2000084360602878000706D56068296920F4CB
:100A3000605040EAC100606000F038F86168084A20
:100A4000C1F30311515CC8400649086006480068BC
:100A5000FFF720FE0020C2E7002002400010024005
:100A6000AC1C0008100000200800002004480549C4
:100A700000684968044AC1F30221515CC8407047CC
:100A80001000002000100240BC1C0008044805496A
:100A900000684968044AC1F3C221515CC8407047EC
:100AA0001000002000100240BC1C00080E4A5168D3
:100AB0000E4801F00C03042B11D0082B0FD10C4869
:100AC000C1F38343C903C05C0AD55168084AC1F326
:100AD0004041921E515C054A5043B0FBF1F0704713
:100AE00004494843704700000010024000127A0099
:100AF0008A1C000800093D002DE9F84F040070D061
:100B00002078C04DC00749D06868C0F38100012833
:100B100007D06868C0F38100022809D16868C00363
:100B200006D52868800339D560680028E7D035E00D
:100B30006068B0F5803F0BD010B1B0F5A02F11D098
:100B4000286820F480302860286820F4802002E0A3
:100B5000286840F480302860606890B1FFF77AFD23
:100B600006460AE0286840F480202860F0E700BFCD
:100B7000FFF770FD801B642873D828688003F7D5C1
:100B80000CE0FFF767FD064605E000BFFFF762FDDA
:100B9000801B6428F0D828688003F7D420789A4E08
:100BA00080074FF001094FF0000839D5686810F050
:100BB0000C0F07D06868C0F38100022809D168686B
:100BC000C00306D42868800714D52069012808D1FD
:100BD00010E02069B0B1C6F80090FFF73BFD074672
:100BE00005E00AE1FFF736FDC01B0228C4D82868DB
:100BF0008007F7D52868616920F0F80040EAC10055
:100C000028600DE0C6F80080FFF724FD074604E0E9
:100C1000FFF720FDC01B022823D828688007F7D4DF
:100C2000207800072CD57948A169D9B1C0F8009087
:100C3000FFF710FD074604E0FFF70CFDC01B02287C
:100C40000FD8686A8007F7D571484FF4FA510068E9
:100C5000B0FBF1F0009000BF0098411E0091FAD265
:100C60000EE080E0C0F80080FFF7F4FC074604E0E7
:100C7000FFF7F0FCC01B022875D8686A8007F7D41C
:100C80002078400760D5E8690027C00008D4E869EB
:100C900040F08050E861E869012700F08050009042
:100CA0005C480168C90513D40168834641F480712A
:100CB0000160FFF7CFFC824606E000BFFFF7CAFCE9
:100CC000A0EB0A0064284ED8DBF80000C005F5D57B
:100CD000E06801280AD008B1052813D0286A20F05E
:100CE00001002862286A20F0040002E0286A40F02F
:100CF00001002862E06841F2883B98B1FFF7AAFC46
:100D000082460BE0286A40F004002862EEE700BF4C
:100D1000FFF7A0FCA0EB0A0159455AD8286A8007C2
:100D2000F6D50CE0FFF796FC824605E0FFF792FC53
:100D3000A0EB0A0159454CD8286A8007F6D41FB1A8
:100D4000E86920F08050E861E06988B36968C1F320
:100D50008101022944D00228C6F8608004D0FFF740
:100D600079FC044638E034E0FFF774FC074604E001
:100D7000FFF770FCC01B02282BD828688001F7D42D
:100D8000206AB0F5803F05D16868A16820F4003082
:100D900008436860D4E908010843696821F47411C4
:100DA00008436860C6F86090FFF754FC044606E00C
:100DB00025E000BFFFF74EFC001B022809D8286879
:100DC0008001F7D51BE000BFFFF744FC001B0228A1
:100DD00002D90320BDE8F88F28688001F4D40EE022
:100DE0000128F7D06868226A00F48031914204D16A
:100DF000616A00F47010884201D00120EAE7002007
:100E0000E8E7000000100240000042428004424235
:100E1000100000200070004070B5040003D0607C1A
:100E2000002610B105E0012070BD2674204600F0B8
:100E30003DF802206074204600F052F8042550BBB3
:100E4000204600F0F5FC30BB2068416821F0070126
:100E50004160A06820B11448016821F001010160DF
:100E60001148001F0168A26821F4607111430160FC
:100E70006068411C04D10120FFF790FC58B1401E6E
:100E80002268C0F303419160216880B2C8602046A7
:100E900000F0E8FC08B16574C5E7E67301206073F3
:100EA000A0736074002070BD306C004008B500680D
:100EB000084988420DD1FFF76BFC0748C16941F032
:100EC0000061C161C069054900F000600090012027
:100ED000086008BD00280040001002403C04424267
:100EE00070B504000AD02068416821F00801416013
:100EF000FFF7B0FB05464FF47A7608E0012070BD9D
:100F0000FFF7A8FB401BB04201D9032070BD206849
:100F100040680007F4D5002070BD10B5401EB0F148
:100F2000807F01D3012010BD4FF0E02460610F21CC
:100F3000601700F072FE0020A061072020610020F1
:100F400010BD70477047000070B590F83C20012A32
:100F50002CD0012480F83C40022280F83D20036818
:100F60005A689D6822F070060A6832435A60104B36
:100F700002689A420ED00F4B9A420BD0B2F1804FCA
:100F800008D00D4B9A4205D00C4B9A4202D00C4B24
:100F90009A4204D1496825F080031943916080F892
:100FA0003D40002180F83C10084670BD022070BD15
:100FB000002C0140003401400004004000080040C3
:100FC000000C004010B5040003D094F83D0010B1AF
:100FD00007E0012010BD002084F83C00204600F00E
:100FE0001FF8022084F83D00211D206800F09EFCBF
:100FF000012084F8460084F83E0084F83F0084F81D
:10100000400084F8410084F8420084F8430084F8EA
:10101000440084F8450084F83D00002010BD000025
:1010200008B500680B49884212D10B48816941F428
:10103000006181618069002200F400600090114627
:101040001920FFF773FBBDE808401920FFF760BBCC
:1010500008BD0000002C01400010024090F83D1037
:10106000012901D001207047022180F83D1001685C
:10107000CA6842F00102CA6000680E4988420ED078
:101080000D4988420BD0B0F1804F08D00B498842FF
:1010900005D00B49884202D00A49884204D18168B0
:1010A00001F00701062903D0016841F00101016048
:1010B00000207047002C0140003401400004004033
:1010C00000080040000C004070B5044690F83C0059
:1010D0000025012817D0012684F83C60022084F8FE
:1010E0003D002068826822F0770222F47F4282600D
:1010F0000868502838D00DDC20284FD005DC90B38C
:10110000102811D14AE0022070BD302846D0402876
:101110000AD13BE060282FD070280DD0B0F5805F59
:1011200003D0B0F5005F12D0012584F83D600020A7
:1011300084F83C00284670BDCB68D1E901212068C5
:1011400000F042FC2068816841F0770109E0CB683B
:10115000D1E90121206800F037FC2068816841F462
:1011600080418160E1E719E0CA684968206800F0C1
:101170003DFC5021206806E0CA684968206800F0FC
:1011800046FC6021206800F029FCCEE7CA68496867
:10119000206800F02BFC40212068F4E7226801461B
:1011A0001046F0E770472DE9F04104460068C66834
:1011B00005694FF00007A90713D5B10711D5F91E2E
:1011C000016101202077206880698007204602D0D5
:1011D000FFF7E8FF04E000F07EF8204600F07CF81E
:1011E0002777680716D5700714D521686FF00400BB
:1011F0000861022020772068806910F4407F204633
:1012000002D0FFF7CFFF04E000F065F8204600F0C1
:1012100063F82777280715D5300713D521686FF0B5
:1012200008000861042020772068C06980072046F4
:1012300002D0FFF7B7FF04E000F04DF8204600F0C1
:101240004BF82777E80616D5F00614D521686FF01D
:1012500010000861082020772068C06910F4407FE2
:10126000204602D0FFF79EFF04E000F034F820464D
:1012700000F032F82777E80708D0F00706D0216899
:101280006FF001000861204600F028F8280608D514
:10129000300606D521686FF0800008612046FFF710
:1012A00050FE680608D5700606D521686FF040002C
:1012B0000861204600F01EF8A8060AD5B00608D539
:1012C00021686FF0200008612046BDE8F041FFF77B
:1012D00039BEBDE8F081704770470000034988427D
:1012E00003D103480168491C0160704728000020B1
:1012F000000000207047704770470000F8B5016893
:1013000004460868CA684B6910F00F0F4FF00005DB
:1013100059D003F0010602F49077374365D0C10736
:1013200005D0D10503D5616C41F00101616441072D
:1013300005D5D90703D0616C41F0020161648107D2
:1013400005D5D90703D0616C41F004016164010740
:1013500007D502F02001314303D0616C41F0080150
:101360006164616C00293AD0800604D5900602D5EC
:10137000204600F08DFB20684069616CC0F380104E
:10138000090700D460B3204600F05BFB2068406989
:10139000400621D52068143050E8001F21F040019C
:1013A00040E80012002AF5D1E06BA8B16D49416315
:1013B000E06BFEF7B5FF002811D0E06B416B01B088
:1013C000BDE8F040084783060FD593060DD52046AB
:1013D000BDE8F84000F05CBB2046FFF78DFFF8BD8C
:1013E0002046FFF789FF6564F8BD266B2023012E98
:1013F0007CD1C6067AD5D60678D5086848680090AC
:1014000048694FF00206400640D5E16B0868406825
:101410000004000CE8D0A28D8242E5D9E0858869FD
:1014200020282DD020680C3050E8001F21F4807156
:1014300040E80012002AF5D12068143050E8001F5F
:1014400021F0010140E80012002AF5D12068143093
:1014500050E8001F21F0400140E80012002AF5D1B9
:1014600084F84230256320680C3050E8001F21F0DA
:10147000100140E80012002AF5D1E06BFEF72DFFC5
:101480006663A08DE18D401A81B22AE0A08DE18DC6
:10149000401A81B2E08D0028A6D00029A4D022688D
:1014A0000C3252E8000F20F4907042E80007002F41
:1014B000F5D12068143050E8002F22F0010240E8F6
:1014C0000027002FF5D184F84230256320680C30C6
:1014D00050E8002F22F0100240E80023002BF5D145
:1014E00066632046FFF707FFF8BDFFE705062BD52B
:1014F000150629D594F841002128F5D1A068B0F54A
:10150000805F01D12069B0B1206A411C216221684D
:1015100000784860E08C401E0004000CE084E3D1B9
:101520002068C16821F08001C1602068C16841F075
:101530004001C160D8E7206A0088C0F30800486015
:10154000206A801C2062E5E74006CDD55006CBD549
:10155000CA68204622F04002CA6084F8413000F098
:1015600076F8C1E7331A000870B5040004D094F887
:101570004100002510B106E0012070BD84F8405004
:10158000204600F023F8242084F841002068C16838
:1015900021F40051C160204600F0DCFA20680169A6
:1015A00021F4904101612068416921F02A014161E3
:1015B0002068C16841F40051C1606564202084F84E
:1015C000410084F842006563002070BD30B585B0ED
:1015D00000240094019402940394006818498842FE
:1015E0002CD11848816941F480418161816901F4FD
:1015F00080410491816941F0040181618069124D4B
:1016000000F0040004904FF400700090022001905C
:101610000320039069462846FEF71AFF2815CDE9F6
:101620000004694628460294FEF712FF0022114684
:101630002520FFF77BF82520FFF76AF805B030BDBD
:101640000038014000100240000801407047704718
:10165000FEE700002DE9F04786B0002435480094ED
:10166000019402940394816941F040018161816990
:1016700001F040010491816941F0100181618169AB
:1016800001F010010491816941F0040181618169D7
:1016900001F004010491816941F0080181618069D0
:1016A000DFF8949000F008000490012220214846C1
:1016B000FEF7CAFFDFF884A0012220215046FEF782
:1016C000C3FF4FF48078002241465046FEF7BCFF2E
:1016D0001C20CDE90004694648460294FEF7B8FE96
:1016E00020261127022569464846CDE90245CDE965
:1016F0000067FEF7ADFEE802CDE900050320039088
:1017000069465046FEF7A4FE69465046CDE90245BB
:10171000CDE90067FEF79CFE01AA0120CDF800800C
:1017200082E8310069465046FEF792FE06B0BDE8F9
:10173000F08700000010024000180140000C01403A
:101740000A4810B5084901604FF0FF3141604FF47D
:1017500080718160FFF760FB002803D0BDE8104076
:10176000FEF7B9BD10BD00000028004014000020A5
:1017700010B586B000241848009401940294039494
:1017800004941449059401600721C0E9011440F252
:10179000E731C0E903148021C0E90541FFF712FCDD
:1017A00008B1FEF798FD4FF48050009069460A4852
:1017B000FFF78AFC08B1FEF78EFD049404A90648E1
:1017C0000594FFF7C1FB002801D0FEF784FD06B0A9
:1017D00010BD0000002C0140280000200C4810B56E
:1017E0000A4901604FF4E1314160002181600C221F
:1017F000C160C0E904128161C161FFF7B5FE002834
:1018000003D0BDE81040FEF766BD10BD00380140B2
:1018100070000020FEE7000003490A6810440A68CF
:101820008242FCD37047000000000020FEE77047B2
:1018300070B50446FEF70EFF05464FF47A7606E0D3
:10184000FEF708FF401BB04201D9032070BD20689D
:1018500040688006F4D52068416841F0100141607D
:10186000002070BD70B504460068416821F0100189
:101870004160FEF7EFFE05464FF47A7607E000BFC1
:10188000FEF7E8FE401BB04201D9032070BD20687E
:1018900040688006F4D5002070BD7047FEF7E0BEBA
:1018A00070B596B028216846FEF7B0FC14210AA84E
:1018B000FEF7ACFC18210FA8FEF7A8FC09200124B4
:1018C00000904FF48030002504940694CDE9010582
:1018D0000226CDE90760000109906846FFF70CF980
:1018E00008B172B6FEE70F20CDE90A064FF480601A
:1018F000CDE90C5001210AA80E95FFF721F808B197
:1019000072B6FEE74FF40070CDE90F400FA8FEF766
:10191000A1FF002801D072B6FEE716B070BD704777
:101920000148FFF740BC000028000020F0B5026825
:10193000204C214D214E224F224B4FF0804CA04293
:1019400009D0984207D0604505D0A84203D0B042E4
:1019500001D0B84204D122F0700E4A6842EA0E0269
:10196000A04209D0984207D0604505D0A84203D0D4
:10197000B04201D0B84203D122F44075CA682A436C
:101980004D6922F080022A4302608A68C2620A68B6
:101990008262A04201D0984201D10969016301210C
:1019A00041610169C90703D0016921F001010161A9
:1019B000F0BD0000002C0140000400400008004081
:1019C000000C00400034014010B5846842EA032254
:1019D00024F47F440A432243826010BD826822F0CF
:1019E00070020A4342F007018160704710B5036A34
:1019F000046A24F001040462846924F0F00444EAD7
:101A0000021423F00A020A438461026210BD10B579
:101A1000036A046A24F010040462846923F0A003BA
:101A200024F4704444EA023243EA01118261016203
:101A300010BD10B5406A0021C185C184FFF75CFC70
:101A400010BD01680C3151E8002F22F4907241E87A
:101A50000023002BF5D10168143151E8002F22F04A
:101A6000010241E80023002BF5D1016B012909D1C6
:101A700001680C3151E8002F22F0100241E80023E8
:101A8000002BF5D1202180F842100021016370471E
:101A900008B590F84210222901D0022008BD8268C2
:101AA0004FF480539A4201D1016921B1816A9A426F
:101AB0001BD04AB10AE00268816A5268C2F3080288
:101AC0000A80816A891C08E0026972B10268526862
:101AD00002F07F020A70816A491C8162C18D491E31
:101AE0000904090CC18503D01BE002685268F1E7C4
:101AF0000168CA6822F02002CA600168CA6822F43C
:101B00008072CA6001684A6922F001024A6120219C
:101B100080F8421000214163026B012A03D0FFF7D5
:101B200095FD002008BD016301680C3151E8002FCC
:101B300022F0100241E80023002BF5D101680A6869
:101B4000D20602D50A6849680091818DFFF7D3FB60
:101B5000E7E7000070B5044600680169E26821F417
:101B60004051114301612169A0680843616908433C
:101B70002168CA6841F20C639A430243CA60206834
:101B80004169A26921F44071114341611E492068F5
:101B9000884202D1FEF77AFF01E0FEF767FF00EB13
:101BA000C00101EB0012606864218000B2FBF0F319
:101BB000B3FBF1F36FF018067343B2FBF0F5B2FB21
:101BC000F0F605EB8305322303EB0515B5FBF1F5C4
:101BD000B6FBF1F605F0F00505EB0615B2FBF0F6E5
:101BE000B2FBF0F0B0FBF1F06FF01802504306EBDF
:101BF000800003EB0010B0FBF1F0216800F00F0053
:101C00002844886070BD0000003801400148FFF79B
:101C100075BB000070000020FEE70907090E0028D0
:101C200004DB00F1E02080F80014704700F00F00A2
:101C300000F1E02080F8141D70470000FEF718FD49
:101C4000FFF72EFEFFF706FDFFF77AFDFFF7C6FD53
:101C5000FFF78EFD0A48FFF701FA0A4C0022202107
:101C60002046FEF7F1FC6420FFF7D6FD012220217B
:101C70002046FEF7E9FC6420FFF7CEFDEEE700000A
:101C800028000020000C01400102020304050607A1
:101C900008090A0B0C0D0E0F1010010202030405B7
:101CA000060708090A0B0C0D0E0F101000000000AB
:101CB00000000000010203040607080900000000FC
:101CC00001020304E41C00080000002014000000CE
:101CD0006C010008F81C0008140000200407000034
:101CE0008801000800000000010000001000000052
:081CF0000000000000127A0060
:0400000508000131BD
:00000001FF
