:020000040800F2
:10000000D8060020CD010008791A0008EF18000872
:10001000751A0008D3020008F51E00080000000051
:100020000000000000000000000000001D1B000890
:10003000D7020008000000007D1A00081F1B0008FE
:10004000E7010008E7010008E7010008E7010008F0
:10005000E7010008E7010008E7010008E7010008E0
:10006000E7010008E7010008E7010008E7010008D0
:10007000E7010008E7010008E7010008E7010008C0
:10008000E7010008E7010008E7010008E7010008B0
:10009000E7010008E7010008E7010008E7010008A0
:1000A000E7010008E7010008E7010008E701000890
:1000B000E7010008E7010008E7010008E701000880
:1000C000E7010008E7010008E7010008E701000870
:1000D000E7010008E51E0008E7010008E701000845
:1000E000E7010008E7010008E7010008E701000850
:1000F000E7010008E7010008E7010008E701000840
:10010000E7010008E7010008E7010008E70100082F
:10011000E7010008E7010008E7010008E70100081F
:10012000E7010008E7010008E7010008E70100080F
:1001300000F002F800F03AF80AA090E8000C8244BF
:100140008344AAF10107DA4501D100F02FF8AFF29C
:10015000090EBAE80F0013F0010F18BFFB1A43F0A5
:1001600001031847601E0000801E0000103A24BFE3
:1001700078C878C1FAD8520724BF30C830C144BF0C
:1001800004680C607047000000230024002500264E
:10019000103A28BF78C1FBD8520728BF30C148BFEA
:1001A0000B6070471FB51FBD10B510BD00F058F8AB
:1001B0001146FFF7F7FF01F0BBFE00F076F803B43D
:1001C000FFF7F2FF03BC00F07DF80000094880470C
:1001D00009480047FEE7FEE7FEE7FEE7FEE7FEE729
:1001E000FEE7FEE7FEE7FEE704480549054A064B41
:1001F00070470000AB1B000831010008D800002048
:10020000D8060020D8020020D80200204FF00002BB
:1002100000B5134694469646203922BFA0E80C50FC
:10022000A0E80C50B1F12001BFF4F7AF090728BFD7
:10023000A0E80C5048BF0CC05DF804EB890028BF53
:1002400040F8042B08BF704748BF20F8022B11F07C
:10025000804F18BF00F8012B7047704770477047F8
:10026000754600F02BF8AE4605006946534620F06F
:100270000700854618B020B5FFF7B6FFBDE820405F
:100280004FF000064FF000074FF000084FF0000B52
:1002900021F00701AC46ACE8C009ACE8C009ACE805
:1002A000C009ACE8C0098D46704710B50446AFF3ED
:1002B00000802046BDE81040FFF781BF004870472E
:1002C0007400002001491820ABBEFEE726000200A2
:1002D000704700BFFEE7704772B600BFFEE70146F9
:1002E000002291F82100022808D00420886300BF72
:1002F000002081F8200000BF0120704708680068D6
:1003000020F00E000B6818600868006820F00100FB
:100310000B68186091F8403001209840CB6B586012
:10032000012081F8210000BF002081F8200000BFDB
:100330001046E2E770B50446002594F82100022833
:1003400003D00420A0630125C1E02068006820F0EC
:100350000E00216808602068006820F00100216814
:1003600008605C492068884252D95A497839206827
:10037000884201D1012047E056496439206888420B
:1003800001D1102040E0534950392068884201D102
:10039000801539E04F493C392068884201D18014EA
:1003A00032E04C4928392068884202D14FF480302D
:1003B0002AE0484914392068884202D14FF480105D
:1003C00022E044492068884201D140041CE04249AF
:1003D0002068884201D1012016E03F49143120688D
:1003E000884201D110200FE03B4928312068884223
:1003F00001D1801508E038493C312068884201D19C
:10040000801401E04FF480303349091F086051E047
:10041000304978392068884201D1012047E02D49D0
:1004200064392068884201D1102040E029495039C0
:100430002068884201D1801539E026493C3920687E
:10044000884201D1801432E022492839206888424C
:1004500002D14FF480302AE01E49143920688842C6
:1004600002D14FF4801022E01A492068884201D15D
:1004700040041CE018492068884201D1012016E0A0
:10048000154914312068884201D110200FE012492B
:1004900028312068884201D1801508E00E493C319E
:1004A0002068884201D1801401E04FF4803009496E
:1004B00080394860012084F8210000BF002084F8C2
:1004C000200000BF606B10B12046616B8847284652
:1004D00070BD0000800002400804024070B5044670
:1004E00000F0B6F906462546681C10B104480078AD
:1004F000054400BF00F0ACF9801BA842FAD370BDE0
:10050000100000202DE9F847024600239C467BE1BD
:100510004FF0010808FA03F4D1F8008008EA04005B
:10052000A0427DD1DFF8F4A2D1F80480A8EB0A093B
:10053000D0453AD014DCB8F1030F50D009DCB8F143
:10054000000F31D0B8F1010F1CD0B8F1020F49D122
:1005500020E0B8F1110F18D0B8F1120F42D11EE00F
:10056000B9F5881F25D006DCB9F5803F20D0B9F554
:10057000801F37D11AE0B9F5001F18D0B9F5041F54
:1005800030D117E0D1F80CC02DE0D1F80C8008F183
:10059000040C28E0D1F80C8008F1080C23E0D1F815
:1005A0000C8008F10C0C1EE000BF00BF00BF00BFB4
:1005B00000BF00BFD1F80880B8F1000F02D14FF0A2
:1005C000040C0BE0D1F80880B8F1010F03D14FF013
:1005D000080C146102E04FF0080C546103E04FF086
:1005E000000C00E000BF00BFFF2801D8904601E0EA
:1005F00002F104084646FF2802D84FEA830803E0C8
:10060000A3F108084FEA88084746D6F800804FF063
:100610000F0909FA07F928EA09080CFA07F900E0B6
:100620007AE048EA0908C6F80080D1F8048008F0AA
:100630008058B8F1805F6FD100BFDFF8E481D8F84F
:10064000188048F00108DFF8D891C9F81880C8462A
:10065000D8F8188008F00108CDF8008000BF00BF6E
:100660004FEAB9384FEA930958F829504FEA83788E
:100670004FEA18794FF00F0808FA09F825EA08053B
:10068000DFF8A081424502D14FF0000824E0DFF8F6
:100690009881424502D14FF001081DE0DFF88C81BE
:1006A000424502D14FF0020816E0DFF8848142454E
:1006B00002D14FF003080FE0DFF87881424502D104
:1006C0004FF0040808E0DFF87081424502D14FF096
:1006D000050801E04FF006084FEA83794FEA1979DF
:1006E00008FA09F848EA0505DFF850814FEA93094E
:1006F00048F82950D1F8048008F48018B8F5801F14
:100700000BD1DFF83C81D8F8008048EA0008DFF818
:100710003091C9F800800AE075E0DFF82481D8F84C
:10072000008028EA0008DFF81891C9F80080D1F8A5
:10073000048008F40018B8F5001F0ED1DFF800811E
:1007400008F10408D8F8008048EA0008DFF8F090C3
:1007500009F10409C9F800800DE0DFF8E48008F130
:100760000408D8F8008028EA0008DFF8D49009F1DE
:100770000409C9F80080D1F8048008F40038B8F5FD
:10078000003F0ED1DFF8B880A8F10408D8F8008047
:1007900048EA0008DFF8A890A9F10409C9F8008028
:1007A0000DE0DFF89C80A8F10408D8F8008028EA62
:1007B0000008DFF88C90A9F10409C9F80080D1F88D
:1007C000048008F48038B8F5803F0ED1DFF87080DF
:1007D000A8F10808D8F8008048EA0008DFF860901F
:1007E000A9F10809C9F800800DE0DFF85480A8F1EC
:1007F0000808D8F8008028EA0008DFF84490A9F13A
:100800000809C9F800805B1CD1F8008028FA03F8B9
:10081000B8F1000F7FF47CAEBDE8F887000011103E
:100820000010024000080140000C0140001001408F
:100830000014014000180140001C01400800014064
:10084000080401400AB1016101E00B040361704733
:100850000148006870470000080000200348006855
:1008600003490978084401490860704708000020DE
:100870001000002010B50848006840F0100006493C
:100880000860032000F0A8F80F2000F007F800F03F
:100890002BF8002010BD00000020024070B5044677
:1008A0000E4800784FF47A71B1FBF0F00C490968FA
:1008B000B1FBF0F5284600F0C3FD08B1012070BD82
:1008C000102C07D200222146501E00F047F80548A0
:1008D000046001E00120F2E70020F0E710000020B2
:1008E000140000200C00002008B500BF11488069EA
:1008F00040F001000F4988610846806900F001005E
:10090000009000BF00BF00BF0846C06940F08050A3
:10091000C8610846C06900F08050009000BF00BF69
:1009200000BF0549486820F0E06040F00070486072
:1009300000BF08BD0010024000000140014608460B
:10094000002809DB00F01F0301229A4043099B00A5
:1009500003F1E023C3F8002100BF70472DE9F05FE9
:1009600080460D461646002701F0C6FA074639466E
:100970002A46334601F00700C0F1070ABAF1040F16
:1009800002D94FF0040A01E0C0F1070AD14600F194
:10099000040ABAF1070F02D24FF0000A01E0A0F1F9
:1009A000030AD4464FF0010A0AFA09FAAAF1010A29
:1009B0000AEA020A0AFA0CFA4FF0010B0BFA0CFBD6
:1009C000ABF1010B0BEA030B4AEA0B04214640464C
:1009D00001F09AFABDE8F09F00BF00F00702064B55
:1009E00019684FF6FF031940044B0B4343EA0221F9
:1009F000014B196000BF70470CED00E00000FA05E4
:100A0000012001490862704700000E422DE9F047BD
:100A100006464FF00008002500270024A146042EBA
:100A200037D004DC012E3CD0022E6CD160E0082EC1
:100A300033D0102E67D136484468006800F08070CB
:100A400008B33448C4F38341475C04F4803078B180
:100A50002F484068C0F340402F4911F8008004F44B
:100A6000803040B12D48B0FBF8F000FB07F502E004
:100A70002B4807FB00F52648406800F48000B0F5DD
:100A8000800F01D1A94603E068000321B0FBF1F912
:100A90003AE000F0CBF9814636E000F0C7F9814634
:100AA00032E01B48046A04F44070B0F5807F05D141
:100AB00004F0020010B14FF4004918E004F4407053
:100AC000B0F5007F07D11248406A00F0020010B173
:100AD00049F640490BE004F44070B0F5407F06D180
:100AE0000B48006800F4003008B14FF224490BE0D5
:100AF00000F08CF906494968C1F38131491C49006D
:100B0000B0FBF1F900E000BF00BF4846BDE8F08748
:100B1000001002409A1F0008AA1F000800127A0065
:100B200000093D00F8B5044600260025207800F0B5
:100B3000010000286BD000274348C06900F08050B6
:100B400070B900BF4048C06940F080503E49C8615C
:100B50000846C06900F08050009000BF00BF012728
:100B60003A48006800F48070B0B93848006840F432
:100B7000807036490860FFF76BFE064606E0FFF717
:100B800067FE801B642801D90320F8BD2F48006848
:100B900000F480700028F2D02B48006A00F4407501
:100BA0002DB3A08800F44070A84220D02648006AE7
:100BB00020F4407501202649086000200860224882
:100BC000056205F0010090B1FFF742FE064608E01D
:100BD000FFF73EFE801B41F28831884201D9032095
:100BE000D3E71948006A00F002000028F0D0164848
:100BF000006A20F440706168084313490862012FBD
:100C000004D10846C06920F08050C86100BF207838
:100C100000F00200022807D10B48406820F4404051
:100C2000A168084308494860207800F010001028A7
:100C300007D10548406820F48000616908430249F3
:100C400048600020A1E70000001002400070004052
:100C50004004424270B504460D460CB9012070BDF7
:100C60005A48006800F00700A8420ED257480068B2
:100C700020F007002843554908600846006800F046
:100C80000700A84201D00120E9E7207800F0020027
:100C900002281DD1207800F00400042805D14C481A
:100CA000406840F4E0604A494860207800F008005D
:100CB000082805D14648406840F4605044494860DF
:100CC0004348406820F0F000A1680843404948606C
:100CD000207800F0010078B36068012806D13C4814
:100CE000006800F4003090B90120B8E7606802287D
:100CF00006D13748006800F0007040B90120AEE727
:100D00003348006800F0020008B90120A7E7304826
:100D1000406820F00300616808432D494860FFF7F0
:100D200097FD064609E0FFF793FD801B41F28831ED
:100D3000884202D9032092E707E02548406800F086
:100D40000C006168B0EB810FEDD12048006800F025
:100D50000700A8420ED91D48006820F0070028436C
:100D60001A4908600846006800F00700A84201D050
:100D7000012074E7207800F00400042807D114480B
:100D8000406820F4E060E168084311494860207839
:100D900000F00800082808D10D48406820F4605091
:100DA000216940EAC1000A49486000F03FF808495B
:100DB0004968C1F30311074A515CC84006490860FD
:100DC00006480068FFF76AFD002048E7002002405F
:100DD00000100240AC1F0008140000200C0000208E
:100DE00001480068704700001400002000B5FFF7BC
:100DF000F7FF04494968C1F30221034A515CC84026
:100E000000BD000000100240BC1F000800B5FFF745
:100E1000E7FF04494968C1F3C221034A515CC84055
:100E200000BD000000100240BC1F000870B500218A
:100E30000022002400230020134D696801F00C05F6
:100E4000F5B1042D02D0082D19D101E00F4819E0A9
:100E50000F4DC1F38346AB5D01F4803555B10A4DAA
:100E60006D68C5F340450B4E725D084D5D43B5FBA3
:100E7000F2F402E0084D03FB05F4204602E000BF57
:100E8000024800BF00BF70BD0010024000127A008F
:100E9000881F0008981F000800093D00F8B50446A7
:100EA0000CB90120F8BD207800F00100002878D0AE
:100EB000F848406800F00C0004280CD0F548406861
:100EC00000F00C00082811D1F248406800F480308E
:100ED000B0F5803F0AD1EF48006800F400300028E8
:100EE0005FD0606800285CD10120DBE700BF60684C
:100EF000B0F5803F06D1E748006840F48030E5490E
:100F0000086028E0606858B9E248006820F4803042
:100F1000E04908600846006820F4802008601AE074
:100F20006068B0F5A02F0BD1DA48006840F480204B
:100F3000D84908600846006840F4803008600AE03C
:100F4000D448006820F48030D24908600846006820
:100F500020F48020086000BF606888B1FFF778FC4B
:100F6000054606E0FFF774FC401B642801D9032006
:100F700098E7C848006800F400300028F2D010E07C
:100F8000FFF766FC054606E0FFF762FC401B64289D
:100F900001D9032086E7BF48006800F4003000282C
:100FA000F2D1207800F00200022857D1B9484068F9
:100FB00000F00C0050B1B748406800F00C00082861
:100FC00018D1B448406800F4803098B9B14800683E
:100FD00000F0020020B12069012801D0012061E762
:100FE000AC48006820F0F800616940EAC100A949F6
:100FF000086033E02069E8B10120A7490860FFF7E5
:1010000027FC054606E0FFF723FC401B022801D918
:10101000032047E79F48006800F002000028F2D054
:101020009C48006820F0F800616940EAC1009949D5
:10103000086013E0002098490860FFF709FC0546A6
:1010400006E0FFF705FC401B022801D9032029E731
:101050009048006800F002000028F2D1207800F0EB
:10106000080008282DD1A069B8B101208B4908607B
:10107000FFF7EEFB054606E0FFF7EAFB401B022800
:1010800001D903200EE78348406A00F002000028DF
:10109000F2D0012000F0F4FC13E000207F4908604A
:1010A000FFF7D6FB054606E0FFF7D2FB401B022800
:1010B00001D90320F6E67748406A00F002000028D4
:1010C000F2D1207800F00400042873D10027714881
:1010D000C06900F0805070B900BF6E48C06940F030
:1010E00080506C49C8610846C06900F0805000908B
:1010F00000BF00BF01276A48006800F48070B0B9E3
:101100006748006840F4807065490860FFF7A0FBFD
:10111000054606E0FFF79CFB401B642801D903202D
:10112000C0E65F48006800F480700028F2D000BF7D
:10113000E068012806D15748006A40F0010055498F
:10114000086227E0E06858B95248006A20F00100C0
:10115000504908620846006A20F00400086219E05D
:10116000E06805280BD14B48006A40F0040049496B
:1011700008620846006A40F0010008620AE045483B
:10118000006A20F00100434908620846006A20F026
:101190000400086200BFE068A0B1FFF759FB0546F4
:1011A00009E0FFF755FB401B41F28831884202D924
:1011B000032077E622E03748006A00F002000028AA
:1011C000EFD012E0FFF744FB054608E0FFF740FBD5
:1011D000401B41F28831884201D9032062E62D4844
:1011E000006A00F002000028F0D1012F05D1294843
:1011F000C06920F080502749C86100BFE069C8B3CA
:101200002448406800F00C00082860D0E0690228FB
:1012100048D1002020490866FFF71AFB054606E082
:10122000FFF716FB401B022801D903203AE61948B4
:10123000006800F000700028F2D1206AB0F5803F0D
:1012400007D11448406820F40030A16808431149D0
:101250004860D4E9080108430E49496821F4741133
:1012600008430C49486001200B490866FFF7F0FA73
:10127000054607E03DE0FFF7EBFA401B022801D9E5
:1012800003200FE60348006800F000700028F2D049
:101290002FE0000000100240000042428004424261
:1012A00000700040002014490866FFF7D1FA054697
:1012B00006E0FFF7CDFA401B022801D90320F1E533
:1012C0000E48006800F000700028F2D111E0E069DB
:1012D000012800D1E6E50948466806F48031206A15
:1012E000814204D106F47011606A814201D001206C
:1012F000D8E50020D6E50000000042420010024080
:1013000070B5044600250CB9012070BD607C20B981
:1013100000202074204600F053F80220607420461C
:1013200000F06EF818B1042060740120EDE720464B
:1013300000F0BAFB18B1042060740120E5E72068D2
:10134000406820F0070021684860A06828B11B4869
:10135000006820F00100194908601848001F006863
:1013600020F46070A16808431449091F0860606890
:10137000401C08B1656809E00120FFF747FB0546FE
:101380001DB9042060740120BFE76D1EC5F3034042
:1013900021688860A8B22168C860204600F0A1FBDF
:1013A00018B1042060740120AFE70021E17301212E
:1013B0006173A173012060740020A6E7306C0040C7
:1013C00038B504460B492068884212D1FFF718FB54
:1013D00000BF0948C06940F000600749C86108467D
:1013E000C06900F00060009000BF00BF0120034909
:1013F000086038BD00280040001002403C04424212
:1014000070B5044600250CB9012070BD2068406805
:1014100020F0080021684860FFF71AFA054607E047
:10142000FFF716FA401BB0F57A7F01D90320ECE7ED
:101430002068406800F008000028F1D00020E4E7B0
:1014400070B504462546681EB0F1807F01D30120A7
:101450000FE0681E4FF0E02148610F214FF0FF3090
:1014600000F052FD00204FF0E02188610720086164
:10147000002070BD704770472DE9F84F0446206882
:1014800005682068C668206847694FF00009CA46A9
:1014900005F00F09B9F1000F0AD105F0200038B1AD
:1014A00006F0200020B1204600F0D0FBBDE8F88F08
:1014B000B9F1000F7BD007F0010018B906F4907065
:1014C000002874D005F0010030B106F4807018B126
:1014D000606C40F00100606405F0040030B107F07A
:1014E000010018B1606C40F00200606405F0020079
:1014F00030B107F0010018B1606C40F00400606486
:1015000005F0080048B106F0200010B907F001000E
:1015100018B1606C40F008006064606C002845D031
:1015200005F0200028B106F0200010B1204600F0A0
:101530008DFB20684069C0F3801A606C00F00800E1
:1015400010B9BAF1000F2CD0204600F039FB20680A
:10155000406900F0400000B300BF00BF21681431B3
:1015600051E8001F21F040002168143141E80002D9
:10157000002AF3D100BFE06B50B17748E16B4863BC
:10158000E06BFEF7D7FE88B1E06B416B88470DE05A
:101590002046FFF770FF09E009E02046FFF76BFFE8
:1015A00004E02046FFF767FF002060647EE7206BC1
:1015B000012877D105F01000002873D006F0100044
:1015C0000028FAD000BF002000902068006800903A
:1015D00020684068009000BF00BF2068406900F0AC
:1015E000400000285FD0E06B006840681FFA80F878
:1015F000B8F1000F55D0A08D404552DDA4F82E80E3
:10160000E06B8069202843D000BF00BF21680C3107
:1016100051E8001F21F4807021680C3141E800027C
:10162000002AF3D100BF00BF00BF2168143151E888
:10163000001F21F001002168143141E80002002A56
:10164000F3D100BF00BF00BF2168143151E8001F73
:1016500021F040002168143141E80002002AF3D152
:1016600000BF202084F842000020206300BF00BF9C
:1016700021680C3151E8001F21F0100021680C3165
:1016800041E80002002AF3D100BFE06BFEF727FE1D
:1016900002206063A08DE28D801A81B22046FFF7A0
:1016A000E9FE03E742E0A08DE18D401A1FFA80F8C1
:1016B000E08DD0B3B8F1000F37D000BF00BF216874
:1016C0000C3151E8001F21F4907021680C3141E881
:1016D0000002002AF3D100BF00BF00BF216814310F
:1016E00051E8001F21F001002168143141E8000297
:1016F000002AF3D100BF202084F84200002020639C
:1017000000BF00BF21680C3151E8001F21F010001C
:1017100021680C3141E80002002AF3D100BF022009
:10172000606341462046FFF7A5FEBFE605F0800056
:1017300030B106F0800018B1204600F0A3FBB5E6FA
:1017400005F0400030B106F0400018B1204600F02E
:101750006DFAABE600BFA9E6AD1B000810B5044664
:101760000CB9012010BDA06900B100E000BF94F8E1
:10177000410028B9002084F84000204600F02AF8F3
:10178000242084F841002068C06820F400502168BB
:10179000C860204600F0D8FA2068006920F4904024
:1017A000216808612068406920F02A0021684861AA
:1017B0002068C06840F400502168C8600020606460
:1017C000202084F8410084F842000020606300BFBC
:1017D000C8E7000010B586B00446002002900390D0
:1017E000049005901E492068884236D100BF1D48EC
:1017F000806940F480401B4988610846806900F494
:101800008040019000BF00BF00BF0846806940F0E3
:10181000040088610846806900F00400019000BF60
:1018200000BF48150290022003900320059002A9F2
:101830000D48FEF767FE4FF4806002900020039091
:10184000049002A90848FEF75DFE002211462520FB
:10185000FFF784F82520FFF771F806B010BD0000EF
:1018600000380140001002400008014070B50446F5
:101870000D46164694F8420020280BD105B10EB94A
:10188000012070BD0020206332462946204600F02A
:10189000D9FAF6E70220F4E710B50446104884426E
:1018A0001DD110480078312804D14FF47A700E49C8
:1018B00008600FE00B480078322804D14FF496708E
:1018C0000949086006E007480078332802D1322031
:1018D00005490860012203490148FFF7C7FF10BD11
:1018E0002C0000200400002000000020704700BFF2
:1018F000FEE7000000B585B0002001900290039043
:10190000049000BF3F48806940F040003D49886135
:101910000846806900F04000009000BF00BF00BF93
:101920000846806940F0100088610846806900F030
:101930001000009000BF00BF00BF0846806940F063
:10194000040088610846806900F00400009000BF30
:1019500000BF00BF0846806940F008008861084663
:10196000806900F00800009000BF00BF0122202124
:101970002548FEF767FF012220212448FEF762FF79
:1019800000224FF480712148FEF75CFF1C2001907B
:1019900000200290039001A91B48FEF7B3FD202010
:1019A000019011200290002003900220049001A9D0
:1019B0001548FEF7A7FD4FF48050019002200290D9
:1019C0000320049001A91148FEF79CFD20200190FE
:1019D00011200290002003900220049001A90B48DE
:1019E000FEF790FD4FF480700190012002900020DE
:1019F00003900220049001A90448FEF783FD05B07E
:101A000000BD00000010024000180140000C014021
:101A100010B50848084908604FF0FF3048604FF49F
:101A2000807105488160FFF76BFC08B1FEF754FC3C
:101A300010BD0000002800401800002010B50B4821
:101A40000B4908604FF4E13048600021084881608C
:101A5000C16001610C21416100218161C161FFF719
:101A60007DFE08B1FEF738FC10BD000000380140D3
:101A70002C00002000BFFEE700BFFEE7704700001B
:101A800008B508490968C9084FF47A72B1FBF2F148
:101A90004143009100BF00BF00994A1E00920029F7
:101AA000F9D108BD1400002070B504460025FEF7EA
:101AB000CFFE054607E0FEF7CBFE401BB0F57A7F70
:101AC00001D9032070BD2068406800F02000002884
:101AD000F1D02068406840F0100021684860002084
:101AE000F0E770B5044600252068406820F010003B
:101AF00021684860FEF7ACFE054607E0FEF7A8FE49
:101B0000401BB0F57A7F01D9032070BD2068406882
:101B100000F020000028F1D00020F6E7704710B553
:101B2000FEF79CFE10BD00B595B028210BA8FEF76E
:101B30006DFB142106A8FEF769FB18216846FEF725
:101B400065FB09200B904FF480300C9000200D9025
:101B500001200F90119002201290C1031391C10433
:101B600014910BA8FFF79AF908B1FEF7B5FB0F2007
:101B7000069002200790002008904FF480600990A2
:101B800000200A90012106A8FFF764F808B1FEF7CB
:101B9000A3FB01200090400201906846FEF7C2FFBF
:101BA00008B1FEF799FB15B000BD704770B505464A
:101BB0006C6A0020E085E0842046FFF75CFC70BD85
:101BC00000BF00BF02680C3252E8002F22F490716F
:101BD00002680C3242E80013002BF3D100BF00BFB3
:101BE00000BF0268143252E8002F22F0010102689F
:101BF000143242E80013002BF3D100BF016B01291E
:101C00000ED100BF00BF02680C3252E8002F22F054
:101C1000100102680C3242E80013002BF3D100BF20
:101C2000202180F8421000210163704710B504465E
:101C30002068C06820F040002168C860202084F837
:101C400041002046FFF752FE002010BDF8B50446C3
:101C500094F84200222875D1A068B0F5805F0CD1BD
:101C6000206950B90025A66A20684068C0F30800C2
:101C70003080A06A801CA06215E0A56A0026A068DA
:101C8000B0F5805F03D0A06828B9206918B9206832
:101C90004068287004E02068406800F07F002870E9
:101CA000A06A401CA062E08D401E80B2E085002842
:101CB00046D12068C06820F020002168C8602068F4
:101CC000C06820F480702168C8602068406920F0F6
:101CD000010021684861202084F8420000206063F0
:101CE000206B012826D10020206300BF00BF21689F
:101CF0000C3151E8001F21F0100021680C3141E83F
:101D00000002002AF3D100BF2068006800F0100034
:101D100010280AD100BF00200090206800680090C1
:101D200020684068009000BF00BFA18D2046FFF7EB
:101D3000A1FB02E02046FFF7AFFD0020F8BD01E067
:101D40000020FBE70220F9E770B504462168096925
:101D500021F44051E2681143226811612269A168AF
:101D60001143626941EA02052168C96841F20C62C7
:101D7000914329432268D1602168496921F4407167
:101D8000A2691143226851612D4A2168914202D112
:101D9000FFF73CF801E0FFF729F800EBC00101EB89
:101DA000001162689200B1FBF2F100EBC00202EB9D
:101DB000001263689B00B2FBF3F26423B2FBF3F200
:101DC00002EBC20303EB0212A1EB8201322202EB0F
:101DD00001116422B1FBF2F101F0F00100EBC0024D
:101DE00002EB001263689B00B2FBF3F26423B2FBC8
:101DF000F3F201EB021200EBC00101EB001163688A
:101E00009B00B1FBF3F100EBC00303EB001366682A
:101E1000B600B3FBF6F36426B3FBF6F303EBC3069D
:101E200006EB0313A1EB8301322303EB01116423BF
:101E3000B1FBF3F101F00F0111442268916070BD14
:101E40000038014010B5034699629A85DA85002072
:101E50005864222083F84200186928B11868C068C5
:101E600040F480701C68E0601868406940F0010030
:101E70001C6860611868C06840F020001C68E06061
:101E8000002010BD014691F84100212828D1886822
:101E9000B0F5805F0BD1086948B90A6A1088C0F3B1
:101EA00008000B685860086A801C086205E00B6A2D
:101EB000581C086218780B685860C88C401E80B2A5
:101EC000C88458B90868C06820F080000B68D860E2
:101ED0000868C06840F040000B68D8600020704778
:101EE0000220FCE710B50248FFF7C6FA10BD00005B
:101EF0002C00002000BFFEE702480068C0F302206B
:101F0000704700000CED00E010B5002804DB0A0764
:101F1000130E054A135406E00A07140E034A00F094
:101F20000F031B1FD45410BD00E400E018ED00E0C7
:101F3000FEF7A0FCFFF7F7FDFFF7DCFCFFF768FDFD
:101F4000FFF77CFD01220C490C48FFF78FFC11E0E4
:101F5000002220210A48FEF775FC0A480068FEF7B7
:101F6000BDFA012220210648FEF76CFC05480068F6
:101F7000FEF7B4FAECE70000040000202C0000207B
:101F8000000C0140000000200203040506070809B8
:101F90000A0B0C0D0E0F10100102020304050607B8
:101FA00008090A0B0C0D0E0F1010010200000000B2
:101FB00000000000010203040607080900000000F9
:101FC00001020304E41F00080000002018000000C4
:101FD0006C010008FC1F000818000020C00600006B
:101FE00088010008E8030000000000000000000075
:0C1FF000100000000100000000127A0048
:0400000508000131BD
:00000001FF
