:020000040800F2
:1000000018070020CD010008531B00082D19000817
:10001000511B0008F3020008F9200008000000004E
:10002000000000000000000000000000C31B0008EA
:10003000F502000800000000551B0008C51B000861
:10004000E7010008E7010008E7010008E7010008F0
:10005000E7010008E7010008E7010008E7010008E0
:10006000E7010008E7010008E7010008E7010008D0
:10007000E7010008E7010008E7010008E7010008C0
:10008000E7010008E7010008E7010008E7010008B0
:10009000E7010008E7010008E7010008E7010008A0
:1000A000E7010008491C0008E7010008E701000813
:1000B000E7010008E7010008E7010008E701000880
:1000C000E7010008E7010008E7010008E701000870
:1000D000E7010008ED200008E7010008E70100083B
:1000E000E7010008E7010008E7010008E701000850
:1000F000E7010008E7010008E7010008E701000840
:10010000E7010008E7010008E7010008E70100082F
:10011000E7010008E7010008E7010008E70100081F
:10012000E7010008E7010008E7010008E70100080F
:1001300000F002F800F03AF80AA090E8000C8244BF
:100140008344AAF10107DA4501D100F02FF8AFF29C
:10015000090EBAE80F0013F0010F18BFFB1A43F0A5
:10016000010318471C3500003C350000103A24BF3D
:1001700078C878C1FAD8520724BF30C830C144BF0C
:1001800004680C607047000000230024002500264E
:10019000103A28BF78C1FBD8520728BF30C148BFEA
:1001A0000B6070471FB51FBD10B510BD00F06CF897
:1001B0001146FFF7F7FF02F0E5FA00F08AF803B402
:1001C000FFF7F2FF03BC00F08DF8000009488047FC
:1001D00009480047FEE7FEE7FEE7FEE7FEE7FEE729
:1001E000FEE7FEE7FEE7FEE704480549054A064B41
:1001F00070470000471C000831010008180100206A
:100200001807002018030020180300204FF00002F8
:1002100000B5134694469646203922BFA0E80C50FC
:10022000A0E80C50B1F12001BFF4F7AF090728BFD7
:10023000A0E80C5048BF0CC05DF804EB890028BF53
:1002400040F8042B08BF704748BF20F8022B11F07C
:10025000804F18BF00F8012B7047704770477047F8
:1002600010B500F009F8006810BD10B5044600F0A4
:1002700003F8046010BD000000487047B40000207F
:1002800000487047B40000207546FFF7F9FFAE46FE
:1002900005006946534620F00700854618B020B592
:1002A000FFF7A2FFBDE820404FF000064FF0000727
:1002B0004FF000084FF0000B21F00701AC46ACE80E
:1002C000C009ACE8C009ACE8C009ACE8C0098D467B
:1002D000704710B50446AFF300802046BDE81040DB
:1002E000FFF76DBF01491820ABBEFEE726000200F4
:1002F0007047FEE7704772B6FEE710B590F8211020
:100300000022022905D00421816380F820200120E9
:1003100010BD01680B6823F00E030B6001680B68C9
:1003200023F001030B6090F84030C46B012101FA07
:1003300003F3636080F8211080F82020104610BD80
:100340002DE9F05F90F821100024022903D0042148
:100350008163012485E001680A6822F00E020A60C8
:1003600001680A6822F001020A603F4E3E4FB21552
:10037000DFF8F4C0DFF8F090DFF8ECA0DFF8E8B0C9
:10038000DFF8E4E00168783F13011502ACF1640C7A
:10039000A9F15009AAF13C0AABF1280BAEF1140EF9
:1003A0004FF48018B14227D9B9420ED0614512D01E
:1003B00049451DD0514518D0594518D0714501D136
:1003C000424615E0294EB14201D1012210E0274EEC
:1003D0001436B14201D110220AE0244E2836B1422F
:1003E00006D0224A3C32914201D11A4600E02A4608
:1003F0001E49091F0A602BE0B94213D0614517D08E
:10040000494522D051451DD059451DD0714501D1D6
:1004100042461AE0B14202D14FF0807215E0134E0D
:10042000B14201D1012210E0104E1436B14201D187
:1004300010220AE00D4E2836B14206D00B4A3C325B
:10044000914201D11A4600E02A46074980394A60A4
:10045000012180F82110002180F82010416B01B1AA
:1004600088472046BDE8F09F800002400804024013
:100470002DE9F84FDFF8C8910024A9F1040B2346B9
:100480000F2709F1040AABF1040ED1E00125A540C4
:1004900006EA0502AA4276D1DFF8A8C14E68A6EBAB
:1004A0000C0866452BD00DDC032E34D005DC36B3AA
:1004B000012E19D0022E2FD11BE0112E16D0122E94
:1004C0002AD119E0B8F5881F19D006DCB8F5803FAD
:1004D00015D0B8F5801F1FD111E0B8F5001F0ED060
:1004E000B8F5041F18D10AE0CB6815E0CB681B1DD6
:1004F00012E0CB6808330FE0CB680C330CE08B685C
:100500002BB1012B4FF0080303D0456104E0042315
:1005100002E0056100E00023FF2A01D8064601E061
:1005200000F104064FEA840501D9A5F12005D6F8AB
:10053000008007FA05FC28EA0C0803FA05F548EAEA
:100540000508C6F800804D68ED0070D53E4DAE69D7
:1005500046F00106AE61AD6924F0030605F0010521
:1005600000953A4D06EB050CDCF80850A607360F4F
:1005700007FA06F825EA0805DFF8D480404503D1DC
:100580004FF0000825E052E0DFF8C880404502D176
:100590004FF001081DE0DFF8C080404502D14FF068
:1005A000020816E0DFF8B480404502D14FF003089E
:1005B0000FE0DFF8AC80404502D14FF0040808E0BE
:1005C000DFF8A080404502D14FF0050801E04FF070
:1005D000060808FA06F848EA0508CCF808804D68CD
:1005E000D9F80060ED024D4601D5164300E0964370
:1005F0002E604D68DAF80060AD02554601D516430D
:1006000000E096432E604D68DBF80060AD035D4668
:1006100001D5164300E096432E604D68DEF8006079
:10062000ED03754601D5164300E096432E60641C29
:100630000A681646E2407FF429AFBDE8F88F000053
:1006400008040140000011100010024000000140A9
:1006500000080140000C014000100140001401405E
:1006600000180140001C01400AB1016170470904F3
:10067000FBE7000001488068704700000000002090
:1006800002488168027811448160704700000020B0
:10069000074810B5016841F010010160032000F027
:1006A00075F80F2000F006F800F024F8002010BDC7
:1006B0000020024070B50D4D04464FF47A71287841
:1006C000B1FBF0F00A490968B1FBF0F000F035FC2D
:1006D00048B9102C07D200222146501E00F036F8EF
:1006E00000206C6070BD012070BD00000000002083
:1006F0000C0000200C4808B5816941F001018161BE
:10070000816901F001010091C16941F08051C1612D
:10071000C06900F0805000900448416821F0E06119
:1007200041F00071416008BD00100240000001402E
:10073000002809DB00F01F020121914040098000E0
:1007400000F1E020C0F8001170470000F0B40E4B3B
:100750001B680C46C3F30223C3F10705042D00D91F
:100760000425191D072901D2002300E0DB1E012604
:1007700006FA05F1491E214099409E40761E16401A
:100780003143F0BC01F0CDBC0CED00E0064900F0B7
:10079000070208684FF6FF03184040EA0220034AA8
:1007A00010430860704700000CED00E00000FA05FF
:1007B000014901200862704700000E4210B5014651
:1007C0000020284C04292FD00BDC012930D002292D
:1007D00029D100F06BF96168C1F38131491C4900EE
:1007E0001FE0082920D010291DD161682268D2019C
:1007F00019D51D48C1F38342C903805C0AD56168DD
:10080000194AC1F34041921E515C184AB2FBF1F102
:10081000484301E0164948436168490203D4400057
:100820000321B0FBF1F010BDBDE8104000F04EB95F
:10083000226AC2F30121012903D1920701D5C8031D
:1008400010BD022905D1626A920702D549F64040DF
:1008500010BD0329FCD121688903F9D54FF224404A
:1008600010BD0000001002403835000800127A0068
:1008700000093D002DE9F84305460078354CC007D6
:1008800054D0E0690026C00008D4E06940F08050F0
:10089000E061E069012600F0805000902E48016878
:1008A000C90512D40168804641F480710160FFF7E8
:1008B000E1FE074605E000BFFFF7DCFEC01B642831
:1008C00023D8D8F80000C005F6D5206A10F440708F
:1008D00021D0A98801F4407181421CD0206A1F49AF
:1008E000012220F440700A6000220A602062C007E2
:1008F00011D0FFF7BFFE074641F2883808E000BF7D
:10090000FFF7B8FEC11B414502D90320BDE8F883BB
:10091000206A8007F4D5206A696820F44070084393
:1009200020621EB1E06920F08050E06128788007E5
:1009300005D56068A96820F44040084360602878C5
:10094000C00605D56068696920F4800008436060CE
:100950000020DBE7001002400070004040044242EB
:100960002DE9F0470F46050061D0434E306800F096
:100970000700B84209D2306820F0070038433060E1
:10098000306800F00700B84251D128683B4C81071D
:1009900012D5400703D5606840F4E06060602878B5
:1009A000000703D5606840F4605060606068A96823
:1009B00020F0F000084360602878C00728D06868FD
:1009C000012810D02168022810D0890700292EDACA
:1009D000616821F0030101436160FFF74BFE80462F
:1009E00041F288390DE021688903EFE78901EDE7DD
:1009F000FFF740FEA0EB0801494502D90320BDE8FE
:100A0000F0876068696800F00C00B0EB810FEFD1EF
:100A1000306800F00700B8420BD9306820F00700BA
:100A200038433060306800F00700B84201D0012040
:100A3000E5E72878400705D56068E96820F4E060BC
:100A4000084360602878000706D56068296920F4AB
:100A5000605040EAC100606000F038F86168084A00
:100A6000C1F30311515CC84006490860064800689C
:100A7000FFF720FE0020C2E70020024000100240E5
:100A8000483500080C0000200400002004480549F7
:100A900000684968044AC1F30221515CC8407047AC
:100AA0000C00002000100240583500080448054999
:100AB00000684968044AC1F3C221515CC8407047CC
:100AC0000C00002000100240583500080E4A516802
:100AD0000E4801F00C03042B11D0082B0FD10C4849
:100AE000C1F38343C903C05C0AD55168084AC1F306
:100AF0004041921E515C054A5043B0FBF1F07047F3
:100B000004494843704700000010024000127A0078
:100B10002635000800093D002DE9F84F040070D08B
:100B20002078C04DC00749D06868C0F38100012813
:100B300007D06868C0F38100022809D16868C00343
:100B400006D52868800339D560680028E7D035E0ED
:100B50006068B0F5803F0BD010B1B0F5A02F11D078
:100B6000286820F480302860286820F4802002E083
:100B7000286840F480302860606890B1FFF77AFD03
:100B800006460AE0286840F480202860F0E700BFAD
:100B9000FFF770FD801B642873D828688003F7D5A1
:100BA0000CE0FFF767FD064605E000BFFFF762FDBA
:100BB000801B6428F0D828688003F7D420789A4EE8
:100BC00080074FF001094FF0000839D5686810F030
:100BD0000C0F07D06868C0F38100022809D168684B
:100BE000C00306D42868800714D52069012808D1DD
:100BF00010E02069B0B1C6F80090FFF73BFD074652
:100C000005E00AE1FFF736FDC01B0228C4D82868BA
:100C10008007F7D52868616920F0F80040EAC10034
:100C200028600DE0C6F80080FFF724FD074604E0C9
:100C3000FFF720FDC01B022823D828688007F7D4BF
:100C4000207800072CD57948A169D9B1C0F8009067
:100C5000FFF710FD074604E0FFF70CFDC01B02285C
:100C60000FD8686A8007F7D571484FF4FA510068C9
:100C7000B0FBF1F0009000BF0098411E0091FAD245
:100C80000EE080E0C0F80080FFF7F4FC074604E0C7
:100C9000FFF7F0FCC01B022875D8686A8007F7D4FC
:100CA0002078400760D5E8690027C00008D4E869CB
:100CB00040F08050E861E869012700F08050009022
:100CC0005C480168C90513D40168834641F480710A
:100CD0000160FFF7CFFC824606E000BFFFF7CAFCC9
:100CE000A0EB0A0064284ED8DBF80000C005F5D55B
:100CF000E06801280AD008B1052813D0286A20F03E
:100D000001002862286A20F0040002E0286A40F00E
:100D100001002862E06841F2883B98B1FFF7AAFC25
:100D200082460BE0286A40F004002862EEE700BF2C
:100D3000FFF7A0FCA0EB0A0159455AD8286A8007A2
:100D4000F6D50CE0FFF796FC824605E0FFF792FC33
:100D5000A0EB0A0159454CD8286A8007F6D41FB188
:100D6000E86920F08050E861E06988B36968C1F300
:100D70008101022944D00228C6F8608004D0FFF720
:100D800079FC044638E034E0FFF774FC074604E0E1
:100D9000FFF770FCC01B02282BD828688001F7D40D
:100DA000206AB0F5803F05D16868A16820F4003062
:100DB00008436860D4E908010843696821F47411A4
:100DC00008436860C6F86090FFF754FC044606E0EC
:100DD00025E000BFFFF74EFC001B022809D8286859
:100DE0008001F7D51BE000BFFFF744FC001B022881
:100DF00002D90320BDE8F88F28688001F4D40EE002
:100E00000128F7D06868226A00F48031914204D149
:100E1000616A00F47010884201D00120EAE70020E6
:100E2000E8E7000000100240000042428004424215
:100E30000C0000200070004070B5040003D0607CFE
:100E4000002610B105E0012070BD2674204600F098
:100E50003DF802206074204600F052F8042550BB93
:100E6000204600F078FE30BB2068416821F0070181
:100E70004160A06820B11448016821F001010160BF
:100E80001148001F0168A26821F4607111430160DC
:100E90006068411C04D10120FFF790FC58B1401E4E
:100EA0002268C0F303419160216880B2C860204687
:100EB00000F06CFE08B16574C5E7E673012060734D
:100EC000A0736074002070BD306C004008B50068ED
:100ED000084988420DD1FFF76BFC0748C16941F012
:100EE0000061C161C069054900F000600090012007
:100EF000086008BD00280040001002403C04424247
:100F000070B504000AD02068416821F008014160F2
:100F1000FFF7B0FB05464FF47A7608E0012070BD7C
:100F2000FFF7A8FB401BB04201D9032070BD206829
:100F300040680007F4D5002070BD10B5401EB0F128
:100F4000807F01D3012010BD4FF0E02460610F21AC
:100F5000601701F0E6F80020A06107202061002062
:100F600010BD7047704710B590F83C20012A22D080
:100F7000012280F83C20CA688C6822F44072224327
:100F80004C6822F4806222430C6822F400622243FF
:100F90000C6922F4805222434C6922F4005222430D
:100FA000C969002322F480420A4301684A6480F838
:100FB0003C30002010BD022010BD000070B590F83C
:100FC0003C20012A2CD0012480F83C40022280F8E9
:100FD0003D2003685A689D6822F070060A68324313
:100FE0005A60104B02689A420ED00F4B9A420BD0B7
:100FF000B2F1804F08D00D4B9A4205D00C4B9A426B
:1010000002D00C4B9A4204D1496825F08003194361
:10101000916080F83D40002180F83C10084670BD8A
:10102000022070BD002C014000340140000400404B
:1010300000080040000C004010B50446022249B1EF
:1010400004290ED0082913D094F84500012816D0A1
:10105000012010BD94F842000128F9D184F8422003
:101060000FE094F843000128F2D184F8432008E00F
:1010700094F844000128EBD184F8442001E084F87E
:1010800045200422206800F040FE2068416C41F4B5
:10109000004141640E49206888420ED00D498842C3
:1010A0000BD0B0F1804F08D00B49884205D00B49D6
:1010B000884202D00A49884204D1816801F00701C0
:1010C000062903D0016841F001010160002010BD34
:1010D000002C0140003401400004004000080040A2
:1010E000000C004010B5040003D094F83D0010B18E
:1010F00007E0012010BD002084F83C00204600F0ED
:101100001FF8022084F83D00211D206800F0A2FD98
:10111000012084F8460084F83E0084F83F0084F8FB
:10112000400084F8410084F8420084F8430084F8C9
:10113000440084F8450084F83D00002010BD000004
:1011400008B500680B49884212D10B48816941F407
:10115000006181618069002200F400600090114606
:101160001920FFF7F3FABDE808401920FFF7E0BAAD
:1011700008BD0000002C01400010024070B504467C
:1011800090F83C000025012817D0012684F83C6027
:10119000022084F83D002068826822F0770222F461
:1011A0007F4282600868502838D00DDC20284FD05C
:1011B00005DC90B3102811D14AE0022070BD302820
:1011C00046D040280AD13BE060282FD070280DD0AF
:1011D000B0F5805F03D0B0F5005F12D0012584F830
:1011E0003D60002084F83C00284670BDCB68D1E902
:1011F0000121206800F096FD2068816841F07701A8
:1012000009E0CB68D1E90121206800F08BFD20685E
:10121000816841F480418160E1E719E0CA6849686A
:10122000206800F053FE5021206806E0CA68496833
:10123000206800F05CFE6021206800F07DFDCEE7B4
:10124000CA684968206800F041FE40212068F4E740
:10125000226801461046F0E770472DE9F041044648
:101260000068C66805694FF00007A90713D5B107E4
:1012700011D5F91E0161012020772068806980075F
:10128000204602D0FFF7E8FF04E000F0B1F8204666
:1012900000F043F92777680716D5700714D5216841
:1012A0006FF004000861022020772068806910F444
:1012B000407F204602D0FFF7CFFF04E000F098F80F
:1012C000204600F02AF92777280715D5300713D5CF
:1012D00021686FF008000861042020772068C06949
:1012E0008007204602D0FFF7B7FF04E000F080F847
:1012F000204600F012F92777E80616D5F00614D537
:1013000021686FF010000861082020772068C0690C
:1013100010F4407F204602D0FFF79EFF04E000F06B
:1013200067F8204600F0F9F82777E80708D0F007BB
:1013300006D021686FF001000861204600F048F9EE
:10134000280608D5300606D521686FF080000861B0
:101350002046FFF706FE680608D5700606D5216808
:101360006FF040000861204600F033F9A8060AD566
:10137000B00608D521686FF0200008612046BDE85E
:10138000F041FFF7EFBDBDE8F081000000B585B08A
:101390000021009101910291039100681049884257
:1013A0001BD11048816941F0400181618069694623
:1013B00000F0400004904FF4407000900220019033
:1013C00003900948FFF754F80848416821F0C0012C
:1013D00041F0E06141F0C001416005B000BD000096
:1013E000002C0140001002400018014000000140A4
:1013F000704770B5044690F83C0000260D46012861
:101400000FD0012084F83C006AB1042A1DD0082ABC
:101410002FD00C2A3FD00126002084F83C00304613
:1014200070BD022070BD206800F08EFC20688169CC
:1014300041F0080181612068816921F00401816126
:10144000206881692A69114311E0206800F0ACFC32
:101450002068816941F4006181612068816921F41B
:1014600080618161206881692A6941EA0221816184
:10147000D2E7206800F0CEFC2068C16941F0080185
:10148000C1612068C16921F00401C1612068C1699E
:101490002A69114311E0206800F0F0FC2068C1695E
:1014A00041F40061C1612068C16921F48061C161BA
:1014B0002068C1692A6941EA0221C161ACE710B51F
:1014C000040003D094F83D0010B107E0012010BDE6
:1014D000002084F83C00204600F01EF8022084F82A
:1014E0003D00211D206800F0B5FB012084F8460076
:1014F00084F83E0084F83F0084F8400084F84100FE
:1015000084F8420084F8430084F8440084F84500DD
:1015100084F83D00002010BD7047704710B50446A8
:10152000022249B104290ED0082913D094F84100B1
:10153000012816D0012010BD94F83E000128F9D1F1
:1015400084F83E200FE094F83F000128F2D184F89F
:101550003F2008E094F840000128EBD184F84020B7
:1015600001E084F841200122206800F0C1FB13490A
:101570002068134A884201D0904203D1436C43F45F
:1015800000434364206888420DD090420BD0B0F1F4
:10159000804F08D00B49884205D00B49884202D0C1
:1015A0000A49884204D1816801F00701062903D065
:1015B000016841F001010160002010BD002C0140D4
:1015C000003401400004004000080040000C0040CE
:1015D0007047704770477047F8B50168044608685F
:1015E000CA684B6910F00F0F4FF0000559D003F097
:1015F000010602F49077374365D0C10705D0D105C5
:1016000003D5616C41F001016164410705D5D9073B
:1016100003D0616C41F002016164810705D5D907EF
:1016200003D0616C41F004016164010707D502F049
:101630002001314303D0616C41F008016164616CA9
:1016400000293AD0800604D5900602D5204600F045
:101650008FFC20684069616CC0F38010090700D4DA
:1016600060B3204600F05DFC20684069400621D54B
:101670002068143050E8001F21F0400140E80012BB
:10168000002AF5D1E06BA8B16D494163E06BFEF72C
:1016900057FE002811D0E06B416B01B0BDE8F0406F
:1016A000084783060FD593060DD52046BDE8F840C0
:1016B00000F05EBC2046FFF78EFFF8BD2046FFF726
:1016C0008AFF6564F8BD266B2023012E7CD1C606F7
:1016D0007AD5D60678D508684868009048694FF0F2
:1016E0000206400640D5E16B086840680004000C23
:1016F000E8D0A28D8242E5D9E085886920282DD0E6
:1017000020680C3050E8001F21F4807140E800127E
:10171000002AF5D12068143050E8001F21F00101A3
:1017200040E80012002AF5D12068143050E8001F6C
:1017300021F0400140E80012002AF5D184F842303F
:10174000256320680C3050E8001F21F0100140E8AC
:101750000012002AF5D1E06BFEF7CFFD6663A08D85
:10176000E18D401A81B22AE0A08DE18D401A81B24C
:10177000E08D0028A6D00029A4D022680C3252E8BF
:10178000000F20F4907042E80007002FF5D1206888
:10179000143050E8002F22F0010240E80027002F0B
:1017A000F5D184F84230256320680C3050E8002FD2
:1017B00022F0100240E80023002BF5D1666320469A
:1017C000FFF708FFF8BDFFE705062BD5150629D55D
:1017D00094F841002128F5D1A068B0F5805F01D1CF
:1017E0002069B0B1206A411C2162216800784860FC
:1017F000E08C401E0004000CE084E3D12068C16846
:1018000021F08001C1602068C16841F04001C160E1
:10181000D8E7206A0088C0F308004860206A801C6E
:101820002062E5E74006CDD55006CBD5CA682046F4
:1018300022F04002CA6084F8413000F076F8C1E737
:10184000131F000870B5040004D094F8410000256F
:1018500010B106E0012070BD84F84050204600F031
:1018600023F8242084F841002068C16821F4005145
:10187000C160204600F0DEFB2068016921F4904140
:1018800001612068416921F02A0141612068C16835
:1018900041F40051C1606564202084F8410084F85F
:1018A00042006563002070BD30B585B0002400940F
:1018B0000194029403940068184988422CD1184876
:1018C000816941F480418161816901F48041049121
:1018D000816941F0040181618069124D00F00400CA
:1018E00004904FF4007000900220019003200390B8
:1018F00069462846FEF7BCFD2815CDE90004694677
:1019000028460294FEF7B4FD002211462520FEF77A
:101910001DFF2520FEF70CFF05B030BD003801404B
:10192000001002400008014070477047FEE70000C9
:101930002DE9F04786B000243548009401940294C4
:101940000394816941F040018161816901F04001A6
:101950000491816941F010018161816901F01001F8
:101960000491816941F004018161816901F0040100
:101970000491816941F0080181618069DFF89490E8
:1019800000F008000490012220214846FEF76CFE7A
:10199000DFF884A0012220215046FEF765FE4FF4B7
:1019A0008078002241465046FEF75EFE1C20CDE9BD
:1019B0000004694648460294FEF75AFD2026112786
:1019C000022569464846CDE90245CDE90067FEF7A4
:1019D0004FFDE802CDE9000503200390694650461B
:1019E000FEF746FD69465046CDE90245CDE9006760
:1019F000FEF73EFD01AA0120CDF8008082E831000B
:101A000069465046FEF734FD06B0BDE8F087000099
:101A10000010024000180140000C01400A4810B5B7
:101A2000084901604FF0FF3141604FF480718160DF
:101A3000FFF702FA002803D0BDE81040FEF75BBCB8
:101A400010BD0000002800401000002010B596B026
:101A500000240F9410941194129413941C2108A83C
:101A60001494FEF7D3FB20216846FEF7CFFB2948EC
:101A7000274901600721C0E9011440F2E731C0E9BC
:101A800003148021C0E90541FFF72CFB08B1FEF7E4
:101A900032FC4FF480500F900FA91E48FFF76EFBE9
:101AA00008B1FEF728FC1B48FFF709FD08B1FEF757
:101AB00022FC139413A917481494FFF77FFA08B176
:101AC000FEF719FC6020CDE908040A940B940C94ED
:101AD0000D94002208A90F480E94FFF78AFC08B164
:101AE000FEF709FC00944FF40050CDE90440029445
:101AF00001940394694607480794FFF734FA08B144
:101B0000FEF7F9FB0348FFF741FC16B010BD0000DB
:101B1000002C0140240000200C4810B50A49016047
:101B20004FF4E1314160002181600C22C160C0E9C5
:101B300004128161C161FFF785FE002803D0BDE872
:101B40001040FEF7D8BB10BD003801406C000020EB
:101B5000FEE7FEE7704770B50446FEF78BFD0546CD
:101B60004FF47A7606E0FEF785FD401BB04201D9BE
:101B7000032070BD206840688006F4D52068416865
:101B800041F010014160002070BD000070B50446B6
:101B90000068416821F010014160FEF76BFD0546C9
:101BA0004FF47A7607E000BFFEF764FD401BB042B9
:101BB00001D9032070BD206840688006F4D500205C
:101BC00070BD7047FEF75CBD70B596B028216846C1
:101BD000FEF71CFB14210AA8FEF718FB18210FA81A
:101BE000FEF714FB0920012400904FF480300025FB
:101BF00004940694CDE901050226CDE907600001B1
:101C000009906846FEF788FF08B172B6FEE70F201C
:101C1000CDE90A064FF48060CDE90C5001210AA8F5
:101C20000E95FEF79DFE08B172B6FEE74FF4007008
:101C3000CDE90F400FA8FEF71DFE002801D072B6B7
:101C4000FEE716B070BD70470148FFF706BB000005
:101C500024000020F0B50268204C214D214E224F77
:101C6000224B4FF0804CA04209D0984207D06045EB
:101C700005D0A84203D0B04201D0B84204D122F02E
:101C8000700E4A6842EA0E02A04209D0984207D07C
:101C9000604505D0A84203D0B04201D0B84203D17C
:101CA00022F44075CA682A434D6922F080022A4313
:101CB00002608A68C2620A688262A04201D09842C9
:101CC00001D109690163012141610169C90703D09B
:101CD000016921F001010161F0BD0000002C01400B
:101CE0000004004000080040000C004000340140A7
:101CF00010B501F01F030121046A99408C4304626E
:101D0000016A9A401143016210BD10B501F00F0342
:101D10000421046A99408C430462016A9A40114389
:101D2000016210BD10B5846842EA032224F47F44A6
:101D30000A432243826010BD826822F070020A4387
:101D400042F0070181607047F0B5036A026A22F031
:101D50000102026242688469124E24F073050C6825
:101D60002C4323F002058B682B430D4DA84201D074
:101D7000B04205D123F00807CB683B4323F00403AE
:101D8000A84201D0B04205D14D6922F440721543FA
:101D90008A692A4342608461496841630362F0BDF5
:101DA000002C014000340140F0B5026A036A23F0C0
:101DB00010030362436884690D6824F4E64444EA2E
:101DC00005248D6822F0200242EA05120F4D104EC4
:101DD000A84201D0B04206D1CF6822F0800242EA88
:101DE000071222F04002A84201D0B04207D14D694B
:101DF00023F4406343EA85038D6943EA8503436026
:101E00008461496881630262F0BD0000002C0140DA
:101E100000340140F0B5026A036A23F48073036260
:101E20004368C46922F4007224F073050C68124EF2
:101E30002C438D6842EA05220E4DA84201D0B042E3
:101E400006D1CF6822F4006242EA072222F48062BF
:101E5000A84201D0B04207D14D6923F4405343EA70
:101E600005138D6943EA05134360C4614968C16382
:101E70000262F0BD002C01400034014030B5046A1C
:101E8000026A22F4805202624268C3690D6823F438
:101E9000E64343EA05238D6824F4005444EA0534FC
:101EA000084DA84202D0084DA84204D14D6922F441
:101EB000804242EA85124260C3614968016404625B
:101EC00030BD0000002C01400034014010B5036A11
:101ED000046A24F001040462846924F0F00444EAF2
:101EE000021423F00A020A438461026210BD10B595
:101EF000036A046A24F010040462846923F0A003D6
:101F000024F4704444EA023243EA0111826101621E
:101F100010BD10B5406A0021C185C184FFF75BFB8D
:101F200010BD01680C3151E8002F22F4907241E895
:101F30000023002BF5D10168143151E8002F22F065
:101F4000010241E80023002BF5D1016B012909D1E1
:101F500001680C3151E8002F22F0100241E8002303
:101F6000002BF5D1202180F8421000210163704739
:101F700008B590F84210222901D0022008BD8268DD
:101F80004FF480539A4201D1016921B1816A9A428A
:101F90001BD04AB10AE00268816A5268C2F30802A3
:101FA0000A80816A891C08E0026972B1026852687D
:101FB00002F07F020A70816A491C8162C18D491E4C
:101FC0000904090CC18503D01BE002685268F1E7DF
:101FD0000168CA6822F02002CA600168CA6822F457
:101FE0008072CA6001684A6922F001024A612021B8
:101FF00080F8421000214163026B012A03D0FFF7F1
:1020000093FC002008BD016301680C3151E8002FEA
:1020100022F0100241E80023002BF5D101680A6884
:10202000D20602D50A6849680091818DFFF7D2FA7D
:10203000E7E7000070B5044600680169E26821F432
:102040004051114301612169A06808436169084357
:102050002168CA6841F20C639A430243CA6020684F
:102060004169A26921F44071114341611E49206810
:10207000884202D1FEF71AFD01E0FEF707FD00EBF2
:10208000C00101EB0012606864218000B2FBF0F334
:10209000B3FBF1F36FF018067343B2FBF0F5B2FB3C
:1020A000F0F605EB8305322303EB0515B5FBF1F5DF
:1020B000B6FBF1F605F0F00505EB0615B2FBF0F600
:1020C000B2FBF0F0B0FBF1F06FF01802504306EBFA
:1020D000800003EB0010B0FBF1F0216800F00F006E
:1020E0002844886070BD0000003801400148FFF7B7
:1020F00073BA00006C000020FEE7490050EAC120DE
:1021000018BF04204A0D18BF40F0010040F2FF72D2
:10211000B2EB515F08BF40F00200012808BF052064
:1021200070470907090E002804DB00F1E02080F861
:102130000014704700F00F0000F1E02080F8141D3B
:10214000704700002DE9F74F144694B00021C4E910
:1021500002111599079121F00045C9498D4206DC0D
:102160001599C4E9000117B00020BDE8F08FC549FA
:10217000DFF814A3A9423CDD0799C44E0029C44FDF
:10218000C44A1599534619DD00F03EFF554506D067
:10219000C14AC24B00F038FFC4E900010AE04FF029
:1021A000D352BE4B00F030FF32463B4600F02CFFCE
:1021B000C4E9000117B00120BDE8F08F00F0B8FBC2
:1021C000554506D0B44AB54B00F0B2FBC4E9000156
:1021D0000AE04FF0D352B14B00F0AAFB32463B4627
:1021E00000F0A6FBC4E9000117B04FF0FF30BDE8D6
:1021F000F08FAB49A942159978DB21F00041834665
:102200008846A84AA84B00F0F5FD0022A74B00F035
:102210008FFB00F095FD099000F0C1FD06460F46CA
:102220009C4A534600F0E6FD43465A4600F0E0FE65
:1022300080468A46984A994B3046394600F0DAFD86
:102240002A0D01250B924246534600F0D1FE032D84
:10225000C4E9000139D00B98C1F30A51401A05EBCB
:1022600045111139814230DA9148C346784400EB78
:102270000510CDF80CA00C90D0E90023304639466B
:1022800000F0B8FD02460B460491069058460399AB
:1022900000F0BAFE80468A4602460B46584603992D
:1022A00000F0B2FE049B069A00F0AEFE83460C9846
:1022B00003913946D0E90223304600F09BFD5A468F
:1022C000039B00F0A1FE6D1CBDE707980028A2BF8C
:1022D000099817B0BDE8F08F616881F00041616036
:1022E000099817B04042BDE8F08FFFE78446159883
:1022F000C1F31301C0F30A50A0F2F5304FEA6018A1
:1023000000F01F06C6F120001390002006900790F1
:1023100041F4801E05206D4676B1664A08EB000147
:102320007A4452F8213002EB8101B3404A68139994
:1023300022FA01F1194305E05F4908EB00027944F4
:1023400051F82210A1FB0E27A1FB0C131A449A424C
:1023500034BF0123002303EB070A05EB8003D3E915
:1023600001B70F448F4234BF0121002193448B44B5
:1023700011B1934502D903E0934501D2012100E058
:102380000021C3E901B7514445F82010011EA0F116
:102390000100C1DC0298059F00F10050800F1290EF
:1023A0000298DDE90356800000F0F9FC83462846D8
:1023B0000D9100F00BFD6FF01D0201F06DF8CDE9FD
:1023C0000E01304600F002FD6FF03D0201F064F8AE
:1023D00080468A46384600F0F9FC6FF05D0201F055
:1023E0005BF8074642465346119100F0A1FADDE939
:1023F0000E2300F09DFA5A460D9B00F099FA002535
:102400000E465A4628460D9B00F0FEFDDDE90E23E0
:1024100000F0FAFD4246534600F0F6FD3A46119BA5
:1024200000F0E6FDDFF898A0244A534600F0E2FCF5
:1024300007468846234A244B3146284600F0DAFCFA
:102440003A46434600F074FA074688464FF0A842E1
:1024500053463146284600F0CDFC3A46434600F04C
:1024600067FA159A12F0004F04D0129A81F00041D9
:1024700052421292C4E90001129817B0BDE8F08FE1
:10248000FB21E93F7CD90240FB21F93F7370032E09
:102490008A19A33B000040543163621A61B4D03DF5
:1024A000FB21394183C8C96D305FE43F0000E03F44
:1024B000201300009C1200007E120000182D4454CE
:1024C000FB21F93D3326A611460B113C2DE9FF4DAA
:1024D00021F0004807460C46B8F1795F08DA00F0B1
:1024E0002FFC002801BF0020324904B0BDE8F08D68
:1024F0003A4623461046194600F07CFC0546024643
:102500002D480E460B460621784400F05DF82A4619
:10251000334600F06FFCDDE9022382468B463846E5
:10252000214600F067FC04460F4652465B462846AB
:10253000314600F05FFC22463B4600F065FD074651
:102540008A464FF0FF322846314600F0A5FF1B4A6D
:1025500090450ADA3A46534600F056FD04B0002290
:10256000BDE8F04D134B00F043BD154A4245A8BFEE
:10257000A8F500154FF00004B8BF124D22462B46B7
:1025800000F042FD0646884622462B4600200949B7
:1025900000F03AFD04460D463A4653463046414661
:1025A00000F032FD04B022462B46BDE8F04D00F0AD
:1025B0001FBD00000000F03F541000003333D33F34
:1025C0000000E93F0000D23F2DE9F0414F1E00EB33
:1025D000C7010446D1E9000115461E4637F0060240
:1025E0000DD02A46334600F005FC7F1E04EBC703DE
:1025F000D3E9002300F09CF937F00602F1D1022F55
:1026000025D0042F13D0062F18BFBDE8F0812A462D
:10261000334600F0EFFBD4E90A2300F089F92A469B
:10262000334600F0E7FBD4E9082300F081F92A469D
:10263000334600F0DFFBD4E9062300F079F92A469F
:10264000334600F0D7FBD4E9042300F071F92A46A1
:10265000334600F0CFFBD4E9022300F069F92A46A3
:10266000334600F0C7FBD4E90023BDE8F04100F099
:102670005FB900002DE9FF4D054621F0004084B010
:102680000C46B0F1795F0BDA2846FFF736FD0428D7
:1026900008BF00F06FF8284608B02146BDE8F08D6D
:1026A0002A460B46104600F0A5FB06460F462A4672
:1026B000234600F09FFB804626488A4632463B462A
:1026C00005217844FFF780FF83461098029160B39C
:1026D000214A224B4046514600F08CFBCDE90001D7
:1026E0005A4640465146029B00F084FB824688468B
:1026F000DDE906014FF0FF3200F0CEFE52464346C0
:1027000000F082FC32463B4600F074FBDDE9062314
:1027100000F07AFCDDE9002300F076FC08B02A46E0
:102720002346BDE8F04D00F063BC0B465A463046E8
:10273000394600F05FFB084A084B00F0F9F84246C2
:10274000534600F057FB08B02A462346BDE8F04D3B
:1027500000F0EEB8920F0000495555555555C5BFCC
:10276000012200F099BE002213461046114600F0E7
:102770008FB90000024A0020110700F08DBE000052
:1027800001FDFFFFFDF784FFFFF71EFAFFF7D0F80A
:10279000FFF744F9FFF7C0F9FFF758F900211D488A
:1027A000FEF7BCFE00211B48FEF746FC194D1A4EF1
:1027B000DFF86880DFF86890DFF868A04FF0FF3B33
:1027C000FDF758FF00F002FB3246434600F012FBD3
:1027D00000F07CF800F002FD4A46534600F00AFB88
:1027E00000F024F85A4600F057FE00220E4B00F08D
:1027F0009FF800F06BF82F680446F86A80B2401C1E
:1028000000F038FD214600F049FD00F013FD80B2D4
:102810007863D5E724000020FCA9F1D24D62503F37
:102820001F85EB51B81E19400000E03F00B5254B55
:1028300021F0004287B09A4203DC00221346009246
:102840002BE0214B9A4208D140B94FF00100FDF72F
:102850000CFDFFF788FF07B000BD03DBFFF780FF2B
:1028600007B000BD02AAFFF76DFC10F003014FF0A6
:1028700001000DD0012914D002291AD00DF1080C45
:102880009CE80F00FFF722FE07B081F0004100BD79
:102890000DF1080C00909CE80F00FFF7EBFE07B06D
:1028A00000BD0DF1080C9CE80F00FFF70FFE07B00C
:1028B00000BD0DF1080C00909CE80F00FFF7DAFE58
:1028C000E2E70000FB21E93F0000F07F21F0004239
:1028D000A2F16052B2F5801F01F0004328BFD2F18F
:1028E0007F6C0BD95FEA001C43EAC20242EB5070D6
:1028F00018BF704728BF20F001007047B2F5801F55
:10290000BCBF184670474FEA410C1CF5001F02D2AD
:10291000084600F08ABD70B500F016FB0000008983
:10292000FFF7F6BF4FF00040A0F5800070470000B1
:1029300010B591EA030F48BF83F0004300F16C83A8
:10294000841A71EB030C05D2121943EB0C03001B24
:1029500061EB0C01DFF824E14FEA1154A4EB135CA6
:102960001EEA430F18BF9EEA445F73D023EA0E03AA
:10297000DCF1200E21EA045143F4801332D322FA11
:102980000CFE10EB0E0023FA0CFE41EB0E01CCF115
:10299000200E03FA0EFE10EB0E0051F10001B1F50E
:1029A000801FCCF1200E32D201EB045112FA0EF24C
:1029B000BDE8104058BF7047401C38BF5FEA420274
:1029C00018BF7047002814BF20F0010041F100013A
:1029D0004FEA410313F5001F38BF7047A1F1C04112
:1029E00000F000BB012A43EB0302ACF1200CDCF148
:1029F0001F0E32BF4FF0000E23FA0CF310EB030052
:102A000041EB0451B4EB115FD0D0A1EB045101F5BF
:102A1000801149085FEA300001EB04510ED350F1F8
:102A2000000038BF12FA0EFE08D1BDE81040C9E719
:102A3000401C38BF5FEA4202CAD1C3E7BDE810407C
:102A40004FEA410313F5001F38BF7047A1F1C041A1
:102A500000F0C8BA9EEA445F08D011EA5E0FBDE8F4
:102A6000104004BF01F0004100207047BDE8104055
:102A700070B500F069FA00BF64FBBE3E0000E0FFE5
:102A800002494FF0000000F0D5BC00BF0000F87F05
:102A90002DE9C04130B4DFF8A0C23CEA111418BFE0
:102AA0003CEA131400F0EC8081EA03051CEA1114DF
:102AB00044EAD57418BF1CEA131500F0C780A4EBD4
:102AC00005044FF0004545EAC12145EAC32341EA28
:102AD000505143EA525304F17F74994204F5003493
:102AE0004FEAC0204FEAC22208BF904200F09C800B
:102AF0004FEA13650FF24016765D4FEA134506FB69
:102B000005F7C7F1807706FB07F74FEAD737A7FB32
:102B100003687642C8F58038A7FB06CE38BFA8F117
:102B2000010807FB08E64FF0000EA6FB028CE6FB4F
:102B300003CEDCF1000CCEF1004E38BFAEF1010E39
:102B4000A6FB0C584FF000074FF00005E6FB0E8780
:102B5000A1FB08C6A0FB07CE16EB0E0645F100054B
:102B6000E1FB076515F1E04E7EBFA4F580345FEA16
:102B700046066D4116F1800745F100054FEA17271B
:102B80004FEA066647EA0567A6F1DE46B6F1805FC2
:102B90004FEA15251FD9384624F0010C05EBC47106
:102BA000BCF1FE6F01EB0C1102D8F0BCBDE8008156
:102BB00024425CBF01F5801E9EEAC47F02D4F0BCB3
:102BC000BDE80081244238D4F0BCA1F1C041BDE889
:102BD000004100F007BA4FEAD22242EA43524FEADC
:102BE000D323A7FB02864FEAD02040EA415007FBDF
:102BF00003661EEA0E0F4FEAD12105FB026658BF9D
:102C0000A6EB0056B6EB00564FEA520E4EEAC37ED4
:102C100018EB0E0E56EB530EBDD518EB02085E41B5
:102C20007F1C55F10005B6E74FF480154FF0000703
:102C30004FF000064FF00008ADE7F0BC4FF0000089
:102C400001F1C04101F00041BDE8008111EA0C1F13
:102C50000CEA131500D00CE013EA0C1F00F02580DD
:102C60004FF00000F0BC81EA030101F00041BDE833
:102C70000081F0BCBDE8004181EA030100F0B2B977
:102C8000F0BCBDE8004170B500F05EF9097EFC3E85
:102C900000F007B881EA03014FF0000001F00041A5
:102CA000704781EA030100F09DB9F0BCBDE8004126
:102CB0004FF0000021497047FFFDFBF9F7F5F4F2F2
:102CC000F0EEEDEBE9E8E6E4E3E1E0DEDDDBDAD8C7
:102CD000D7D5D4D3D1D0CFCDCCCBCAC8C7C6C5C425
:102CE000C2C1C0BFBEBDBCBBBAB9B8B7B6B5B4B33C
:102CF000B2B1B0AFAEADACABAAA9A8A8A7A6A5A427
:102D0000A3A3A2A1A09F9F9E9D9C9C9B9A999998EA
:102D10009797969595949393929191908F8F8E8E8D
:102D20008D8C8C8B8B8A898988888787868585841A
:102D300084838382828181800000FF070000F87F06
:102D40004FEA41034FEA5353A3F58063D3F11E03C7
:102D5000C8BFD3F1210C0CDD4FF0004242EAC12282
:102D600042EA505232FA03FC8CEAE17CACEBE170AF
:102D70007047102BC4BF0020704703F5787CBCF16E
:102D8000FF3F04D06FF0004282EA2100704770B527
:102D900000F0DAF84992248000207047F2E710F042
:102DA000004248BF4042B0FA80F310FA03F10AD063
:102DB000C3F11D0303F580634FEA415002EB035258
:102DC00002EBD12170474FF000007047B0FA80F35A
:102DD00010FA03F10AD0C3F11D0303F580634FEA33
:102DE00041504FEA035202EBD12170474FF00000EF
:102DF00070470000DFF848C170B51CEA111E1EBF05
:102E00001CEA13159EEA0C0F95EA0C0F00F06F8078
:102E100081EA030423EA4C134EEAD47E21EA4C11E2
:102E200041F4801143F48013AE44A1FB024CA0FB9B
:102E30000365AEF17F7E361955EB0C05A1FB034C03
:102E40004CF10003A0FB021C16EB0C06654153F18C
:102E50000003094218BF46F0010613F4007F0BD1AE
:102E60004FEA03314FEA0530340341EA155140EA95
:102E700016506FF003020AE04FEAC3214FEAC52063
:102E8000F40241EA555140EA56506FF0020202EB5B
:102E90002E4201EB025585EACE710AD05FEA440C5E
:102EA00018BF24F0004450F1000041F1000120EA75
:102EB000D47040F2FE7C624500D270BDA84214BFBF
:102EC0004FF080444FF04044002E08BF0024BEF174
:102ED000806FA8BFA1F1C041BDE8704080F2828040
:102EE0004FF0000001F1C04101F0004170479EEA3F
:102EF0000C0F0CEA131518BF95EA0C0F06D04FF013
:102F0000000081EA030E0EF0004170BD00F01CF8D5
:102F10008900013E00F007B800F009B84FEA430C01
:102F20005FEA5C5C08D081EA030100F05BB84FEA1D
:102F3000410C5FEA5C5CF6D14FF00000014970473C
:102F40000000FF070000F87F0EF1020E2EF0030EC6
:102F50005EF8046B364205D4012A43EB030515F5F0
:102F6000001F12D8012841EB010C1CF5001F0CD8E2
:102F70000ED14FEAD17C15F5001F0CEB4C0C0CF177
:102F8000020C08BF4CEBD37C04E04FF0080C01E0CE
:102F90004FEAD37C0CEB4C0526FA05F606F0070643
:102FA000B6F1040C06D20EEB860CBDE870404CF076
:102FB000010C6047DFE80CF0090B02024FF0004102
:102FC0004FF00000A1F5002170BD19461046012800
:102FD00051EB010418BFD4F5001484BF002001F0A8
:102FE000004170BD0808A0F500114FEA310170479B
:102FF00091EA030F10B581F000413FF5A1AC83F0D9
:10300000004300F009B8000010B591EA030F48BF73
:1030100083F000433FF594AC841A71EB030C07D2A4
:1030200012198CF0004C43EB0C03001B61EB0C01FC
:10303000DFF8A4E14FEA1154A4EB135C1EEA430F3E
:1030400018BF9EEA445F00F0B08023EA6E0352424C
:1030500021EA0451C3EB6E0338BF5B1EDCF1200E86
:1030600025D322FA0CFE10EB0E0043FA0CFE41EBC6
:103070000E01CCF1200E03FA0EFE10EB0E0051F102
:103080000001CCF1200E29D412FA0EF201EB04510A
:10309000BDE8104058BF7047401C1CBFB2F1004F44
:1030A000704700280CBF491C20F00100704712EB4C
:1030B000020E43EB030218BF4FF0010E4EEA42022C
:1030C000ACF1200CDCF11E0E54D943FA0CFE10EBCF
:1030D0000E0051F1FF31CCF11E0ED5D50EF1010ECF
:1030E00012FA0EFE404141EB010101EB445C5FEA44
:1030F0005C5C10D910EBDE7001EB045138BFBEF1FF
:10310000004FBDE8104018BF704700280CBF491C95
:1031100020F00100704730D24FEAD42C11F5001195
:1031200024F400641BD0B1FA81F20B3AA41AA41E55
:10313000D2F12003914030FA03F31943904001EBA0
:10314000CC71002C01EB0451BDE81040A8BF7047C2
:1031500001F1C0414FF0000001F000417047B0FAAA
:1031600080F310FA03F100D110BDE41A173C4805B2
:10317000C90AE4E701EB045110BD491001EB045109
:10318000BDE810404FEA300002E04FF00001704708
:103190004A0008BF0042F8D0B2F5001F28BF7047B0
:1031A00001F000414FF0000070479EEA445F07D0F5
:1031B00011EA5E0FBDE8104004BF002100207047F7
:1031C000BDE8104070B5FFF7BFFE00BF40DFF63E20
:1031D00083F00041104670470000E0FF43004FEAD3
:1031E000D30C4FEA3C0C43401FBF40070CF1605129
:1031F00013F0FE4F70471CF0006F03D100200CF05D
:10320000004170470CF0004343EA507010B540EAAB
:10321000CC0000F0C4F800BF000000924FEA0001AB
:10322000FFF7E0BE4FF000414FF00000A1F5002194
:1032300070470000C10DD1F19E0206DB4FEA00236A
:1032400043F0004323FA02F07047004207D54FEAEB
:103250004001B1F1FE4F02D24FF00000704710B5AF
:1032600000F09DF849922480002070476FEA20000A
:1032700070470000B0FA80F310FA03F2C3F19D0327
:103280000AD0D90501EB1220530638BF704700F170
:10329000010008BF20F00100704700004FF47F0CD0
:1032A0001CEAD0121EBF1CEAD11392EA0C0F93EA5B
:1032B0000C0F00F0478090EA010F48BF42F4807283
:1032C0004FF0004C4CEA00204CEA012102EB0302D3
:1032D000A0FB0113A2F50002002918BF43F001036F
:1032E0005B0028BF4FEA330342EB22425FEA132C14
:1032F0004CEBC2502EBFBCEB436FB2F57C0F704756
:103300004FEA036CBCF1004F08BF20F00100B2F59A
:103310007C0F38BF70470BD582F0FF0212F5803F5B
:10332000C8BF704700F1C040D8BF00F000407047F0
:1033300000F5000C5FEA4C0C48BF7047B0F1C0408C
:1033400000F073B890EA010F0CEAD11348BF42F4C1
:103350008072624538BF634504D280EA010000F004
:103360000040704710B500F01AF800BF8900013E18
:1033700000F007B800F009B85FEA410C5FEA1C6C86
:1033800008D080EA010000F050B85FEA400C5FEA24
:103390001C6CF6D14FF00040A0F5800070470EF194
:1033A000020E2EF0030E5EF8044B244204D44FEAC2
:1033B0004102B2F17F4F11D84FEA4003B3F17F4F82
:1033C0000CD80ED14FEAD07CB2F17F4F0CEB4C0CF5
:1033D0000CF1020C08BF4CEBD17C04E04FF0080C60
:1033E00001E04FEAD17C0CEB4C0324FA03F404F027
:1033F0000704B4F1040C06D20EEB840CBDE81040B7
:103400004CF0010C6047DFE80CF0070802024FF0B7
:103410000040A0F5800010BD0846420018BFD2F160
:10342000807288BF00F0004010BDFF2141EAD050FB
:10343000C00570470CF00F03092B08BF082000F0EF
:1034400059800A2B0BD0082B18BF704708BF1CF0FF
:10345000400F0AD04FF000004FF0000170471CF001
:10346000400F18BF4FF0004070471CF0100F08D0FD
:1034700020F0704300F07F4242EAD3014FEA4370EC
:10348000704700F0604021F07F4242EA000201F004
:103490007F4040EA727070474FF0FF0C4CF4E06CD4
:1034A0001CEA11531CBF9CEA030C9445C2BFDA42CC
:1034B00001EB02517047002B0DD0BCF1000F0FD073
:1034C000002A01F00041A4BF41F0E04141F07F61DA
:1034D0004FF00000704701F000414FF000007047CE
:1034E00050EA01334FF09B0C18BF4CF0806C7FF416
:1034F000C7AA70471CF4801F11D01CF4E02F03D022
:103500006FEACC31490070474FF04050EFF3008232
:1035100022F0704242EA000282F3008870474FF0C6
:1035200000007047010202030405060708090A0BA0
:103530000C0D0E0F10100102020304050607080906
:103540000A0B0C0D0E0F1010000000000000000010
:103550000102030406070809000000000102030439
:103560004C5555555555A53F7751C1166CC156BFA1
:103570009015CB19A001FA3EAD529C804F7E92BEB1
:10358000C4B1B4BD9EEE213ED43888BEE9FAA8BDD0
:1035900000004054FB21F93F3163621A61B4D03D11
:1035A0000000601A61B4D03D7370032E8A19A33BEA
:1035B0000000002E8A19A33BC14920259A837B393C
:1035C00000000000000000006E83F9A22915444E9F
:1035D000D15727FCC0DD34F5999562DB4190433C1F
:1035E000AB6351FE61C5BBDE3A6E24B7E0D24D42FB
:1035F000EA2E49061C92D1091CEB1DFE3EA729B1FB
:10360000F53582E88444BB2E26709CE9417E5FB488
:1036100039D69139F43953838B5F849C3B28F9BDAB
:10362000FF97F81F0F9805DE8B112FEF1F6D0A5AB9
:10363000CF7E366DB709CB27663F464F2DEA5F9E9A
:10364000C7BA27757BF1E5EBF739073DEA92528A55
:10365000B15FFB6B085D8D1FA6F810111111813F42
:10366000D561C119A0012ABF7DFEB157E31DC73E38
:10367000EB9C2B8AE6E55ABE7CD5CF5A3AD9E53D7C
:10368000A036000800000020100000006C010008B7
:10369000B03600081000002008070000880100086C
:1036A00001000000100000000000000000127A007D
:0400000508000131BD
:00000001FF
