:020000040800F2
:1000000000000120B544000801440008094400082C
:1000100011440008194400082144000800000000B1
:10002000000000000000000000000000294400085B
:100030003544000800000000414400084D44000819
:10004000FD440008FD440008FD440008FD4400088C
:10005000FD440008FD440008FD440008FD4400087C
:10006000FD440008FD440008FD440008FD4400086C
:10007000FD440008FD440008FD440008FD4400085C
:10008000FD440008FD440008FD440008FD4400084C
:10009000FD440008FD440008FD440008FD4400083C
:1000A000FD440008FD440008FD440008FD4400082C
:1000B000FD440008FD440008FD440008FD4400081C
:1000C000FD440008FD440008FD440008FD4400080C
:1000D000FD440008FD440008FD440008FD440008FC
:1000E000FD440008FD440008FD440008FD440008EC
:1000F000FD440008FD440008FD440008FD440008DC
:10010000FD440008FD440008FD440008FD440008CB
:10011000FD440008FD440008FD440008FD440008BB
:10012000FD440008FD440008FD440008FD440008AB
:1001300000000000000000000000000000000000BF
:1001400000000000000000000000000000000000AF
:10015000000000000000000000000000000000009F
:10016000000000000000000000000000000000008F
:10017000000000000000000000000000000000007F
:10018000000000000000000000000000000000006F
:10019000000000000000000000000000000000005F
:1001A000000000000000000000000000000000004F
:1001B000000000000000000000000000000000003F
:1001C000000000000000000000000000000000002F
:1001D000000000000000000000000000000000001F
:0401E0005FF8E0F1F3
:1001E40010B5054C237833B9044B13B10448AFF36D
:1001F40000800123237010BD0C00002000000000CB
:100204005845000808B5034B1BB103490348AFF335
:10021400008008BD000000001000002058450008C0
:1002240080B400AF00BFBD4680BC704780B586B0C7
:1002340000AF78600023FB7500233B610023BB60A3
:100244000023FB607B68002B01D10123CEE07B6897
:100254009B68002B7B689B6A002B09D17B6800227A
:10026400DA627B68002283F82420786803F0EEFCCD
:10027400786800F0BDF90346FB757B689B6A03F060
:100284001003002B40F0A980FB7D002B40F0A580DB
:100294007B689B6A23F4885323F0020343F0020231
:1002A4007B689A627B685A687B681B6851498B42F9
:1002B4000AD17B68DB69B3F5402F02D07B68DB6928
:1002C40004E04FF4002301E07B68DB691A437B6898
:1002D4001B7B5B001343BA681343BB607B689B685A
:1002E400B3F5807F03D07B689B68012B02D14FF468
:1002F400807300E000233A6913433B617B681B7DF4
:10030400012B19D17B681B7B002B09D17B689B696E
:10031400013B5A033B69134343F400633B610BE025
:100324007B689B6A43F020027B689A627B68DB6A85
:1003340043F001027B68DA627B681B685B6823F424
:1003440069417B681B683A690A435A607B681B6889
:100354009A68294B13407A681268B9680B43936012
:100364007B689B68B3F5807F03D07B689B68012B17
:1003740004D17B681B69013B1B05FB607B681B6820
:10038400DB6A23F470017B681B68FA680A43DA624B
:100394007B681B689A68194B1340BA689A420BD160
:1003A4007B680022DA627B689B6A23F0030343F0D4
:1003B40001027B689A6218E07B689B6A23F012034F
:1003C40043F010027B689A627B68DB6A43F00102A7
:1003D4007B68DA620123FB7507E07B689B6A43F064
:1003E40010027B689A620123FB75FB7D184618375F
:1003F400BD4680BD003C0140FDF7E1FFFE0E1FFF3E
:1004040080B485B000AF786039600023FB730023AB
:10041400BB607B6893F82430012B01D10223DCE01C
:100424007B68012283F824203B685B68062B1CD878
:100434007B681B68596B3B685A6813469B001344DE
:10044400053B1F2202FA03F3DB4319403B6818689B
:100454003B685A6813469B001344053B00FA03F2B9
:100464007B681B680A435A633CE03B685B680C2B5F
:100474001CD87B681B68196B3B685A6813469B0041
:100484001344233B1F2202FA03F3DB4319403B6866
:1004940018683B685A6813469B001344233B00FAD0
:1004A40003F27B681B680A431A631BE07B681B68C2
:1004B400D96A3B685A6813469B001344413B1F2288
:1004C40002FA03F3DB4319403B6818683B685A6837
:1004D40013469B001344413B00FA03F27B681B68FC
:1004E4000A43DA623B681B68092B1CD97B681B68CA
:1004F400D9683B681A6813465B0013441E3B072205
:1005040002FA03F3DB4319403B6898683B681A68B6
:1005140013465B0013441E3B00FA03F27B681B681E
:100524000A43DA6019E07B681B6819693B681A683A
:1005340013465B001344072202FA03F3DB4319401A
:100544003B6898683B681A6813465B00134400FADA
:1005540003F27B681B680A431A613B681B68102B13
:1005640003D03B681B68112B32D17B681B681D4A82
:10057400934225D17B681B689B6803F40003002B1E
:1005840026D17B681B689A687B681B6842F400026A
:100594009A603B681B68102B1AD1134B1B68134AD3
:1005A400A2FB03239A0C13469B0013445B00BB601D
:1005B40002E0BB68013BBB60BB68002BF9D107E0DC
:1005C4007B689B6A43F020027B689A620123FB7379
:1005D4007B68002283F82420FB7B18461437BD4631
:1005E40080BC7047002401400000002083DE1B43D0
:1005F40080B584B000AF78600023FB607B681B6823
:100604009B6803F00103012B2ED17B681B689A6859
:100614007B681B6822F001029A6000F083F8F8609E
:100624001BE000F07FF80246FB68D31A022B14D9B2
:100634007B681B689B6803F00103012B0DD17B6869
:100644009B6A43F010027B689A627B68DB6A43F022
:1006540001027B68DA62012307E07B681B689B6800
:1006640003F00103012BDCD0002318461037BD46EC
:1006740080BD000080B500AF084B1B68074A43F0FB
:1006840010031360032001F08DF80F2000F008F828
:1006940003F0E0FE0023184680BD00BF00200240A6
:1006A40080B582B000AF7860124B1A68124B1B7889
:1006B40019464FF47A73B3FBF1F3B2FBF3F3184624
:1006C40001F097F80346002B01D001230EE07B686C
:1006D4000F2B0AD8002279684FF0FF3001F06DF833
:1006E400064A7B681360002300E00123184608379C
:1006F400BD4680BD0000002008000020040000204A
:1007040080B400AF054B1B781A46054B1B68134495
:10071400034A136000BFBD4680BC70470800002038
:100724002800002080B400AF024B1B681846BD4669
:1007340080BC70472800002080B584B000AF78608A
:10074400FFF7F0FFB8607B68FB60FB68B3F1FF3F25
:1007540005D00A4B1B781A46FB681344FB6000BFA4
:10076400FFF7E0FF0246BB68D31AFA689A42F7D84B
:1007740000BF00BF1037BD4680BD00BF0800002089
:1007840080B586B000AF78607B68002B01D101236F
:1007940072E27B681B6803F00103002B00F0878082
:1007A400924B5B6803F00C03042B0CD08F4B5B68FB
:1007B40003F00C03082B12D18C4B5B6803F48033D9
:1007C400B3F5803F0BD1894B1B6803F40033002B36
:1007D4006CD07B685B68002B68D101234CE27B689A
:1007E4005B68B3F5803F06D1804B1B687F4A43F4B6
:1007F400803313602EE07B685B68002B0CD17B4B4D
:100804001B687A4A23F480331360784B1B68774A59
:1008140023F4802313601DE07B685B68B3F5A02F8D
:100824000CD1724B1B68714A43F4802313606F4BE5
:100834001B686E4A43F4803313600BE06B4B1B68F8
:100844006A4A23F480331360684B1B68674A23F4B5
:10085400802313607B685B68002B13D0FFF762FF73
:10086400386108E0FFF75EFF02463B69D31A642B48
:1008740001D9032300E25D4B1B6803F40033002B12
:10088400F0D014E0FFF74EFF386108E0FFF74AFFAD
:1008940002463B69D31A642B01D90323ECE1534B81
:1008A4001B6803F40033002BF0D100E000BF7B6829
:1008B4001B6803F00203002B63D04C4B5B6803F00E
:1008C4000C03002B0BD0494B5B6803F00C03082B83
:1008D4001CD1464B5B6803F48033002B16D1434B89
:1008E4001B6803F00203002B05D07B681B69012BF6
:1008F40001D00123C0E13D4B1B6823F0F8027B6863
:100904005B69DB00394913430B603AE07B681B6980
:10091400002B20D0364B01221A60FFF703FF386109
:1009240008E0FFF7FFFE02463B69D31A022B01D908
:100934000323A1E12D4B1B6803F00203002BF0D02D
:100944002A4B1B6823F0F8027B685B69DB002749AC
:1009540013430B6015E0264B00221A60FFF7E2FEFA
:10096400386108E0FFF7DEFE02463B69D31A022B2A
:1009740001D9032380E11D4B1B6803F00203002B04
:10098400F0D17B681B6803F00803002B3AD07B6826
:100994009B69002B19D0174B01221A60FFF7C2FE86
:1009A400386108E0FFF7BEFE02463B69D31A022B0A
:1009B40001D9032360E10D4B5B6A03F00203002BB2
:1009C400F0D0012000F0CEFA1CE00A4B00221A609D
:1009D400FFF7A8FE38610FE0FFF7A4FE02463B696B
:1009E400D31A022B08D9032346E100BF00100240AA
:1009F4000000424280044242924B5B6A03F00203CD
:100A0400002BE9D17B681B6803F00403002B00F082
:100A1400A6800023FB758B4BDB6903F08053002B0E
:100A24000DD1884BDB69874A43F08053D361854BF2
:100A3400DB6903F08053BB60BB680123FB75824B09
:100A44001B6803F48073002B18D17F4B1B687E4A0C
:100A540043F480731360FFF765FE386108E0FFF725
:100A640061FE02463B69D31A642B01D9032303E1D7
:100A7400754B1B6803F48073002BF0D07B68DB6834
:100A8400012B06D16F4B1B6A6E4A43F001031362BC
:100A94002DE07B68DB68002B0CD16A4B1B6A694A2A
:100AA40023F001031362674B1B6A664A23F00403B5
:100AB40013621CE07B68DB68052B0CD1614B1B6A5D
:100AC400604A43F0040313625E4B1B6A5D4A43F0C1
:100AD400010313620BE05B4B1B6A5A4A23F00103C8
:100AE4001362584B1B6A574A23F0040313627B6852
:100AF400DB68002B15D0FFF715FE38610AE0FFF71D
:100B040011FE02463B69D31A41F28832934201D95D
:100B14000323B1E04B4B1B6A03F00203002BEED01E
:100B240014E0FFF7FFFD38610AE0FFF7FBFD024622
:100B34003B69D31A41F28832934201D903239BE0E3
:100B4400404B1B6A03F00203002BEED1FB7D012B0B
:100B540005D13C4BDB693B4A23F08053D3617B686E
:100B6400DB69002B00F08780364B5B6803F00C03D5
:100B7400082B61D07B68DB69022B46D1334B002202
:100B84001A60FFF7CFFD386108E0FFF7CBFD02469E
:100B94003B69D31A022B01D903236DE0294B1B684F
:100BA40003F00073002BF0D17B681B6AB3F5803F20
:100BB40008D1244B5B6823F400327B689B6821498D
:100BC40013434B601F4B5B6823F474127B68196AF0
:100BD4007B685B6A0B431B4913434B601B4B01222D
:100BE4001A60FFF79FFD386108E0FFF79BFD02469E
:100BF4003B69D31A022B01D903233DE0114B1B6837
:100C040003F00073002BF0D035E0104B00221A6083
:100C1400FFF788FD386108E0FFF784FD02463B6971
:100C2400D31A022B01D9032326E0064B1B6803F0D9
:100C34000073002BF0D11EE07B68DB69012B07D128
:100C4400012319E00010024000700040600042429D
:100C54000B4B5B68FB60FB6803F480327B681B6AA8
:100C64009A4206D1FB6803F470127B685B6A9A426D
:100C740001D0012300E0002318461837BD4680BD8B
:100C84000010024080B584B000AF786039607B68A2
:100C9400002B01D10123D0E06A4B1B6803F007034A
:100CA4003A689A4210D9674B1B6823F007026549DA
:100CB4003B6813430B60634B1B6803F007033A68FC
:100CC4009A4201D00123B8E07B681B6803F0020359
:100CD400002B20D07B681B6803F00403002B05D095
:100CE400594B5B68584A43F4E06353607B681B6864
:100CF40003F00803002B05D0534B5B68524A43F4BE
:100D040060535360504B5B6823F0F0027B689B6830
:100D14004D4913434B607B681B6803F00103002BB0
:100D240040D07B685B68012B07D1474B1B6803F4F9
:100D34000033002B15D101237FE07B685B68022B15
:100D440007D1414B1B6803F00073002B09D1012329
:100D540073E03D4B1B6803F00203002B01D1012318
:100D64006BE0394B5B6823F003027B685B683649B0
:100D740013434B60FFF7D6FCF8600AE0FFF7D2FCA0
:100D84000246FB68D31A41F28832934201D9032305
:100D940053E02D4B5B6803F00C027B685B689B009F
:100DA4009A42EBD1274B1B6803F007033A689A4237
:100DB40010D2244B1B6823F0070222493B681343DB
:100DC4000B60204B1B6803F007033A689A4201D07A
:100DD400012332E07B681B6803F00403002B08D076
:100DE400194B5B6823F4E0627B68DB6816491343A4
:100DF4004B607B681B6803F00803002B09D0124B7F
:100E04005B6823F460527B681B69DB000E49134363
:100E14004B6000F021F802460B4B5B681B0903F0A2
:100E24000F030A49CB5C22FA03F3094A1360094B06
:100E34001B681846FFF734FC002318461037BD46DC
:100E440080BD00BF00200240001002407045000831
:100E5400000000200400002080B487B000AF00230D
:100E6400FB600023BB6000237B6100237B600023C5
:100E74003B611E4B5B68FB60FB6803F00C03042BB7
:100E840002D0082B03D027E0194B3B6127E0FB6815
:100E94009B0C03F00F03174AD35C7B60FB6803F4DD
:100EA4008033002B10D0114B5B685B0C03F0010303
:100EB400114AD35CBB607B680D4A03FB02F2BB683A
:100EC400B2FBF3F37B6104E07B680C4A02FB03F39F
:100ED4007B617B693B6102E0054B3B6100BF3B6981
:100EE40018461C37BD4680BC704700BF0010024046
:100EF40000127A00884500089845000800093D0062
:100F040080B400AF024B1B681846BD4680BC7047D6
:100F14000000002080B500AFFFF7F2FF0246054B4A
:100F24005B681B0A03F007030349CB5C22FA03F353
:100F3400184680BD001002408045000880B500AF0F
:100F4400FFF7DEFF0246054B5B68DB0A03F007038D
:100F54000349CB5C22FA03F3184680BD001002401B
:100F64008045000880B485B000AF78600A4B1B68E8
:100F74000A4AA2FB03235B0A7A6802FB03F3FB60C1
:100F840000BFFB685A1EFA60002BF9D100BF00BFF6
:100F94001437BD4680BC704700000020D34D62105A
:100FA40080B586B000AF786000233B610023FB600E
:100FB4007B681B6803F00103002B7DD00023FB75C5
:100FC4004F4BDB6903F08053002B0DD14C4BDB6995
:100FD4004B4A43F08053D361494BDB6903F08053A0
:100FE400BB60BB680123FB75464B1B6803F480732D
:100FF400002B18D1434B1B68424A43F4807313609F
:10100400FFF790FB386108E0FFF78CFB02463B6971
:10101400D31A642B01D903236DE03A4B1B6803F404
:101024008073002BF0D0364B1B6A03F44073FB60D3
:10103400FB68002B2ED07B685B6803F44073FA686E
:101044009A4227D02E4B1B6A23F44073FB602E4B2D
:1010540001221A602C4B00221A60294AFB68136291
:10106400FB6803F00103002B14D0FFF75BFB38612E
:101074000AE0FFF757FB02463B69D31A41F2883274
:10108400934201D9032336E01D4B1B6A03F002038C
:10109400002BEED01A4B1B6A23F440727B685B680A
:1010A400174913430B62FB7D012B05D1144BDB69FC
:1010B400134A23F08053D3617B681B6803F0020357
:1010C400002B08D00E4B5B6823F440427B689B687E
:1010D4000B4913434B607B681B6803F01003002B20
:1010E40008D0074B5B6823F480027B685B69044982
:1010F40013434B60002318461837BD4680BD00BF1C
:1011040000100240007000404004424280B588B0A4
:1011140000AF786000237B610023FB6100233B6107
:101124000023FB600023BB617B68013B0F2B00F2B3
:10113400AF8001A252F823F01312000879120008BC
:101144009512000803120008951200089512000871
:10115400951200080B120008951200089512000859
:1011640095120008951200089512000895120008BF
:10117400951200087D1100084A4B5B68FB60494BDF
:101184001B6803F08073002B00F08480FB689B0CC9
:1011940003F00F03444AD35C3B61FB6803F48033E0
:1011A400002B15D03F4B5B685B0C03F001033F4AF7
:1011B400D35C7B61FB6803F48033002B0DD03C4A85
:1011C4007B69B2FBF3F23B6902FB03F3FB6104E0CE
:1011D4003B69384A02FB03F3FB61324B5B6803F45F
:1011E4008003B3F5800F02D1FB69BB6152E0FB6958
:1011F4005B00314AA2FB03235B08BB614AE0FFF7B3
:101204002BFEB86149E0FFF727FEB86145E0254BA6
:101214001B6AFB60FB6803F44073B3F5807F08D15D
:10122400FB6803F00203002B03D04FF40043BB61BF
:101234001FE0FB6803F44073B3F5007F09D1194B39
:101244005B6A03F00203002B03D049F64043BB6101
:101254000FE0FB6803F44073B3F5407F1CD1114BDE
:101264001B6803F40033002B16D04FF22443BB61F8
:1012740012E011E0FFF762FE02460A4B5B689B0B2B
:1012840003F0030301335B00B2FBF3F3BB6104E03F
:1012940000BF02E000BF00E000BFBB691846203772
:1012A400BD4680BD001002409C450008AC450008C6
:1012B40000127A0000093D00ABAAAAAA80B48BB040
:1012C40000AF7860396000237B6200233B6279E1E0
:1012D40001227B6A02FA03F3FB613B681B68FA692B
:1012E4001340BB61BA69FB699A4240F068813B686C
:1012F4005B68964A93425ED0944A934275D8944A66
:10130400934258D0924A93426FD8924A934252D011
:10131400904A934269D8904A93424CD08E4A934261
:1013240063D88E4A934246D08C4A93425DD8122B9E
:101334002AD8122B59D801A252F823F0BB13000863
:1013440095130008A7130008E9130008EF13000819
:10135400EF130008EF130008EF130008EF13000861
:10136400EF130008EF130008EF130008EF13000851
:10137400EF130008EF130008EF130008EF13000841
:101384009D130008B1130008754A934213D02CE052
:101394003B68DB683B6229E03B68DB6804333B6203
:1013A40024E03B68DB6808333B621FE03B68DB6892
:1013B4000C333B621AE03B689B68002B02D1042388
:1013C4003B6213E03B689B68012B05D108233B6219
:1013D4007B68FA691A6109E008233B627B68FA6951
:1013E4005A6103E000233B6200E000BFBB69FF2BAE
:1013F40001D87B6801E07B6804337B61BB69FF2B08
:1014040002D87B6A9B0002E07B6A083B9B003B613D
:101414007B691A680F213B6901FA03F3DB431A4025
:10142400396A3B6901FA03F31A437B691A603B6822
:101434005B6803F08053002B00F0C180494B9B692B
:10144400484A43F001039361464B9B6903F001034F
:10145400BB60BB68444A7B6A9B08023352F8233062
:10146400FB607B6A03F003039B000F2202FA03F381
:10147400DB43FA681340FB607B683C4A93421FD00D
:101484007B683B4A934219D07B683A4A934213D013
:101494007B68394A93420DD07B68384A934207D01F
:1014A4007B68374A934201D105230AE0062308E00A
:1014B400042306E0032304E0022302E0012300E006
:1014C40000237A6A02F0030292009340FA681343FD
:1014D400FB6025497B6A9B080233FA6841F82320A4
:1014E4003B685B6803F48013002B06D0254B9A6895
:1014F4002449BB6913438B6006E0224B9A68BB699D
:10150400DB43204913408B603B685B6803F40013A2
:10151400002B06D01B4BDA681A49BB691343CB6016
:1015240006E0184BDA68BB69DB4316491340CB600D
:101534003B685B6803F40033002B25D0114B5A68D9
:101544001049BB6913434B6025E000BF0000321013
:1015540000003110000022100000211000001210C1
:10156400000011100010024000000140000801407A
:10157400000C01400010014000140140001801401B
:10158400001C014000040140154B5A68BB69DB4351
:10159400134913404B603B685B6803F48033002BB2
:1015A40006D00F4B1A680E49BB6913430B6006E063
:1015B4000B4B1A68BB69DB43094913400B607B6A18
:1015C40001337B623B681A687B6A22FA03F3002BBF
:1015D4007FF47EAE00BF00BF2C37BD4680BC704791
:1015E4000004014080B485B000AF78600B467B8076
:1015F4007B689A687B881340002B02D00123FB731D
:1016040001E00023FB73FB7B18461437BD4680BC06
:10161400704780B483B000AF78600B467B8013467C
:101624007B707B78002B03D07A887B681A6103E097
:101634007B881A047B681A6100BF0C37BD4680BCE6
:101644007047000080B485B000AF78607B6803F019
:101654000703FB600C4BDB68BB60BA684FF6FF0303
:101664001340BB60FB681A02BB68134343F0BF63BB
:1016740043F40033BB60044ABB68D36000BF143733
:10168400BD4680BC704700BF00ED00E080B400AFF1
:10169400044BDB681B0A03F007031846BD4680BCF5
:1016A400704700BF00ED00E080B483B000AF034694
:1016B4003960FB7197F90730002B0ADB3B68DAB21B
:1016C4000C4997F907301201D2B20B4483F8002376
:1016D4000AE03B68DAB20849FB7903F00F03043BE4
:1016E4001201D2B20B441A7600BF0C37BD4680BC3F
:1016F400704700BF00E100E000ED00E080B489B075
:1017040000AFF860B9607A60FB6803F00703FB611F
:10171400FB69C3F10703042B28BF0423BB61FB69E6
:101724000433062B02D9FB69033B00E000237B61F1
:101734004FF0FF32BB6902FA03F3DA43BB681A4085
:101744007B699A404FF0FF317B6901FA03F3D94377
:101754007B680B40134318462437BD4680BC704752
:1017640080B582B000AF78607B68013BB3F1807FC5
:1017740001D301230FE00A4A7B68013B53600F2128
:101784004FF0FF30FFF790FF054B00229A60044BA7
:1017940007221A60002318460837BD4680BD00BFE3
:1017A40010E000E080B582B000AF78607868FFF7A1
:1017B40049FF00BF0837BD4680BD80B586B000AF85
:1017C4000346B9607A60FB7300237B61FFF75EFF19
:1017D40078617A68B9687869FFF790FF024697F9EB
:1017E4000F3011461846FFF75FFF00BF1837BD469C
:1017F40080BD80B582B000AF78607868FFF7B0FF35
:10180400034618460837BD4680BD000080B400AFCB
:10181400034B01221A6000BFBD4680BC704700BF65
:1018240020000E4280B582B000AF78607B68002B48
:1018340001D1012314E07B681B79DBB2002B05D1B5
:101844007B6800225A71786802F066FA7B6802228B
:101854001A717B6800221A617B6801221A710023C5
:1018640018460837BD4680BD80B489B000AFF86023
:10187400B9607A600023FB77FB68002B02D0BB6859
:10188400002B01D1012342E0FB685B79012B01D1DC
:1018940002233CE0FB6801225A71FB6802221A71A0
:1018A400FB681B681B68BB617B6803F0100340F690
:1018B400FE7202FA03F3DB43BA691340BB61BB68EF
:1018C4001A68BB685B6813437B617B6803F0100391
:1018D4007A6902FA03F3BA691343BB61FB681B68B4
:1018E400BA691A60FB681B6819687B6803F0100307
:1018F400C02202FA03F3DA43FB681B680A401A6049
:10190400FB6801221A71FB6800225A71FB7F18469A
:101914002437BD4680BC704780B584B000AF786082
:101924007B68002B01D101232BE17B6893F83D30C8
:10193400DBB2002B06D17B68002283F83C20786858
:1019440002F054FA7B68242283F83D207B681B68EC
:101954001A687B681B6822F001021A607B681B68A6
:101964001A687B681B6842F400421A607B681B6833
:101974001A687B681B6822F400421A60FFF7CAFAEF
:10198400F8607B685B68814A934207D8FB68804AA9
:10199400934294BF01230023DBB206E0FB687D4A37
:1019A400934294BF01230023DBB2002B01D0012317
:1019B400E7E0FB68784AA2FB03239B0CBB607B68CF
:1019C4001B685B6823F03F017B681B68BA680A43A5
:1019D4005A607B681B681B6A23F03F017B685B6865
:1019E4006A4A934202D8BB68013309E0BB684FF4EA
:1019F400967202FB03F3694AA2FB03239B0901339A
:101A04007A6812680B4313627B681B68DB6923F4F2
:101A14004F4222F0FF027B685B685C498B4219D815
:101A2400FB68591E7B685B685B00B1FBF3F3591CD0
:101A340040F6FC730B40002B0AD0FB68591E7B68F0
:101A44005B685B00B1FBF3F30133C3F30B0351E0B9
:101A540004234FE07B689B68002B11D1FB68581E60
:101A64007B6859680B465B000B44B0FBF3F301330E
:101A7400C3F30B03002B0CBF01230023DBB212E0E2
:101A8400FB68581E7B6859680B469B000B44990001
:101A94000B44B0FBF3F30133C3F30B03002B0CBF74
:101AA40001230023DBB2002B01D0012322E07B6859
:101AB4009B68002B0ED1FB68581E7B6859680B4647
:101AC4005B000B44B0FBF3F30133C3F30B0343F4A8
:101AD40000430FE0FB68581E7B6859680B469B0067
:101AE4000B4499000B44B0FBF3F30133C3F30B0332
:101AF40043F44043796809681343CB617B681B68EE
:101B04001B6823F0C0017B68DA697B681B6A1A438F
:101B14007B681B680A431A607B681B689B6823F414
:101B2400034323F0FF037A6811697A68D26811438A
:101B34007A6812680B4393607B681B68DB6823F048
:101B4400FF017B685A697B689B691A437B681B6841
:101B54000A43DA607B681B681A687B681B6842F07A
:101B640001021A607B6800221A647B68202283F8D1
:101B74003D207B6800221A637B68002283F83E20A4
:101B8400002318461037BD4680BD00BFA086010063
:101B94007F841E00FF083D0083DE1B43D34D62108B
:101BA40080B584B000AF78600023FB607B68002BB5
:101BB40001D101237AE07B685B7CDBB2002B05D189
:101BC4007B6800221A74786802F06AF97B68022242
:101BD4005A74786800F070F80346002B04D07B68D0
:101BE40004225A74012361E0786800F092F80346F5
:101BF400002B04D07B6804225A74012356E07B68CE
:101C04001B685A687B681B6822F007025A607B686D
:101C14009B68002B05D0274B1B6B264A23F001033E
:101C24001363244BDB6A23F460727B689B6821494D
:101C34001343CB627B685B68B3F1FF3F03D07B68DF
:101C44005B68FB600EE00120FFF760FAF860FB6858
:101C5400002B04D17B6804225A74012326E0FB681C
:101C6400013BFB60FB681A0C7B681B6802F00F02E7
:101C74009A607B681B68FA6892B2DA60786800F050
:101C840070F80346002B04D07B6804225A740123A5
:101C94000CE07B680022DA737B6801225A737B684C
:101CA40001229A737B6801225A7400231846103764
:101CB400BD4680BD006C004080B584B000AF786044
:101CC4000023FB607B68002B01D101231DE07B68AE
:101CD4001B685A687B681B6822F008025A60FEF78A
:101CE40021FDF86009E0FEF71DFD0246FB68D31AEA
:101CF400B3F57A7F01D9032307E07B681B685B682F
:101D040003F00803002BEED0002318461037BD461D
:101D140080BD80B584B000AF78600023FB60FEF71F
:101D240001FDF86009E0FEF7FDFC0246FB68D31AEA
:101D3400B3F57A7F01D903230FE07B681B685B68E6
:101D440003F02003002BEED07B681B685A687B6885
:101D54001B6842F010025A60002318461037BD4633
:101D640080BD80B584B000AF78600023FB607B68E1
:101D74001B685A687B681B6822F010025A60FEF7E1
:101D8400D1FCF86009E0FEF7CDFC0246FB68D31AEB
:101D9400B3F57A7F01D9032307E07B681B685B688E
:101DA40003F02003002BEED0002318461037BD4665
:101DB40080BD84B080B485B000AF786007F11C00AA
:101DC40080E80E000023FB60FA693B6A1A437B6AD1
:101DD4001A43BB6A1A43FB6A1A433B6B1343FA6800
:101DE4001343FB607B685B6823F4FD4323F07F03AC
:101DF400FA681A437B685A60002318461437BD46B4
:101E040080BC04B0704780B483B000AF78607B6856
:101E1400D3F8803018460C37BD4680BC704780B478
:101E240083B000AF78607B6803221A6000231846F1
:101E34000C37BD4680BC704780B483B000AF786077
:101E44007B681B6803F0030318460C37BD4680BC4F
:101E5400704780B485B000AF786039600023FB60C0
:101E64003B681A687B689A603B685A683B689B6861
:101E74001A433B68DB681A433B681B691343FA68DF
:101E84001343FB607B68DB6823F47F6323F00F0359
:101E9400FA681A437B68DA60002318461437BD4693
:101EA40080BC704780B483B000AF78607B681B69E6
:101EB400DBB218460C37BD4680BC704780B485B091
:101EC40000AF786039607B6814331A463B6813446A
:101ED400FB60FB681B6818461437BD4680BC70471E
:101EE40080B485B000AF786039600023FB603B6844
:101EF4001A687B685A623B685A687B689A623B68D6
:101F04009A683B68DB681A433B681B691A433B6861
:101F14005B691343FA681343FB607B68DB6A23F055
:101F2400F702FB681A437B68DA6200231846143709
:101F3400BD4680BC704780B588B000AF786039601A
:101F44003B68BB601023FB6040233B6100237B6143
:101F54004FF48063BB6107F1080319467868FFF703
:101F640078FF41F288321021786800F04DF9F86169
:101F7400FB6918462037BD4680BD80B58AB000AFE6
:101F8400F860C7E900233B683B6107237B6140237A
:101F9400BB610023FB614FF480633B6207F11003D4
:101FA4001946F868FFF755FF41F288320721F868AF
:101FB40000F02AF978627B6A18462837BD4680BD4E
:101FC40080B588B000AF78600023BB600023FB605D
:101FD40000233B6100237B614FF48063BB6107F105
:101FE400080319467868FFF734FF786800F042FB6D
:101FF400F861FB6918462037BD4680BD80B588B0BE
:1020040000AF78604FF4D573BB600823FB604023B6
:102014003B6100237B614FF48063BB6107F10803DC
:1020240019467868FFF715FF786800F0D5FAF8616B
:10203400FB6918462037BD4680BD80B588B000AF27
:10204400786039603B68BB603723FB6040233B61A9
:1020540000237B614FF48063BB6107F108031946D9
:102064007868FFF7F6FE41F288323721786800F08D
:10207400CBF8F861FB6918462037BD4680BD80B5B2
:1020840088B000AF786039603B6843F0004343F4A4
:102094008013BB602923FB6040233B6100237B61E9
:1020A4004FF48063BB6107F1080319467868FFF7B2
:1020B400D0FE786800F0DEF9F861FB691846203735
:1020C400BD4680BD80B588B000AF786039603B689C
:1020D400BB600623FB6040233B6100237B614FF41C
:1020E4008063BB6107F1080319467868FFF7B1FE06
:1020F40041F288320621786800F086F8F861FB69BD
:1021040018462037BD4680BD80B588B000AF7860E2
:102114000023BB603323FB6040233B6100237B61CE
:102124004FF48063BB6107F1080319467868FFF731
:1021340090FE41F288323321786800F065F8F86146
:10214400FB6918462037BD4680BD80B588B000AF16
:1021540078600023BB600223FB60C0233B61002343
:102164007B614FF48063BB6107F10803194678680B
:10217400FFF76FFE786800F035F9F861FB691846DF
:102184002037BD4680BD80B588B000AF7860396027
:102194003B68BB600923FB60C0233B6100237B6178
:1021A4004FF48063BB6107F1080319467868FFF7B1
:1021B40050FE786800F016F9F861FB69184620377C
:1021C400BD4680BD80B588B000AF7860396000231B
:1021D400BB600323FB6040233B6100237B614FF41E
:1021E4008063BB6107F1080319467868FFF731FE85
:1021F4003A680321786800F079F9F861FB691846B8
:102204002037BD4680BD000080B588B000AFF860BF
:102214000B467A60FB72704B1B68704AA2FB032367
:102224005A0A7B6802FB03F3FB61FB695A1EFA61DD
:10223400002B02D14FF00043C9E0FB685B6BBB612C
:10224400BB6903F04503002BEFD0BB6903F40063C3
:10225400002BEAD1FB685B6B03F00403002B04D072
:10226400FB6804229A630423B1E0FB685B6B03F010
:102274000103002B04D0FB6801229A630123A6E02A
:10228400FB68C5229A63F868FFF70CFE03461A46FA
:10229400FB7A934201D0012399E00021F868FFF70B
:1022A4000DFE78617A694E4B1340002B01D1002357
:1022B4008DE07B69002B02DA4FF0007387E07B69C5
:1022C40003F08043002B01D0402380E07B6903F0BE
:1022D4000053002B01D0802379E07B6903F0805305
:1022E400002B02D04FF4807371E07B6903F000632C
:1022F400002B02D04FF4007369E07B6903F0806324
:10230400002B02D04FF4806361E07B6903F080739B
:10231400002B02D04FF4006359E07B6903F40003FF
:10232400002B02D04FF4805351E07B6903F4800307
:10233400002B02D04FF4005349E07B6903F40013EF
:10234400002B02D04FF4804341E07B6903F48013F7
:10235400002B02D04FF4004339E07B6903F480235F
:10236400002B02D04FF4003331E07B6903F40033D7
:10237400002B02D04FF4802329E07B6903F48033DF
:10238400002B02D04FF4002321E07B6903F40043C7
:10239400002B02D04FF4801319E07B6903F48043CF
:1023A400002B02D04FF4001311E07B6903F40053B7
:1023B400002B02D04FF4800309E07B6903F008038B
:1023C400002B02D04FF4000301E04FF48033184691
:1023D4002037BD4680BD00BF00000020D34D6210F1
:1023E40008E0FFFD80B485B000AF78601F4B1B6828
:1023F4001F4AA2FB03235B0A41F2883202FB03F368
:10240400FB60FB685A1EFA60002B02D14FF00043B8
:1024140026E07B685B6BBB60BB6803F04503002B65
:10242400EFD0BB6803F40063002BEAD17B685B6BDD
:1024340003F00403002B04D07B6804229A63042372
:102444000EE07B685B6B03F00103002B04D07B6818
:1024540001229A63012303E07B68C5229A63002367
:1024640018461437BD4680BC704700BF00000020EA
:10247400D34D621080B485B000AF7860194B1B68EF
:10248400194AA2FB03235B0A41F2883202FB03F3DD
:10249400FB60FB685A1EFA60002B02D14FF0004328
:1024A4001BE07B685B6BBB60BB6803F04503002BE0
:1024B400EFD0BB6803F40063002BEAD17B685B6B4D
:1024C40003F00403002B04D07B6804229A630423E2
:1024D40003E07B68C5229A63002318461437BD467F
:1024E40080BC704700000020D34D621080B588B0D6
:1024F40000AFF8600B467A60FB72354B1B68354AB7
:10250400A2FB03235B0A41F2883202FB03F3FB6163
:10251400FB695A1EFA61002B02D14FF0004352E0CE
:10252400FB685B6BBB61BB6903F04503002BEFD019
:10253400BB6903F40063002BEAD1FB685B6B03F017
:102544000403002B04D0FB6804229A6304233AE0BA
:10255400FB685B6B03F00103002B04D0FB680122D2
:102564009A6301232FE0F868FFF79CFC03461A46A0
:10257400FB7A934201D0012325E0FB68C5229A63CC
:102584000021F868FFF79AFC78617B6903F46043E3
:10259400002B06D17B691B0C9AB27B681A8000233E
:1025A40011E07B6903F48043002B02D04FF4005305
:1025B40009E07B6903F40043002B02D04FF48053FD
:1025C40001E04FF4803318462037BD4680BD00BF7C
:1025D40000000020D34D621080B485B000AF786055
:1025E400224B1B68224AA2FB03235B0A41F2883276
:1025F40002FB03F3FB60FB685A1EFA60002B02D156
:102604004FF000432CE07B685B6BBB60BB6803F05E
:102614004503002BEFD0BB6803F40063002BEAD121
:102624007B685B6B03F00403002B04D07B680422FB
:102634009A63042314E07B685B6B03F00103002BB3
:1026440004D07B6801229A63012309E07B685B6BF9
:1026540003F04003002B02D07B6840229A630023DE
:1026640018461437BD4680BC704700BF00000020E8
:10267400D34D621080B485B000AF7860104B1B68F6
:10268400104AA2FB03235B0A41F2883202FB03F3E4
:10269400FB60FB685A1EFA60002B02D14FF0004326
:1026A40009E07B685B6B03F08003002BF1D07B684F
:1026B400C5229A63002318461437BD4680BC704770
:1026C40000000020D34D621080B582B000AF786066
:1026D4007B68002B01D1012322E07B6893F834301E
:1026E400DBB2002B05D17B6800221A77786801F0F1
:1026F4002BFC7B68032283F83420786800F014F8FC
:102704000346002B01D001230AE07B6800229A6370
:102714007B6800221A637B68012283F8342000233B
:1027240018460837BD4680BDB0B58EB004AF78609A
:102734000023FB6000233B6100237B610023BB611A
:102744000023FB6176233B627B681D686C4607F1BE
:10275400180393E8070084E8070007F10C030ECB85
:102764002846FFF726FB2A4B00221A607B681B6869
:102774001846FFF754FB264B01221A600220FDF78E
:10278400DBFF786800F054FB78627B6A002B0BD087
:102794007B68012283F834207B689A6B7B6A1A4336
:1027A4007B689A6301232EE0786800F073FA7862FC
:1027B4007B6A002B0BD07B68012283F834207B6872
:1027C4009A6B7B6A1A437B689A6301231BE07B68DC
:1027D4001B684FF400711846FFF7ADFB78627B6A03
:1027E400002B0FD07B681B680A4A9A637B689A6B3C
:1027F4007B6A1A437B689A637B68012283F83420DE
:10280400012300E0002318462837BD46B0BD00BFB1
:10281400A0003042FF05400080B483B000AF786070
:1028240039607B685B6E9B0FDAB23B681A707B6819
:102834005B6E9B0EDBB203F00F03DAB23B685A7097
:102844007B685B6E1B0EDBB203F00303DAB23B68FA
:102854009A707B685B6E1B0CDAB23B68DA707B683B
:102864005B6E1B0ADAB23B681A717B685B6EDAB284
:102874003B685A717B689B6E1B0D9AB23B68DA8089
:102884007B689B6E1B0CDBB203F00F03DAB23B6870
:102894001A727B689B6EDB0BDBB203F00103DAB2C6
:1028A4003B685A727B689B6E9B0BDBB203F001039F
:1028B400DAB23B689A727B689B6E5B0BDBB203F007
:1028C4000103DAB23B68DA727B689B6E1B0BDBB2E6
:1028D40003F00103DAB23B681A733B6800225A73AF
:1028E4007B685B6C002B63D17B689B6E9A0040F61F
:1028F400FC7313407A68D26E920F1A433B681A61D4
:102904007B68DB6EDB0EDBB203F00703DAB23B68F5
:102914001A757B68DB6E1B0EDBB203F00703DAB2B9
:102924003B685A757B68DB6E5B0DDBB203F0070313
:10293400DAB23B689A757B68DB6E9B0CDBB203F002
:102944000703DAB23B68DA757B68DB6EDB0BDBB25C
:1029540003F00703DAB23B681A763B681B695A1C1A
:102964007B685A653B681B7EDBB203F007030233C6
:10297400012202FA03F37A68526D03FB02F27B68C8
:102984005A653B681B7ADBB203F00F0301229A40BD
:102994007B689A657B685B6D7A68926D520A03FB6B
:1029A40002F27B68DA657B684FF400721A6631E0E4
:1029B4007B685B6C012B1DD17B689B6E1B0403F44D
:1029C4007C127B68DB6E1B0C1A433B681A613B6804
:1029D4001B6901339A027B685A657B685A6D7B6870
:1029E400DA657B684FF400729A657B689A6D7B6840
:1029F4001A660FE07B681B68584A9A637B689B6B76
:102A040043F080527B689A637B68012283F8342008
:102A140001239DE07B68DB6E9B0BDBB203F00103BB
:102A2400DAB23B685A767B68DB6EDB09DBB203F013
:102A34007F03DAB23B689A767B68DB6EDBB203F025
:102A44007F03DAB23B68DA767B681B6FDB0FDAB29E
:102A54003B681A777B681B6F5B0FDBB203F00303E1
:102A6400DAB23B685A777B681B6F9B0EDBB203F0CC
:102A74000703DAB23B689A777B681B6F9B0DDBB266
:102A840003F00F03DAB23B68DA777B681B6F5B0DE8
:102A9400DBB203F00103DAB23B6883F820203B6821
:102AA400002283F821207B681B6F1B0CDBB203F030
:102AB4000103DAB23B6883F822207B681B6FDB0BCF
:102AC400DBB203F00103DAB23B6883F823207B68AE
:102AD4001B6F9B0BDBB203F00103DAB23B6883F894
:102AE40024207B681B6F5B0BDBB203F00103DAB2BB
:102AF4003B6883F825207B681B6F1B0BDBB203F05C
:102B04000103DAB23B6883F826207B681B6F9B0ABB
:102B1400DBB203F00303DAB23B6883F827207B6857
:102B24001B6F1B0ADBB203F00303DAB23B6883F8C2
:102B340028207B681B6F5B08DBB203F07F03DAB2EB
:102B44003B6883F829203B68012283F82A2000236C
:102B540018460C37BD4680BC704700BFFF054000D7
:102B6400B0B58EB004AF78603960002387F82730A1
:102B74007B68032283F834207B685B6C032B2ED0A4
:102B84003B68B3F5805F06D17B689B6B43F0805252
:102B94007B689A6329E03B68B3F5006F0AD17868D3
:102BA40000F0D4F938627B689A6B3B6A1A437B68FD
:102BB4009A631AE03B68002B0AD1786800F011FA96
:102BC40038627B689A6B3B6A1A437B689A630CE0B1
:102BD4007B689B6B43F000627B689A6305E07B68CB
:102BE4009B6B43F080527B689A637B689B6B002BE2
:102BF4000BD07B681B68264A9A637B68012283F8A2
:102C04003420012387F827301FE07B685B68BB60B2
:102C14007B689B68FB607B68DB683B613B687B612E
:102C24007B685B69BB617B689B69FB617B681D6832
:102C34006C4607F1140393E8070084E8070007F1E2
:102C440008030ECB2846FFF7B4F87B681B684FF4E3
:102C540000711846FFF76FF938623B6A002B0CD0FD
:102C64007B681B680A4A9A637B689A6B3B6A1A43BF
:102C74007B689A63012387F827307B68012283F8F5
:102C8400342097F8273018462837BD46B0BD00BF1A
:102C9400FF054000B0B594B004AF78600123FB8118
:102CA4007B681B681846FFF7C7F80346002B02D160
:102CB4004FF08063B8E07B685B6C032B2FD07B689C
:102CC4001B681846FFF741FAF863FB6B002B01D031
:102CD400FB6BA9E07B681B6800211846FFF7EEF840
:102CE40002467B685A677B681B6804211846FFF715
:102CF400E5F802467B689A677B681B6808211846DA
:102D0400FFF7DCF802467B68DA677B681B680C21F6
:102D14001846FFF7D3F802467B68C3F880207B6827
:102D24005B6C032B0DD07B681B6807F10E02114608
:102D34001846FFF747FAF863FB6B002B01D0FB6BD7
:102D440072E07B685B6C032B36D0FB891A467B6888
:102D54001A657B681A687B681B6D1B04194610464C
:102D6400FFF711FAF863FB6B002B01D0FB6B5BE000
:102D74007B681B6800211846FFF7A0F802467B68B1
:102D84005A667B681B6804211846FFF797F80246C9
:102D94007B689A667B681B6808211846FFF78EF8E3
:102DA40002467B68DA667B681B680C211846FFF7CD
:102DB40085F802467B681A677B681B6804211846FD
:102DC400FFF77CF803461A0D7B68DA6407F11003F9
:102DD40019467868FFF720FD0346002B02D04FF018
:102DE400805321E07B6819687B681B6D1B040022FB
:102DF4001C46154622462B460846FFF7BEF8F863E4
:102E0400FB6B002B01D0FB6B0EE07B681D687B68BD
:102E14006C4603F1100207CA84E8070004330ECBA2
:102E24002846FEF7C6FF002318464037BD46B0BD0E
:102E340080B586B000AF78600023BB6000237B615F
:102E440000233B617B681B681846FFF7B9F8F860FC
:102E5400FB68002B01D0FB6872E07B681B68184696
:102E6400FFF7CCF8F860FB68002B0DD07B680022DC
:102E74009A647B681B681846FFF7A2F8F860FB6841
:102E8400002B04D0FB685BE07B6801229A647B68BA
:102E94009B6C012B37D17B681B6800211846FFF718
:102EA400CCF8F860FB68002B2DD04FF0805347E03E
:102EB4007B681B6800211846FFF7BFF8F860FB68C1
:102EC400002B01D0FB683BE07B681B681E49184659
:102ED400FFF7D5F8F860FB68002B02D04FF0805361
:102EE4002EE07B681B6800211846FEF7E7FF786137
:102EF4007B69DB0F012B01D1012300E000233B613F
:102F0400BB680133BB60BB684FF6FE72934202D8C4
:102F14003B69002BCCD0BB684FF6FE72934202D9BA
:102F24004FF080730CE07B6903F08043002B03D0E7
:102F34007B6801225A6402E07B6800225A64002301
:102F440018461837BD4680BD000010C180B586B054
:102F540000AF78600023FB6000233B617B681B6843
:102F640000211846FEF7AAFF034603F00073B3F1ED
:102F7400007F02D14FF400632FE007F10C031946E0
:102F8400786800F079F878617B69002B01D07B695F
:102F940023E03B6903F48023002B1CD07B681A6870
:102FA4007B681B6D1B0419461046FFF746F87861D1
:102FB4007B69002B01D07B690FE07B681B680221D1
:102FC4001846FFF77FF878617B69002B01D07B6995
:102FD40003E0002301E04FF0806318461837BD4634
:102FE40080BD80B586B000AF78600023FB6000230D
:102FF4003B617B681B6800211846FEF75FFF0346B0
:1030040003F00073B3F1007F02D14FF400632FE0AB
:1030140007F10C031946786800F02EF878617B6993
:10302400002B01D07B6923E03B6903F48033002B40
:103034001CD07B681A687B681B6D1B0419461046FC
:10304400FEF7FBFF78617B69002B01D07B690FE001
:103054007B681B6800211846FFF734F878617B69A8
:10306400002B01D07B6903E0002301E04FF0806373
:1030740018461837BD4680BD90B58FB000AF786054
:103084003960FDF74FFB386300237B630023BB608B
:103094000023FB603B68FB627B681B6808211846C1
:1030A400FEF749FFB862BB6A002B01D0BB6AB9E0E6
:1030B4007B681A687B681B6D1B0419461046FEF773
:1030C400BCFFB862BB6A002B01D0BB6AAAE04FF018
:1030D400FF333B6108237B613023BB610223FB6127
:1030E40000233B6201237B627B681B6807F11002AB
:1030F40011461846FEF7F4FE7B681B681846FFF776
:1031040003F8B862BB6A002B2AD0BB6A8AE07B68EA
:103114001B685B6B03F40013002B0FD07B681968EA
:103124007B6B9B0007F10802D4180846FEF76BFE80
:10313400034623607B6B01337B6306E07B681B687B
:103144005B6B03F40053002B12D0FDF7EBFA02463D
:103154003B6BD31AB3F1FF3F02D14FF0004361E060
:103164007B681B685B6B03F02A03002BCFD000E065
:1031740000BF7B681B685B6B03F00803002B06D160
:103184007B681B685B6B03F40073002B05D07B68C2
:103194001B6808229A63082344E07B681B685B6B06
:1031A40003F00203002B05D07B681B6802229A639C
:1031B400022337E07B681B685B6B03F02003002B62
:1031C40005D07B681B6820229A6320232AE07B6851
:1031D4001B6840F23A529A63FB681A06FB681B02AA
:1031E40003F47F031A43FB681B0A03F47F431A4367
:1031F400FB681B0E1A43FB6A1A60FB6A0433FB620A
:10320400BB681A06BB681B0203F47F031A43BB683E
:103214001B0A03F47F431A43BB681B0E1A43FB6A61
:103224001A60002318463C37BD4690BD80B582B075
:1032340000AF78607B68002B01D1012376E07B68C6
:103244005B6A002B08D17B685B68B3F5827F09D089
:103254007B680022DA6105E07B6800221A617B68E2
:1032640000225A617B6800229A627B6893F851308D
:10327400DBB2002B06D17B68002283F850207868EB
:1032840000F0F2FE7B68022283F851207B681B6801
:103294001A687B681B6822F040021A607B685B68CE
:1032A40003F482727B689B6803F404431A437B68CB
:1032B400DB6803F400631A437B681B6903F00203B1
:1032C4001A437B685B6903F001031A437B689B69BB
:1032D40003F400731A437B68DB6903F038031A4371
:1032E4007B681B6A03F0800342EA03017B689B6AE4
:1032F40003F400527B681B680A431A607B689B696D
:103304001A0C7B681B6802F004025A607B681B6815
:10331400DA697B681B6822F40062DA617B68002248
:103324005A657B68012283F8512000231846083728
:10333400BD4680BD80B582B000AF78607B68002B4D
:1033440001D1012342E07B6893F84130DBB2002BCA
:1033540006D17B68002283F84020786800F04EFF95
:103364007B68242283F841207B681B68DA687B68C9
:103374001B6822F40052DA60786800F02BF87B684E
:103384001B681A697B681B6822F490421A617B6887
:103394001B685A697B681B6822F02A025A617B68A1
:1033A4001B68DA687B681B6842F40052DA607B6849
:1033B40000225A647B68202283F841207B68202203
:1033C40083F842207B6800225A630023184608379A
:1033D400BD4680BD80B584B000AF78607B681B6853
:1033E4001B6923F440517B68DA687B681B680A43D5
:1033F4001A617B689A687B681B691A437B685B69FE
:103404001343BB607B681B68DB6823F4B05323F071
:103414000C037A681268B9680B43D3607B681B6835
:103424005B6923F440717B689A697B681B680A4373
:103434005A617B681B682C4A934203D1FDF77EFDD9
:10344400F86002E0FDF766FDF860FA6813469B0039
:1034540013449A001A447B685B689B00B2FBF3F345
:10346400224AA2FB03235B091901FA6813469B0055
:1034740013449A001A447B685B689B00B2FBF3F226
:103484001A4BA3FB02035B09642000FB03F3D31A6A
:103494001B013233154AA2FB03235B0903F0F0033B
:1034A4001944FA6813469B0013449A001A447B6833
:1034B4005B689B00B2FBF3F20C4BA3FB02035B09BA
:1034C400642000FB03F3D31A1B013233074AA2FB27
:1034D40003235B0903F00F027B681B680A449A60AC
:1034E40000BF1037BD4680BD003801401F85EB5139
:1034F40080B584B000AF78607B68002B01D10123D4
:10350400E8E07B6893F89132DBB2002B06D17B684C
:10351400002283F89022786800F052FF7B6803222F
:1035240083F891227B6800225A717B681B681846D5
:1035340000F0E1F87B6818687B6804330ECB00F078
:10354400CDF80346002B05D07B68022283F8912234
:103554000123BFE07B681B680021184600F0E5F8F2
:103564000346002B05D07B68022283F891220123B5
:10357400B0E00023FB733EE0FA7B796813469B00BE
:103584001344DB000B44113301221A70FA7B79686F
:1035940013469B001344DB000B441033FA7B1A7070
:1035A400FA7B796813469B001344DB000B44133306
:1035B40000221A70FA7B796813469B001344DB00DF
:1035C4000B44203300221A60FA7B796813469B006F
:1035D4001344DB000B44243300221A60FB7B79681C
:1035E4005A1C13469B001344DB000B4400221A6050
:1035F400FB7B0133FB737B681B79FA7B9A42BBD359
:103604000023FB7344E0FA7B796813469B00134460
:10361400DB000B4403F2511300221A70FA7B796821
:1036240013469B001344DB000B4403F5A873FA7B99
:103634001A70FA7B796813469B001344DB000B4431
:1036440003F2531300221A70FA7B796813469B0025
:103654001344DB000B4403F5B07300221A60FA7BB9
:10366400796813469B001344DB000B4403F5B273E3
:1036740000221A60FA7B796813469B001344DB002E
:103684000B4403F5B47300221A60FB7B0133FB7314
:103694007B681B79FA7B9A42B5D37B6818687B6890
:1036A40004330ECB00F04DF80346002B05D07B68A5
:1036B400022283F8912201230CE07B6800225A73D2
:1036C4007B68012283F891227B681B68184600F00E
:1036D40055F8002318461037BD4680BD80B485B028
:1036E40000AFF860384680E80E000023184614370F
:1036F400BD4680BC704780B485B000AF78604FF49D
:103704003F43FB607B68B3F840309AB2FB689BB2DE
:10371400DB439BB213409AB27B68A3F8402000239A
:1037240018461437BD4680BC704780B483B000AFE0
:1037340078600B46FB70002318460C37BD4680BCEE
:10374400704780B485B000AFF860384680E80E005A
:10375400FB680122A3F84020FB680022A3F8402064
:10376400FB680022A3F84420FB680022A3F8502041
:10377400002318461437BD4680BC704780B483B01C
:1037840000AF7860002318460C37BD4680BC7047F4
:1037940080B500AFFCF76EFF00F02CF800F096F84F
:1037A40000F062FB00F014FA00F08CFA00F0F0FA7A
:1037B40000F09AFB00F022FC00F0A2FC00F0CAFC2E
:1037C40000F0F2FC00F0DAFD04210948FDF70AFFDD
:1037D4000346002B05D1012220210548FDF719FFDE
:1037E400F2E7002220210248FDF713FFECE700BFB7
:1037F4000018014080B596B000AF07F130032822CD
:103804000021184600F079FE07F11C0300221A601B
:103814005A609A60DA601A613B1D00221A605A608D
:103824009A60DA601A615A6109233B634FF480336A
:103834007B630023BB6301233B640123BB6402233A
:10384400FB644FF480333B654FF480137B6507F1D1
:1038540030031846FCF794FF0346002B01D000F018
:103864002EF80F23FB6102233B6200237B624FF49B
:103874008063BB620023FB6207F11C03012118462D
:10388400FDF700FA0346002B01D000F018F81323CB
:103894007B604FF40073BB604FF48043FB604FF4D4
:1038A4008003BB613B1D1846FDF77AFB0346002BE2
:1038B40001D000F004F800BF5837BD4680BD80B485
:1038C40000AF72B600BF00BFFDE7000080B58CB04A
:1038D40000AF07F1200300221A605A609A60DA6090
:1038E400B34B9B69B24A43F040039361B04B9B696D
:1038F40003F04003FB61FB69AD4B9B69AC4A43F0A9
:1039040010039361AA4B9B6903F01003BB61BB696D
:10391400A74B9B69A64A43F080039361A44B9B6920
:1039240003F080037B617B69A14B9B69A04A43F050
:10393400040393619E4B9B6903F004033B613B6961
:103944009B4B9B699A4A43F008039361984B9B698C
:1039540003F00803FB60FB68954B9B69944A43F4AE
:1039640080739361924B9B6903F48073BB60BB6863
:103974008F4B9B698E4A43F0200393618C4B9B6968
:1039840003F020037B607B68002260218948FDF7F7
:1039940040FE00224FF43C618748FDF73AFE0022C6
:1039A40040F223118548FDF734FE00224EF28011C7
:1039B4008348FDF72EFE0022C8218248FDF729FE28
:1039C4001C233B6200237B620023BB6207F12003BC
:1039D40019467848FDF772FC60233B6201237B6241
:1039E4000023BB620223FB6207F1200319467148DE
:1039F400FDF764FC42F2FF033B6200237B62002379
:103A0400BB6207F1200319466F48FDF757FC4FF2DC
:103A14003F033B6202237B620323FB6207F1200323
:103A240019466548FDF74AFC4FF43C633B620123A9
:103A34007B620023BB620223FB6207F12003194669
:103A44005D48FDF73BFC4FF480633B6200237B62DF
:103A54000023BB6207F1200319465748FDF72EFCEB
:103A6400E0233B6202237B620323FB6207F1200312
:103A740019465648FDF722FC40F223133B6201230A
:103A84007B620023BB620223FB6207F12003194619
:103A94004A48FDF713FC4FF401733B6200237B6239
:103AA4000023BB6207F1200319464448FDF706FCD6
:103AB40041F23F633B6202237B620323FB6207F113
:103AC400200319463E48FDF7F9FB4FF683733B622A
:103AD40002237B620323FB6207F120031946354866
:103AE400FDF7ECFB4FF633733B6202237B62032347
:103AF400FB6207F1200319463248FDF7DFFB4FF460
:103B040004633B6200237B620023BB6207F1200352
:103B140019462B48FDF7D2FB4CF280133B6201237C
:103B24007B620023BB620223FB6207F12003194678
:103B34002348FDF7C3FB4FF480733B6200237B6291
:103B44000023BB6207F1200319462048FDF7B6FBAA
:103B540008233B6211237B620023BB620223FB62C6
:103B640007F1200319461748FDF7A8FBC0233B6261
:103B740001237B620023BB620223FB6207F1200363
:103B840019461048FDF79AFB4FF400533B6211238A
:103B94007B620023BB620223FB6207F12003194608
:103BA4000748FDF78BFB00BF3037BD4680BD00BF23
:103BB4000010024000180140001C0140000C0140AC
:103BC40000200140001401400010014000080140A1
:103BD40080B584B000AF3B1D00221A605A609A6021
:103BE400184B194A1A60174B00229A60154B002291
:103BF4001A73144B00221A75124B4FF46022DA61C7
:103C0400104B00225A600F4B01221A610D48FCF739
:103C14000DFB0346002B01D0FFF751FE01237B600F
:103C24000123BB600023FB603B1D19460548FCF7DC
:103C3400E7FB0346002B01D0FFF741FE00BF10371E
:103C4400BD4680BD2C0000200024014080B588B012
:103C540000AF786007F1100300221A605A609A607E
:103C6400DA607B681B68144A934221D1134B9B6929
:103C7400124A43F400739361104B9B6903F400737D
:103C8400FB60FB680D4B9B690C4A43F00403936192
:103C94000A4B9B6903F00403BB60BB6802233B61CE
:103CA40003237B6107F1100319460548FDF706FB62
:103CB40000BF2037BD4680BD0024014000100240F3
:103CC4000008014080B582B000AF3B4600221A6074
:103CD4005A600F4B0F4A1A600D48FDF7A3FD0346C7
:103CE400002B01D0FFF7EBFD00233B6000237B603A
:103CF4003B46002219460648FDF7B6FD0346002B55
:103D040001D0FFF7DCFD00BF0837BD4680BD00BF12
:103D14005C0000200074004080B588B000AF78607B
:103D240007F1100300221A605A609A60DA607B6817
:103D34001B68144A934221D1134BDB69124A43F0A6
:103D44000053D361104BDB6903F00053FB60FB6845
:103D54000D4B9B690C4A43F0040393610A4B9B6926
:103D640003F00403BB60BB6810233B6103237B6146
:103D740007F1100319460548FDF7A0FA00BF2037E4
:103D8400BD4680BD007400400010024000080140A0
:103D940080B500AF124B134A1A60114B124A5A6095
:103DA4000F4B00229A600E4B0022DA600C4B4FF44A
:103DB40080421A610A4B00225A61094B00229A611F
:103DC400074B0022DA61064B00221A620448FDF711
:103DD400A3FD0346002B01D0FFF771FD00BF80BD9A
:103DE4007000002000540040A086010080B588B017
:103DF40000AF786007F1100300221A605A609A60DD
:103E0400DA607B681B68154A934223D1144B9B6983
:103E1400134A43F008039361114B9B6903F00803B1
:103E2400FB60FB68C0233B6112237B610323FB61BE
:103E340007F1100319460B48FDF740FA084BDB69FC
:103E4400074A43F40013D361054BDB6903F4001301
:103E5400BB60BB6800BF2037BD4680BD0054004036
:103E640000100240000C014080B500AF0A4B0B4A21
:103E74001A60094B4FF0FF325A60074B4FF48072BF
:103E84009A600548FDF78CFE0346002B01D0FFF72E
:103E940016FD00BF80BD00BFC40000200028004004
:103EA40080B584B000AF78607B681B680B4A93428E
:103EB40010D1FDF7ABFC0A4BDB69094A43F0006300
:103EC400D361074BDB6903F00063FB60FB68054BC0
:103ED40001221A6000BF1037BD4680BD0028004093
:103EE400001002403C04424280B500AF144B154A16
:103EF4001A60134B00225A60114B00229A60104B37
:103F04000022DA600E4B4FF400621A610C4B00225F
:103F14005A610B4B00229A610948FEF7D5FB034610
:103F2400002B01D0FFF7CBFC4FF400610448FEF7EF
:103F340017FE0346002B01D0FFF7C1FC00BF80BD74
:103F4400D80000200080014080B58AB000AF7860BE
:103F540007F1180300221A605A609A60DA607B68DD
:103F64001B68224A93423CD1214B5B69204A43F4AB
:103F7400806353611E4B5B6903F480637B617B69DF
:103F84001B4B9B691A4A43F010039361184B9B69BE
:103F940003F010033B613B69154B9B69144A43F0E2
:103FA40020039361124B9B6903F02003FB60FB68C1
:103FB4004FF4F853BB610223FB6103237B6207F1D7
:103FC400180319460B48FDF779F90423BB61022352
:103FD400FB6103237B6207F1180319460648FDF7CA
:103FE4006DF900BF2837BD4680BD00BF0080014089
:103FF40000100240001001400014014080B500AFE1
:10400400174B184A1A60164B4FF482725A60144BBD
:1040140000229A60124B0022DA60114B00221A61CE
:104024000F4B00225A610E4B4FF400729A610C4BF5
:104034000022DA610A4B00221A62094B00225A62FA
:10404400074B00229A62064B0A22DA620448FFF701
:10405400EDF80346002B01D0FFF731FC00BF80BD13
:104064005C0100200038004080B588B000AF786063
:1040740007F1100300221A605A609A60DA607B68C4
:104084001B681C4A934231D11B4BDB691A4A43F427
:104094008043D361184BDB6903F48043FB60FB6806
:1040A400154B9B69144A43F008039361124B9B69B7
:1040B40003F00803BB60BB684FF430433B61022349
:1040C4007B610323FB6107F1100319460B48FDF7DD
:1040D400F5F84FF480433B6100237B610023BB610F
:1040E40007F1100319460548FDF7E8F800BF20372B
:1040F400BD4680BD0038004000100240000C014065
:1041040080B500AF114B124A1A60104B4FF4E132E4
:104114005A600E4B00229A600C4B0022DA600B4B63
:1041240000221A61094B0C225A61084B00229A6141
:10413400064B0022DA610548FFF7FCF80346002B22
:1041440001D0FFF7BCFB00BF80BD00BFB40100205D
:104154000038014080B500AF114B124A1A60104B71
:104164004FF4E1325A600E4B00229A600C4B00224D
:10417400DA600B4B00221A61094B0C225A61084B7E
:1041840000229A61064B0022DA610548FFF7D2F853
:104194000346002B01D0FFF792FB00BF80BD00BF98
:1041A400FC0100200044004080B500AF114B124ACE
:1041B4001A60104B4FF4E1325A600E4B00229A60A1
:1041C4000C4B0022DA600B4B00221A61094B0C22C3
:1041D4005A61084B00229A61064B0022DA610548B5
:1041E400FFF7A8F80346002B01D0FFF768FB00BFD8
:1041F40080BD00BF440200200048004080B58CB060
:1042040000AF786007F1200300221A605A609A60B8
:10421400DA607B681B68534A934232D1524B9B69E4
:10422400514A43F4804393614F4B9B6903F48043A9
:10423400FB61FB694C4B9B694B4A43F0040393615C
:10424400494B9B6903F00403BB61BB694FF40073E2
:104254003B6202237B620323FB6207F120031946BE
:104264004248FDF72BF84FF480633B6200237B62E6
:104274000023BB6207F1200319463C48FDF71EF8F2
:104284006CE07B681B683A4A934230D1364BDB6959
:10429400354A43F40033D361334BDB6903F4003311
:1042A4007B617B69304B9B692F4A43F00403936124
:1042B4002D4B9B6903F004033B613B6904233B6280
:1042C40002237B620323FB6207F12003194627487C
:1042D400FCF7F4FF08233B6200237B620023BB62EC
:1042E40007F1200319462148FCF7E8FF36E07B6814
:1042F4001B68204A934231D11B4BDB691A4A43F4B1
:104304008023D361184BDB6903F48023FB60FB68D3
:10431400154B9B69144A43F008039361124B9B6944
:1043240003F00803BB60BB684FF480633B62022365
:104334007B620323FB6207F1200319460E48FCF756
:10434400BDFF4FF400633B6200237B620023BB622A
:1043540007F1200319460848FCF7B0FF00BF3037C7
:10436400BD4680BD003801400010024000080140F5
:104374000044004000480040000C014080B500AFFC
:104384000D4B0E4A1A600C4B08221A710A4B02227A
:104394009A71094B00229A72074B0022DA72064B7B
:1043A40000221A730448FFF7A3F80346002B01D038
:1043B400FFF785FA00BF80BD8C020020005C00403E
:1043C40080B485B000AF78607B681B68094A93426B
:1043D4000BD1094BDB69084A43F40003D361064B54
:1043E400DB6903F40003FB60FB6800BF1437BD46C0
:1043F40080BC7047005C00400010024080B400AFF5
:1044040000BFFDE780B400AF00BFFDE780B400AF9C
:1044140000BFFDE780B400AF00BFFDE780B400AF8C
:1044240000BFFDE780B400AF00BFBD4680BC70474D
:1044340080B400AF00BFBD4680BC704780B400AFFD
:1044440000BFBD4680BC704780B500AFFCF758F98B
:1044540000BF80BD80B485B000AF134B9B69124A86
:1044640043F001039361104B9B6903F00103BB60AC
:10447400BB680D4BDB690C4A43F08053D3610A4B94
:10448400DB6903F080537B607B68084B5B68FB60EF
:10449400FB6823F0E063FB60044AFB68536000BFE1
:1044A4001437BD4680BC7047001002400000014034
:1044B400FBF7B6FE0B480C490C4A002302E0D45823
:1044C400C4500433C4188C42F9D3094A094C00235C
:1044D40001E013600432A242FBD300F017F8FFF7A7
:1044E40057F97047000000200C000020B845000870
:1044F4000C00002064050020FEE7034602449342BA
:1045040000D1704703F8011BF9E7000070B50026DD
:104514000C4D0D4C641BA410A64209D100F01AF8EE
:1045240000260A4D0A4C641BA410A64205D170BD96
:1045340055F8043B98470136EEE755F8043B984795
:104544000136F2E7B0450008B0450008B045000860
:10455400B4450008F8B500BFF8BC08BC9E467047D7
:0C456400F8B500BFF8BC08BC9E467047CC
:104570000000000000000000010203040607080913
:1045800000000000010203040203040506070809F5
:104590000A0B0C0D0E0F101001020000020304059F
:1045A000060708090A0B0C0D0E0F1010010200007F
:0445B00009020008F4
:0445B400E501000815
:0C45B80000127A0010000000010000005A
:04000005080044B5F6
:00000001FF
